:400000000080002011000000610200006102000080B500AF47F2BC63C4F2000344F2FA62C4F2000212681A6000F01EF910B5054C237833B9044810B10448AFF300800121D5
:40004000217010BDC081FF1F000000003844000008B5064B1BB106480649AFF300800648016811B1054A02B1904708BD0000000038440000C481FF1F0881FF1F0000000011
:4000800080B584B000AF02460B46FA71BB71FB7918464FF0000100F007FF0346002B02D04FF000031DE0BB79184601F01FF8FB7918464FF0010100F071FF4FF0010001F02D
:4000C0006DF803464FEA0323FB814FF0000001F065F803461A46FB891343FB8100F0CCFFFB89184607F11007BD4680BD80B586B000AF4FF00003FB7500F0EEFB01F048F928
:4001000062B64FF018004FF00601FFF7B9FF0346BB82B7F91430542B03D04FF00103FB7513E04FF018004FF00701FFF7A9FF0346BB82B7F914304FEA2323BB82B7F9143084
:40014000042B02D04FF00103FB75FB7D002B06D044F24040C0F2000001F06CF907E044F25440C0F2000001F065F900E000BFFB7D002BFBD14FF018004FF00501FFF780FFC3
:400180000346BB82B7F914304FEAC303BB82B7F914304FEAE303BB82B7F91430184601F047FD02460B46104619464FF000024FF00003C3F6B07301F0A1FD02460B46104687
:4001C000194601F0ADFF03463B61386901F042FD02460B46104619464FF000024FF00003C4F2220301F08AFD02460B46104619464FF000024FF00003C4F2140301F0A8FEF4
:4002000002460B46104619464FF000024FF00003C4F2400301F0C0FB02460B461046194601F07EFF03463B61386901F013FD02460B463946084644F26841C0F2000101F01C
:40024000F7FF4FF001004FF0000101F0B7F83B46184601F0EFF84FF0FA0001F009FB85E780B400AFFEE700BF80B586B000AF40F20103C0F200037B6144F23463C0F200032D
:400280003B6140F20103C0F200037B6144F23463C0F200033B613BE03B691B68FB603B695B68BB603B699B683B604FF000037B600FE0FB681A68BB681A60BB6803F10403B0
:4002C000BB60FB6803F10403FB607B6803F104037B607A683B689A42EBD13B69DB683B604FF000037B600BE0BB684FF000021A60BB6803F10403BB607B6803F104037B60FA
:400300007A683B689A42EFD13B6903F110033B617B69002B0CBF00230123DBB27A6902F1FF327A61002BB7D101F04AFFFFF7DEFEFEE700BF80B582B000AF4EF60C53CEF2E9
:4003400000034FF48062C0F2FA521A604EF61453CEF200034EF61452CEF20002126842F400721A604FF000037B6019E07B68032B07D840F20003C0F200037A6853F82230F8
:4003800003E040F26123C0F2000348F20002C1F6FF72796842F821307B6803F101037B607B682F2BE2D947F2BC63C4F200031B78DAB248F20413C1F6FF731A704EF608539E
:4003C000CEF2000348F20002C1F6FF721A6000F027F948F20013C1F6FF734FF000021A6007F10807BD4680BD80B582B000AF7860396078684FF000013A6801F010FF07F193
:400400000807BD4680BD00BF80B584B000AFF860B9607A60F868B9687A6801F0F7FE07F11007BD4680BD00BF80B483B000AF0346FB71FEE780B487B000AF786039604FF07A
:4004400000033B614FF000037B612CE07B694FEA83037A68D3181B68BB60BB68FB73BB6823F0FF03BB6017E03B694FEA43033A68D3181B781A46BB68D3183A694FEA4202F9
:4004800039688A1852781A703B6903F101033B61FB7B03F1FF33FB73FB7B002BE4D17B6903F101037B617B690C2BCFD907F11C07BD4680BC704700BF80B582B000AF4FF469
:4004C0008643C4F200034FF002021A704FF040234FF008021A704FF48443C4F200034FF003021A7044F2A163C4F200034FF48472C4F600121278D2B21A7044F22223C4F2E6
:4005000000034FF008021A8044F22023C4F2000341F251221A804FF00003FB704FF019037B6019E0FB784FEA4303DAB244F22523C4F200031B78DBB203F00103DBB21343D8
:40054000DBB203F00303FB704FF4F07001F070F97B6803F1FF337B607B68002B02D0FB78032BDFD17B68002B03D14FF00300FFF75BFF44F20403C4F200034FF480721A803F
:4005800044F20403C4F200034FF007021A7044F20603C4F200034FF000021A7044F20803C4F200034FF048021A7044F20403C4F200034FF000021A7044F20103C4F20003EF
:4005C0004FF002021A7007F10807BD4680BD00BF80B483B000AF40F2CF13C4F600131B78FB7145F66E03C4F20003FA7902F00702D2B21A7045F66F03C4F20003FA794FEA3F
:400600001212D2B21A7045F67603C4F200034FF044021A7007F10C07BD4680BC704700BF80B586B000AF72B644F2E863C4F2000344F2E862C4F200021278D2B242F0040252
:40064000D2B21A704FF00003FB7519E0FA7D13464FEA43039B184FEA430344F27042C0F200029B183B613B691A683B699B889BB210461946FFF7B8FEFB7D03F10103FB75DA
:40068000FB7D082BE2D94FF00003FB7523E0FA7D13464FEA83039B184FEA430344F2A842C0F200029B18FB60FB681B68BB60FB685B687B60FB681A7A5B7A4FEA03231343F9
:4006C0007B807B88B86879681A46FFF79DFEFB7D03F10103FB75FB7D002BD8D04FF090404FF03401C4F60001FFF7A4FE45F20303C4F2010345F20302C4F201021278D2B20F
:4007000042F00202D2B21A7045F21303C4F2010345F21302C4F201021278D2B242F00202D2B21A7044F2A033C4F2000344F2A032C4F200021278D2B242F04002D2B21A7005
:4007400044F2C233C4F2000344F2C232C4F200021278D2B242F01002D2B21A7045F2C010C4F200004FF07801C4F600014FF00A02FFF74AFE45F22210C4F200004FF08401B7
:40078000C4F600014FF00802FFF73EFE44F22233C4F2000344F22232C4F200021278D2B242F00802D2B21A704FF49043C4F200034FF001021A70FFF77FFE4FF49043C4F24B
:4007C00000034FF081021A704FF00403C4F208034FF001021A70FFF7FBFE44F2B030C4F2000044F2A031C4F200014FF00E02FFF70BFE07F11807BD4680BD00BF80B500AF16
:4008000044F6D613C4F200034FF002021A7044F6C813C4F200034FF081021A7044F6DB13C4F200034FF00F021A7044F6DC13C4F200034FF000021A704EF28013CEF20003F7
:400840004FF400421A604FF00F004FF0070101F077F84FF00F0040F61111C0F2000101F03FF848F2E813C1F6FF734FF010021A7000F0FEFC00F016FD00F0E2FC80BD00BF13
:4008800080B582B000AF00F0DDFF0346FB7144F2A533C4F2000344F2A532C4F200021278D2B242F00402D2B21A7044F2B533C4F2000344F2B532C4F200021278D2B242F0D5
:4008C0000402D2B21A70FB79184600F0BFFF07F10807BD4680BD00BF80B500AF48F2DC13C1F6FF731B78002B08D1FFF787FF48F2DC13C1F6FF734FF001021A70FFF7C0FF42
:400900004FF46143CEF200034FF400421A6080BD80B582B000AF44F6D713C4F200031B78FB7148F2E813C1F6FF731B78DBB203F04003DBB2002B00F0A082FB7903F00103F6
:40094000002B00F0638248F2E813C1F6FF731B78DBB2A3F14503052B00F2538201A252F823F000BF7D090000730B0000030E0000030E00007D0900001B0D0000FB7923F00C
:400980002003FB71FB7903F00A03DBB2082B40F0858048F2E813C1F6FF731B78DBB2452B6DD148F2ED13C1F6FF731B78DBB2002B21D044F6D813C4F2000348F2F812C1F69B
:4009C000FF7212681278D2B21A7044F6D713C4F200034FF004021A7048F2EC13C1F6FF734FF001021A7048F2E813C1F6FF734FF046021A700AE248F2F413C1F6FF731B7842
:400A0000DBB203F00203002B1CD048F2EE13C1F6FF731B78DBB243F00A03DAB248F2EE13C1F6FF731A7048F2E813C1F6FF734FF060021A704EF28013CEF200034FF4004238
:400A40001A60E3E144F6D613C4F2000344F6D612C4F200021278D2B242F01002D2B21A7044F6D913C4F200034FF010021A7044F6D713C4F200034FF004021A70C6E144F6DB
:400A8000D713C4F200034FF000021A7048F2E813C1F6FF734FF04A021A70B7E1FB7903F00A03DBB20A2B5FD148F2EE13C1F6FF731B78DBB263F05F03DAB248F2EE13C1F6A0
:400AC000FF731A7048F2F413C1F6FF731B78DBB203F00203002B2AD048F2E813C1F6FF731B78DBB203F00803002B02D04FF0090201E04FF00A0248F2EE13C1F6FF731B786D
:400B0000DBB21343DAB248F2EE13C1F6FF731A7048F2E813C1F6FF734FF060021A704EF28013CEF200034FF400421A606EE144F6D613C4F2000344F6D612C4F200021278AB
:400B4000D2B242F01002D2B21A7044F6D913C4F200034FF010021A7044F6D713C4F200034FF004021A7051E14FF0000000F074FE4CE1FB7903F00203002B7CD148F2EC131C
:400B8000C1F6FF731B78DAB248F2ED13C1F6FF731B78DBB29A4228D244F6D813C4F2000348F2F812C1F6FF72116848F2EC12C1F6FF721278D2B28A181278D2B21A7044F6EF
:400BC000D713C4F200034FF004021A7048F2EC13C1F6FF731B78DBB203F10103DAB248F2EC13C1F6FF731A7010E148F2F413C1F6FF731B78DBB203F00203002B1CD048F2CD
:400C0000EE13C1F6FF731B78DBB243F00A03DAB248F2EE13C1F6FF731A7048F2E813C1F6FF734FF060021A704EF28013CEF200034FF400421A60E9E000F04EFB44F6D6136D
:400C4000C4F2000344F6D612C4F200021278D2B242F01002D2B21A7044F6D913C4F200034FF010021A7044F6D713C4F200034FF004021A70CAE048F2F413C1F6FF731B7874
:400C8000DBB203F00203002B1CD048F2EE13C1F6FF731B78DBB263F06503DAB248F2EE13C1F6FF731A7048F2E813C1F6FF734FF060021A704EF28013CEF200034FF400423B
:400CC0001A60A3E044F6D613C4F2000344F6D612C4F200021278D2B242F01002D2B21A7044F6D913C4F200034FF010021A7044F6D713C4F200034FF004021A7048F2EE1340
:400D0000C1F6FF731B78DBB263F06F03DAB248F2EE13C1F6FF731A7078E048F2F013C1F6FF731A6848F2F613C1F6FF731B78DBB2D21844F6D813C4F200031B78DBB21370F4
:400D400048F2F613C1F6FF731B78DBB203F10103DAB248F2F613C1F6FF731A7048F2F613C1F6FF731B78DAB248F2F513C1F6FF731B78DBB29A4207D244F6D713C4F20003C5
:400D80004FF010021A7041E048F2F413C1F6FF731B78DBB203F00203002B1CD048F2EE13C1F6FF731B78DBB243F00903DAB248F2EE13C1F6FF731A7048F2E813C1F6FF7303
:400DC0004FF060021A704EF28013CEF200034FF400421A601AE044F6D613C4F2000344F6D612C4F200021278D2B242F01002D2B21A7044F6D713C4F200034FF000021A707B
:400E000004E04FF0000000F027FD00BFFB7903F02003002B43D048F2E813C1F6FF731B78DBB203F00803002B02D04FF0010201E04FF0020248F2EE13C1F6FF731B78DBB291
:400E40001343DAB248F2EE13C1F6FF731A7044F6D613C4F2000344F6D612C4F200021278D2B222F01002D2B21A7048F2E813C1F6FF734FF010021A7011E048F2E813C1F696
:400E8000FF731B78DBB203F01003DBB2002B06D148F2E813C1F6FF734FF010021A7007F10807BD4680BD00BF80B485B000AF02460B46FA71BB714FF00203FB7348F2E8139D
:400EC000C1F6FF731B78DBB2102B5FD144F6D913C4F200031B78DBB203F00803002B52D14EF28013CEF200034FF400421A60FB794FEA4303FB71BB79002B0BD0FB7943F01E
:400F00000103FB7148F2E813C1F6FF734FF049021A7006E048F2E813C1F6FF734FF045021A7044F6D813C4F20003FA791A7044F6D913C4F200034FF001021A7000BF44F6FC
:400F4000D713C4F200031B78DBB203F00103002BF5D044F6D713C4F200031B78DBB203F00A03DBB20A2B0AD148F2E813C1F6FF734FF010021A704FF00303FB7306E04FF01C
:400F80000003FB7302E04FF00103FB73FB7B184607F11407BD4680BC704700BF80B485B000AF02460B46FA71BB714FF00203FB7344F6D913C4F200031B78DBB203F004039E
:400FC000002B51D0FB794FEA4303FB71BB79002B0BD0FB7943F00103FB7148F2E813C1F6FF734FF049021A7006E048F2E813C1F6FF734FF045021A7044F6D813C4F2000351
:40100000FA791A7044F6D913C4F200034FF012021A7044F6D713C4F200034FF004021A7000BF44F6D713C4F200031B78DBB203F00103002BF5D044F6D713C4F200031B7838
:40104000DBB203F00A03DBB20A2B0AD148F2E813C1F6FF734FF010021A704FF00303FB7302E04FF00003FB73FB7B184607F11407BD4680BC704700BF80B483B000AF4FF0D7
:401080000203FB7144F6D913C4F200031B78DBB203F00403002B22D044F6D913C4F200034FF010021A7044F6D713C4F200034FF004021A7048F2E813C1F6FF734FF0100294
:4010C0001A7000BF44F6D713C4F200031B78DBB203F02103002BF5D04FF00003FB71FB79184607F10C07BD4680BC704780B485B000AF0346FB714FF00203FB7344F6D9137D
:40110000C4F200031B78DBB203F00403002B3DD044F6D813C4F20003FA791A7044F6D713C4F200034FF004021A7048F2E813C1F6FF734FF046021A7000BF44F6D713C4F215
:4011400000031B78DBB203F00103002BF5D044F6D713C4F200031B78DBB203F00203002B0AD148F2E813C1F6FF734FF060021A704FF00003FB7309E048F2E813C1F6FF73EA
:401180004FF060021A704FF00303FB73FB7B184607F11407BD4680BC704700BF80B485B000AF0346FB714FF00003FB7344F6D913C4F200031B78DBB203F00403002B38D00C
:4011C00048F2E813C1F6FF731B78DBB2492B0DD148F2E813C1F6FF734FF04A021A7044F6D713C4F200034FF000021A7000BF44F6D713C4F200031B78DBB203F00103002B26
:40120000F5D044F6D813C4F200031B78FB73FB79002B07D044F6D713C4F200034FF010021A7006E048F2E813C1F6FF734FF060021A70FB7B184607F11407BD4680BC704790
:4012400080B483B000AF48F2EE13C1F6FF731B78FB7148F2EE13C1F6FF734FF000021A70FB79184607F10C07BD4680BC704700BF80B400AF48F2F613C1F6FF734FF00002A4
:401280001A7048F2EE13C1F6FF731B78DBB223F00103DAB248F2EE13C1F6FF731A70BD4680BC704780B400AF48F2EC13C1F6FF734FF000021A7048F2EE13C1F6FF731B7892
:4012C000DBB223F00203DAB248F2EE13C1F6FF731A70BD4680BC704780B400AFBD4680BC704700BF80B500AF4FF0280000F0C0FA4FF0030000F052FA4FF0050000F0B8FAE8
:401300004FF0030000F04AFA4FF00F0000F0B0FA4FF0030000F042FA4FF0010000F0A8FA4FF0020000F03AFA4FF0050000F0A0FA4FF0060000F0BAF84FF00E0000F0B6F80A
:401340004FF02C0000F0B2F84FF0080000F0AEF84FF0010000F0AAF84FF00C0000F0A6F84FF0030000F0A2F84FF0050000F080FA80BD00BF80B500AF4FF00C0000F096F8BD
:4013800048F2DD13C1F6FF734FF001021A7080BD80B500AF48F2DE13C1F6FF731B78002B08D1FFF79FFF48F2DE13C1F6FF734FF001021A70FFF7DEFF80BD00BF80B582B018
:4013C00000AF02460B46FA71BB71FB79032B2BD801A252F823F000BFE9130000F91300000914000019140000BB79A3F18003DBB2184600F05BF818E0BB79A3F14003DBB24F
:40140000184600F053F810E0BB79A3F16C03DBB2184600F04BF808E0BB79A3F12C03DBB2184600F043F800E000BF07F10807BD4680BD00BF80B584B000AF78604FF0010301
:40144000FB737B681B78BB730CE0BB7B184600F011F8FB7B7A68D3181B78BB73FB7B03F10103FB73BB7B002BEFD107F11007BD4680BD00BF80B584B000AF0346FB7100F015
:4014800031F8FB794FEA1313FB73FB7B184600F02DF9FB7903F00F03FB73FB7B184600F025F907F11007BD4680BD00BF80B584B000AF0346FB7100F015F8FB794FEA131364
:4014C000FB73FB7B184600F069F9FB7903F00F03FB73FB7B184600F061F907F11007BD4680BD00BF80B582B000AF45F22013C4F2000345F22012C4F200021278D2B222F0CB
:401500007F02D2B21A7045F22213C4F200031B78DBB223F00F03FB7145F22213C4F20003FA7942F00F02D2B21A7045F22313C4F200031B78DBB223F00F03FB7145F2231319
:40154000C4F20003FA791A7045F22413C4F200031B78DBB223F00F03FB7145F22413C4F20003FA791A7045F22013C4F2000345F22012C4F200021278D2B222F02002D2B2AF
:401580001A7045F22013C4F2000345F22012C4F200021278D2B242F04002D2B21A704FF0000000F089F945F22013C4F2000345F22012C4F200021278D2B242F01002D2B202
:4015C0001A704FF0010000F077F945F22113C4F200031B78FB7145F22013C4F2000345F22012C4F200021278D2B222F01002D2B21A704FF0000000F05FF9FB7903F0080321
:40160000FB7145F22013C4F2000345F22012C4F200021278D2B242F01002D2B21A704FF0010000F049F945F22013C4F2000345F22012C4F200021278D2B222F01002D2B22E
:401640001A70FB79002BAAD145F22013C4F2000345F22012C4F200021278D2B222F04002D2B21A7045F22013C4F2000345F22012C4F200021278D2B222F07F02D2B21A701F
:4016800045F22213C4F2000345F22212C4F200021278D2B222F00F02D2B21A7045F22313C4F200031B78DBB223F00F03FB7145F22313C4F20003FA7942F00F02D2B21A70E2
:4016C00045F22413C4F200031B78DBB223F00F03FB7145F22413C4F20003FA7942F00F02D2B21A7007F10807BD4680BD80B582B000AF0346FB71FFF7F5FE45F22013C4F20C
:40170000000345F22012C4F200021278D2B242F02002D2B21A7045F22013C4F2000345F22012C4F200021278D2B222F04002D2B21A7045F22013C4F2000345F22012C4F21F
:4017400000021278D2B222F00F02D2B21A7045F22013C4F2000345F22012C4F200021278D1B2FA790A43D2B242F01002D2B21A704FF0010000F0A0F845F22013C4F2000356
:4017800045F22012C4F200021278D2B222F01002D2B21A7007F10807BD4680BD80B582B000AF0346FB7145F22013C4F2000345F22012C4F200021278D2B222F06002D2B26C
:4017C0001A7045F22013C4F2000345F22012C4F200021278D2B222F00F02D2B21A7045F22013C4F2000345F22012C4F200021278D1B2FA790A43D2B242F01002D2B21A70F5
:401800004FF0010000F058F845F22013C4F2000345F22012C4F200021278D2B222F01002D2B21A7007F10807BD4680BD000000000230800800F0058000BF013800467FF47D
:40184000FCAF7047EFF3108072B6704780F31088704700BFAFF3008080B483B000AF0346FB7101BE07F10C07BD4680BC704700BF80B582B000AF78600BE048F21813C1F6D3
:40188000FF731B681846FFF7D3FF7B68A3F500437B607B68B3F5004FEFD848F21013C1F6FF731B687A6802FB03F31846FFF7C0FF07F10807BD4680BD80B582B000AF03463C
:4018C000FB80FA8848F21413C1F6FF731B7803FB02F31846FFF7ACFF07F10807BD4680BD80B584B000AF03463960FB714EF60853CEF200031B68FB60FB791F2B03D94FF016
:401900000000FFF7A9FFFB7903F01F0303F110034FEA8303FA68D3181B68BB60FB7903F01F0303F110034FEA8303FA68D3183A681A60BB68184607F11007BD4680BD00BF88
:4019400080B582B000AF02460B46FA71BB71BB79072B03D94FF00000FFF77EFFFB791F2B03D94FF00000FFF777FFFB7903F01F0303F1604303F56443BA794FEA4212D2B2E5
:401980001A7007F10807BD4680BD00BF81F0004102E000BF83F0004330B54FEA41044FEA430594EA050F08BF90EA020F1FBF54EA000C55EA020C7FEA645C7FEA655C00F00E
:4019C000E2804FEA5454D4EB5555B8BF6D420CDD2C4480EA020281EA030382EA000083EA010180EA020281EA0303362D88BF30BD11F0004F4FEA01314FF4801C4CEA11317A
:401A000002D0404261EB410113F0004F4FEA03334CEA133302D0524263EB430394EA050F00F0A780A4F10104D5F1200E0DDB02FA0EFC22FA05F2801841F1000103FA0EF28D
:401A4000801843FA05F359410EE0A5F120050EF1200E012A03FA0EFC28BF4CF0020C43FA05F3C01851EBE37101F0004507D54FF0000EDCF1000C7EEB00006EEB0101B1F587
:401A8000801F1BD3B1F5001F0CD349085FEA30004FEA3C0C04F101044FEA445212F5800F80F09A80BCF1004F08BF5FEA500C50F1000041EB045141EA050130BD5FEA4C0CD8
:401AC000404141EB010111F4801FA4F10104E9D191F0000F04BF01460020B1FA81F308BF2033A3F10B03B3F120020CDA0C3208DD02F1140CC2F10C0201FA0CF021FA02F102
:401B00000CE002F11402D8BFC2F1200C01FA02F120FA0CFCDCBF41EA0C019040E41AA2BF01EB0451294330BD6FEA04041F3C1CDA0C340EDC04F11404C4F1200220FA04F0C0
:401B400001FA02F340EA030021FA04F345EA030130BDC4F10C04C4F1200220FA02F001FA04F340EA0300294630BD21FA04F0294630BD94F0000F83F4801306BF81F4801120
:401B80000134013D4EE77FEA645C18BF7FEA655C29D094EA050F08BF90EA020F05D054EA000C04BF1946104630BD91EA030F1EBF0021002030BD5FEA545C05D140004941C1
:401BC00028BF41F0004130BD14F580043CBF01F5801130BD01F0004545F0FE4141F470014FF0000030BD7FEA645C1ABF194610467FEA655C1CBF0B46024650EA013406BF9E
:401C000052EA033591EA030F41F4002130BD00BF90F0000F04BF0021704730B54FF4806404F132044FF000054FF0000150E700BF90F0000F04BF0021704730B54FF4806490
:401C400004F1320410F0004548BF40424FF000013EE700BF42004FEAE2014FEA31014FEA02701FBF12F07F4393F07F4F81F06051704792F0000F14BF93F07F4F704730B5B6
:401C80004FF4607401F0004521F0004120E700BF50EA010208BF704730B54FF000050AE050EA010208BF704730B511F0004502D5404261EB41014FF4806404F132045FEA89
:401CC000915C3FF4DCAE4FF003025FEADC0C18BF03325FEADC0C18BF033202EBDC02C2F1200300FA03FC20FA02F001FA03FE40EA0E0021FA02F11444C1E600BF70B54FF072
:401D0000FF0C4CF4E06C1CEA11541DBF1CEA135594EA0C0F95EA0C0F00F0DEF82C4481EA030621EA4C5123EA4C5350EA013518BF52EA033541F4801143F4801338D0A0FB38
:401D400002CE4FF00005E1FB02E506F00042E0FB03E54FF00006E1FB03569CF0000F18BF4EF0010EA4F1FF04B6F5007F64F5407404D25FEA4E0E6D4146EB060642EAC62110
:401D800041EA55514FEAC52040EA5E504FEACE2EB4F1FD0C88BFBCF5E06F1ED8BEF1004F08BF5FEA500E50F1000041EB045170BD06F0004646EA010140EA020081EA0301D8
:401DC000B4EB5C04C2BFD4EB0C0541EA045170BD41F480114FF0000E013C00F3AB8014F1360FDEBF002001F0004170BDC4F10004203C35DA0C341BDC04F11404C4F12005D0
:401E000000FA05F320FA04F001FA05F240EA020001F0004221F0004110EBD37021FA04F642EB06015EEA430E08BF20EAD37070BDC4F10C04C4F1200500FA04F320FA05F0FF
:401E400001FA04F240EA020001F0004110EBD37041F100015EEA430E08BF20EAD37070BDC4F1200500FA05F24EEA020E20FA04F301FA05F243EA020321FA04F001F000413F
:401E800021FA04F220EA020000EBD3705EEA430E08BF20EAD37070BD94F0000F0FD101F00046400041EB010111F4801F08BF013CF7D041EA060195F0000F18BF704703F02F
:401EC0000046520043EB030313F4801F08BF013DF7D043EA0603704794EA0C0F0CEA135518BF95EA0C0F0CD050EA410618BF52EA4306D1D181EA030101F000414FF0000014
:401F000070BD50EA410606BF1046194652EA430619D094EA0C0F02D150EA013613D195EA0C0F05D152EA03361CBF104619460AD181EA030101F0004141F0FE4141F4700143
:401F40004FF0000070BD41F0FE4141F4780170BD70B54FF0FF0C4CF4E06C1CEA11541DBF1CEA135594EA0C0F95EA0C0F00F0A7F8A4EB050481EA030E52EA03354FEA013145
:401F800000F088804FEA03334FF0805545EA131343EA12634FEA022245EA111545EA10654FEA00260EF000419D4208BF964244F1FD0404F5407402D25B084FEA3202B61AE6
:401FC00065EB03055B084FEA32024FF480104FF4002CB6EB020E75EB030E22BFB61A754640EA0C005B084FEA3202B6EB020E75EB030E22BFB61A754640EA5C005B084FEA33
:402000003202B6EB020E75EB030E22BFB61A754640EA9C005B084FEA3202B6EB020E75EB030E22BFB61A754640EADC0055EA060E18D04FEA051545EA16754FEA06164FEADE
:40204000C30343EA52734FEAC2025FEA1C1CC0D111F4801F0BD141EA00014FF000004FF0004CB6E711F4801F04BF01430020B4F1FD0C88BFBCF5E06F3FF6AFAEB5EB030C85
:4020800004BFB6EB020C5FEA500C50F1000041EB045170BD0EF0004E4EEA113114EB5C04C2BFD4EB0C0541EA045170BD41F480114FF0000E013C90E645EA060E8DE60CEA85
:4020C000135594EA0C0F08BF95EA0C0F3FF43BAF94EA0C0F0AD150EA01347FF434AF95EA0C0F7FF425AF104619462CE795EA0C0F06D152EA03353FF4FDAE1046194622E7FE
:4021000050EA410618BF52EA43067FF4C5AE50EA41047FF40DAF52EA43057FF4EBAE12E74FEA4102B2F1E04324BFB3F5001CDCF1FE5C0DD901F0004C4FEAC0024CEA507081
:40214000B2F1004F40EB830008BF20F00100704711F0804F21D113F13872BCBF01F00040704741F480114FEA5252C2F11802C2F1200C10FA0CF320FA02F018BF40F00100F1
:402180004FEAC1234FEAD32303FA0CFC40EA0C0023FA02F34FEA4303CCE77FEA625307D150EA01331EBF4FF0FE4040F44000704701F0004040F0FE4040F40000704700BF22
:4021C00038B50E4D0E4B0024E81A8510AC4205D00B4951F8242090470134F7E702F018FA0849094A541AA5100024AC4205D0054B53F8240080470134F7E738BD1C46000053
:402200001C4600001C4600002446000010B50023934203D0CC5CC4540133F9E710BD82180346934202D003F8011BFAE7704700000EB400B59CB0029006906FF000401DAB34
:40224000049007904FF402710A4853F8042BADF814104FF6FF71ADF81610006802A9019300F062F8029B00221A701CB05DF804EB03B070478081FF1F2DE9F84393680646FD
:4022800089461446002B41D1928912F4906F3DD0616903254D43236927680220FF1A95FBF0F5791C02F48062A94211B2A8BF3D18304679B1294601F02FFC8046A0B13A46A5
:4022C0002169FFF7A3FFA38923F4906040F08002A28113E019462A4601F05DFF804668B93046216901F0C8FBA0890C2340F0400233604FF0FF30A281BDE8F88308EB070101
:402300006561ED1BC4F810802160A560A368002B06DD206800F8019BA2682060511EA1600020BDE8F88300002DE9F0479CB003938B890D4603F0800114460AB2064662B10F
:402340002B6953B9402101F0E7FB2860286110B90C213160D3E04020686100272021302209978DF829108DF82A2023461F4613F8010B28B9B7EB040A16D04FF000090DE09D
:402380002528F3D1F6E7304614F809102A46FFF773FF013000F0AC8009F10109D145F2DB099901EB0A0209923B78002B00F0A08000244FF0FF3004940794059006948DF8EC
:4023C00053401A9407F101094F4F4C4638462178052201F0EBFB09F10109049B30B1C41B012707FA04F73B430493EDE7D90602D520218DF853101A0702D52B228DF85320C9
:4024000020782A2802D0079B27460EE0039A1768101D002F039001DB079704E0794243F002030791049301340AE03C46217801373039092903D80A2404FB0313F5E70793B7
:4024400022782E2A19D160782A2809D1039802340368021D002B0392B8BF4FF0FF330BE0671C00233C46217801373039092903D80A2404FB0313F5E70593244F21783846DE
:40248000032201F093FB38B1C71B402101FA07F1049B01340B43049314F8011B1C4806228DF8281001F082FB88B11A4A32B9039FFB1D23F007000830039014E003A9009169
:4024C000304604A92A46144B00F0C0F807E003A8009004A930462A460F4B00F079FBB0F1FF3F804604D0099A02EB080109913CE7AB8903F0400002B20AB9099801E04FF061
:40250000FF301CB0BDE8F087B6440000BC440000C04400004D260000792200002DE9D04F1E4688B012AB002E9246109F93E8180803DA06F100462D2100E00021BBF1660F10
:4025400019700AD0BBF1460F07D0BBF1650F02D0BBF1450F03D1013701E0032300E002238DE8880007AA06AB0393049202945246334600F0E1FCBBF1670F804602D0BBF1B1
:40258000470F02D11198C30728D5BBF1660F08EB070902D0BBF1460F0FD198F80010302909D1504631460022002301F0D1FE10B9C7F101072760236899445046314600221F
:4025C000002301F0C5FE08B1CDF81C900798484504D2302200F8012B0790F7E7079A159BC8EB02011960404608B0BDE8D08F73B50346002903F8022B02DA49422D2200E0D3
:402600002B22092942701A4619DD0DF106040A2691FBF6F506FB15113031092D234604F801192946F3DC303103F8011D0DF107018B4209D213F8011B02F8011BF6E7302255
:4026400089181A7059709A1C101A7CBD2DE9F04F91B00C4616461F46DDF86880054601F04FFAD0F800A0504601F0FCFD0B90D8F800000023C11D0E9321F0070303F1080254
:4026800094F818B0C8F80020D3E90001C4E91201D4E9120101F0A4FD0128D4E9120117D10022002301F05EFE10B12D2284F843209A489B49BBF1470F8CBF88468046206876
:4026C000032320F00401236121604FF0000986E001F086FD10B993489349EBE761684A1C01D1062307E0BBF1670F02D0BBF1470F02D109B9012363602268606842F480613A
:402700008DE80300D4E9122321600DF133000DA9029003910EA800210590CDF810B006912846FFF7FBFEBBF1670F804602D0BBF1470F09D10D9BD81C02DB6268934231DD00
:40274000ABF1020C5FFA8CFBBBF1650F0D9812D8411E5A4604F150000D91FFF748FF0E9A81468318012A236102DC2068C10730D5591C21612DE0BBF1660F15D10028636817
:4027800008DD206113B92268D2071ED50133C01820611AE013B92168C80701D59A1C13E0012211E04FF0670B0D9B0E998B4205DB20682361C10708D55A1C05E0002BD4BFDC
:4027C000C3F102030123CA1822610D994FF00009A1659DF8332012B12D2384F843300097284621460FAA334600F082F9013002D14FF0FF3079E1236813F480620DD19146BB
:402800002069814522DA284618F809103246B8470130EDD009F10109F2E7BBF1650F40F2F180D4E912010022002301F091FD00282DD0302128463246B8470130D8D00E9B40
:402840000D9A9A4207DB2068C30704D421688A0700F1488140E10B990AEB010BDA4507D028461AF8011B3246B8470130F6D1BFE74FF000080E9B5A1E9045E7DA2846A17EFD
:402880003246B8470130B3D008F10108F2E70D98002838DC302128463246B8470130A7D00D9A22B90E9810B92168C807CED50B9B0AEB030BDA4507D028461AF8011B3246B4
:4028C000B8470130F6D193E74FF000090D9A5042814508DA2846A17E3246B847013087D009F10109F2E74FF000090E998945ADDA284618F809103246B84701303FF478AFF8
:4029000009F10109F1E7A16D0E9B8B42B4BF9C468C46BCF1000F09DC002329E0C7440000CB440000CF440000D3440000C1460CEB080319F8011B28460993CDF828C032469A
:40294000B8470130099BDDF828C03FF451AF9945EFD1E1E7A17ECDF828C0284632460993B84701300999DDF828C03FF441AF4B1CD4F858902CEAEC72C2EB09008342E9DB5F
:402980000E990D9B8B420FDB2268D1070CD40E990D9BC844CA1AC9EB01099145A8BF9146B9F1000F0DDC18E00B980AEB000BDA45EDD028461AF8011B3246B8470130F6D19A
:4029C00016E708EB090A284618F8011B3246B84701303FF40DAFD045F5D14FF0000808E02846A17E3246B84701303FF401AF08F101080D980E9929EAE9720B1A981A804529
:402A0000EEDB23E70E9898F8001001280ADCDA0708D428463246B84701303FF4E9AE4FF0000848E028463246B84701303FF4E0AE0B990AEB010BDA4507D028461AF8011B54
:402A40003246B8470130F6D1D2E6D4E912010022002301F07DFC10B14FF000081AE04FF0000A0E98411E8A45D9DA08EB0A02517828463246B84701303FF4BAAE0AF1010A5F
:402A8000EFE72846A17E3246B84701303FF4B0AE08F101080E9B5A1E9045F2DBBFE704EB0803284693F850103246B84701303FF49FAE08F10108C845F1DBC7E62846617EBF
:402AC0003246B84701303FF493AE08F10108E2680F9BD01A8045F1DBE0680F998842B8BF084602E04FF00008F1E711B0BDE8F08F2DE9F047154699468A680B6980469A4255
:402B0000A8BF13462B6091F843000C46DDF820A008B1591C29602668B20602D52A68931C2B60206810F0060618D094F8437020683E1C18BF012683061AD5A119302281F85F
:402B4000432094F84530023681F8443010E04046617E4A46D047013006D00136E1682A688B1A9E42F3DBE0E74FF0FF30BDE8F0870027B74209DAE119404691F843104A4624
:402B8000D0470130F0D00137F3E721682868E66801F00602042A08BFC0EB06052369A6680CBF25EAE57500259E42C4BFC3EB0603ED180026AE4207DA4046A17E4A46D0479B
:402BC0000130D1D00136F5E70020BDE8F08700002DE9F0430C46257E85B06E2D9046074699460C9904F1430200F0AA8012D8632D24D009D8002D00F0BB80582D40F0CB8004
:402C000084F84550824D57E0642D20D0692D40F0C2801CE0732D00F0AF8009D86F2D2FD0702D40F0B880256845F0200626603FE0752D25D0782D40F0AE8039E0086804F113
:402C40004206021D0A60016884F84210A7E020680B6810F0800F02D01E1D0E6008E003F1040510F0400F0D6002D0B3F9001000E0196800293CDA2D20494284F8430037E043
:402C800025680E6815F0800F02D0331D0B6007E006F1040015F0400F086001D0318800E03168267E5A4D6F2E14BF0A2308231BE07820584D84F8450020680B6810F0800FB9
:402CC00003F104060E6003D1410601D5198800E01968C60744BF40F02000206019B9206820F0200323601023002084F8430001E0474D0A236668002EA66003DB206820F099
:402D00000400206001B96EB104F14200B1FBF3FE03FB1E11695C064600F8011971460029F4D100E01646921B082B22613CD12368D80739D56068904236DC511C616033E05C
:402D400026680B6816F0800F05D01E1D0E601968606908600CE003F1040016F0400F086003D018686369038002E061691E68316000232361164617E00E68321D0A603668C0
:402D8000304601F06FFA63682061984288BF23612069606005E004F1420684F8425001232361002184F84310CDF800903846214603AA4346FFF79CFE013002D14FF0FF30CF
:402DC00022E000252269954207DA3846715D4246C8470130F2D00135F4E72168890705D4E06803998842B8BF08460DE00025E068039BC21A9542F3DA3846617E4246C847B1
:402E00000130DBD00135F2E705B0BDE8F08300BFD7440000E84400002DE9F74F0B69026905469A42C0F28280D81C86008A1950685C1EAB1902F104095A68461CB2FBF6F6EE
:402E400001F1140805F11407002E3DD000203A46CDF804808646019B53F804CB1FFA8CFA06FB0A0A4FEA1C40019306FB00F303EB1A4C13684FEA1C401FFA83FBDE441FFA86
:402E80008CFC1FFA8AFACAEB0E0ACCEB134303EB2A4C019B1FFA8AFA4FEA2C4E4B454AEA0C4C42F804CBD6D9221D05EB8203586850B9BB421A4601D82C6105E01068043B13
:402EC0000028F9D1013CF4E7284601F091F800282ADB01363B46002058F804EB1A681FFA8EF11FFA82FAC1EB0A014FEA1E4C0918CCEB124000EB214289B2101441EA02424D
:402F0000C84543F8042BE7D9231D05EB8303586850B9BB42194601D82C6105E00A68043B002AF9D1013CF4E7304600E00020BDE8FE8F0000000000002DE9F04F456A99B082
:402F40008346259CCDE9042345B9102000F0DCFDCBF82400456085600560C560DBF82430196861B15868012202FA00F648608E60584600F05EFEDBF8241000270F60059BAC
:402F8000002B05DA012223F000462260059601E000202060059F9A49994B394099421CD12499049B42F20F720A603BB9954E9648C7F31307002F18BF304600E09148269E44
:402FC000002E00F05285C27812B100F1080100E0C11C269E316000F048BDDDE90445002220462946002301F0B3F958B1249E01233360269E002E00F0358584483060013865
:4030000000F033BD17A816AA00900192584622462B4601F06CF8C7F30A56824666B1204625F07F4424F4700545F07F5141F44011A6F2FF3600221CE0179C169D6FF482615C
:403040002E198E420ADB7249049D06F212448B1B25FA04F007FA03F7384304E06D4B049A981B02FA00F0FEF7D3FD013EA1F1F87101221592684B0022FEF78CFC5AA3D3E9CE
:403080000023FEF73BFE5AA3D3E90023FEF784FC044630460D46FEF7CBFD57A3D3E90023FEF72CFE02460B4620462946FEF774FC04460D4601F07EF9294681460022204610
:4030C000002301F04FF958B14846FEF7B1FD02460B462046294601F03BF908B909F1FF39B9F1160F0ED84D4800EBC903D3E90001DDE9042301F054F928B1002209F1FF399E
:40310000149201E00120149016998E1B741E04D5654200200895099002E0002309940893B9F1000F08DB099D002305EB09000990CDF844900C9308E0089AC9F10006C9EB19
:403140000201002408910C961194229A092A27D8052A03DD111F2291002500E00125229EB41E032C21D8DFE804F0060F0204012302E0012009E00023239A0D93002A1EDDF8
:403180000B92079213461FE00020239C0D9004EB0900431C002B0B90079315DC012313E00125002222920D9501E001260D964FF0FF3100260B9107911223239604E0012140
:4031C0000B9107910B462391DBF8244000206060042101F114029A4222D860684900421C6260F6E7AFF3008061436F63A787D23FB3C8608B288AC63FFB799F501344D33FAE
:403200000000F07F02450000F9440000074500000EFCFFFFEEFBFFFF0000F83F104500006168584600F0D0FC2060DBF82440079923680E290A9300F25E81002D00F05B8131
:40324000B9F1000FDDE90401CDE9120133DD9D4B09F00F0703EBC706D6E900454FEA2916F2060CD5984A06F00F0602F12003D3E90023FEF76DFE0327CDE9040100E00227BA
:40328000DFF8448276B1F30708D520462946D8E90023FEF733FD013704460D46761008F10808EFE7DDE9040122462B46FEF750FECDE9040120E0C9F10007E7B1814E07F09A
:4032C0000F0506EBC502DDE912010CCAFEF716FD7D4D3C1102274CB1E60704D5D5E900230137FEF70BFD64100835F4E702460B46CDE9042300E002271498E0B1DDE90445DB
:40330000002220462946714B01F02CF898B1079989B10B9B002B40F3EA80204609F1FF36294600226A4B1096FEF7E8FC0137CDE904010B9C02E0079CCDF840903846FEF7B3
:4033400077FCDDE90423FEF7D9FC0022614BFEF723FBA1F1507506462F46CCB9DDE9040100225D4BFEF716FB32462B46CDE9040101F016F8002840F04782DDE90401324603
:4033800005F1004300F0EEFF002840F03682AEE04C480D99621E00EBC20300294BD0D3E9002300204D49FEF7D3FD32462B46FEF7F1FADDE90467CDE90E010A9D39463046F6
:4033C00000F0F8FF8046FEF733FC02460B4630463946FEF7DFFA08F1300305F8013BDDE90E2306460F46A84600F0BCFF002840F0278332463B4600203449FEF7CBFADDE9F2
:403400000E2300F0AFFF002840F0D3800A99681AA0426CDADDE90E0100222D4BFEF76EFC0022CDE90E012A4B30463946FEF766FC06460F46C2E7D3E9000132462B46FEF76A
:403440005DFCDDE904670A9DCDE90E012C19A8463946304600F0AEFF0546FEF7E9FB02460B4630463946FEF795FA303508F8015BA04506460F4633D10022184BDDE90E01B6
:40348000FEF78AFA02460B463046394600F088FF002840F08E80DDE90E2300200F49FEF779FA02460B463046394600F05BFFF0B14046804618F8012C00F1FF30302AF8D00D
:4034C000BEE200BF10450000E84500000000F03F0000244000001C40000014400000E03F00229A4BFEF70AFC06460F46B0E7DDE91245CDE90445179D002D7CDBB9F10E0F34
:4035000079DC934C239904EBC9050029D5E9004514DA079A002A11DC40F06E812046294600228C4BFEF7EAFBDDE9042300F02EFF079C2546002840F0618168E10A9E079863
:403540000A9F33180137089322462B46DDE90401FEF7FEFC00F02EFF0790FEF769FB22462B46FEF7CBFB02460B46DDE90401FEF711FA079E0246303607F8016C089E0B4636
:40358000B742B84629D1FEF707FA22462B4606460F4600F005FF70B93046394622462B4600F0D6FE002800F04D820799C90702D448E2DDF840904046804618F8012C01383D
:4035C000392A06D10A9B8342F6D1302609F101091E7001784A1C027034E200225B4BFEF78DFB00220023CDE90401013700F0B0FE0028A9D026E20D9F002F30D0229A012A8B
:403600000ADC159911B105F2334302E01698C0F136030C9C089E16E0079E0C9B711E8B4201DB5C1A06E00C98119F0D1A7C1911940C910024079A002A03DA089E0023B61A72
:4036400001E0089E079B089D099AEF185846D31801210897099300F08BFB054602E00C9C089E0D9D66B1099F002F09DD0899099AB742A8BF3746C81BD31B0890F61B099346
:403680000C9F002F20DD0D99C1B1002C10DD29462246584600F006FC054652462946584600F06FFB51460746584600F0C2FABA460C98021B08D05846514602E00C9A58462F
:4036C000514600F0EFFB82460121584600F050FB119A0446002A05DD21465846119A00F0E1FB0446229B012B10DC049971B90598C0F3130767B9184F074057B1089A0999AF
:40370000531C481C08930990012702E0002700E0049F119A42B1216904EB8100006900F0DBFAC0F1200300E0012309995A1812F01F0315D0C3F1200004280FDD0898C3F1D3
:403740001C03C2180892F61810E000BF0000244010450000000014400000F07F08D0034608991C33CA1809990892F618CB180993089A002A04DD5146584600F0E5FB824647
:40378000099A002A04DD2146584600F0DDFB04461499E1B15046214600F02AFC002816DA514658460A22002300F05AFA82460D9809F1FF3948B129460A225846002300F02E
:4037C0004FFA0B9A0546079201E00B9B07930798002825DC2299022922DD78B921460522079B584600F03CFA04462146504600F0FFFB00280BDC01E000242546239BDDF8C1
:4038000028806FEA030909E0DDF840902546DDF82880312008F8010B09F101090026FEE00D9B002B00F0B380002E05DD29465846324600F089FB05469FB16968584600F0A7
:40384000C3F92B6907469A1C05F10C01920000F10C00FEF7DBFC58463946012200F074FB00E028460A9B07990A9E5A18771C09922E46054621465046FFF7CEFA03463033F7
:40388000079031465046029300F0B2FB214608902A46584600F0C9FB8446C06807F1FF38029B50B961465046CDF80CC000F0A0FB029B0246DDF80CC000E001225846614683
:4038C0000392029300F0B5F9039A029B6AB9229959B9049800F0010139B9392B2BD0089A002A2DDD079B31332AE00898002806DB1DD12299D9B9049800F00101B9B9002A03
:403900001F461DDD514601225846029300F01CFB2146824600F06CFB0028029B02DC0FD1DA070DD5079B3133392F09D103E0002A09DD392B03D1392308F8013B55E00133F4
:4039400008F8013B6BE0099AB846974207F8013C3BD051460A220023584600F081F90A220023AE4282463146584604D100F078F90646054609E000F073F9294606460A22FC
:403980005846002300F06CF90546013772E70D9E50462146FFF740FA0A9A00F13003079893550136864207DA514658460A22002300F056F98246EBE7DDF82880079900266E
:4039C0000129ACBF884408F10108514601225846029300F0B9FA2146824600F009FB0028029B02DC14D1DB0712D5414611F8010C8846392801F1FF3107D10A988842F5D168
:403A0000312309F10109037009E0421C0A7006E04046804618F8011C01383029F9D05846214600F006F96DB12EB1AE4203D05846314600F0FEF85846294600F0FAF801E0C1
:403A4000DDF8409051460026584600F0F2F888F80060249A269E09F10101116026B1C6F8008001E0024800E00A9819B0BDE8F08F06450000AFF3008030B500293CD051F81E
:403A8000042C0B1F1D49002AB8BF9B180A6812B95A600B6030BD93420ED219685818904203D15A5889184268196014485A60036030BD994203D80A4651680029F9D114684D
:403AC00015199D420AD118682318D0188842136012D108681B1813604B680CE002D90C23036030BD18681C188C4203D10C684968001918605960536030BD00BFE081FF1F69
:403B0000004870478481FF1F024B0146186800F003B800BF8081FF1F70B5CD1C25F0030508350C2D38BF0C25002D06462DDB8D422BD31D4B1B681C469CB12268501B0DD43F
:403B40000B2802D92060241817E0A34203D16068154A10601DE0616859601AE023466468EAE72946304600F06DFB431C01460CD0CC1C24F003048C4201D1256009E030466F
:403B8000611A00F05FFB0130F7D10C203060002070BD04F10B01231D21F00700C31A02D05A42E25070BD70BDE081FF1F10B5C9B2034682189342184604D0047801338C42E7
:403BC000F8D100E0002010BD70B5456A04460E463DB91020FFF798FF6062456085600560C560656AEB6843B1626AD36853F8260078B1016843F8261017E0042120462122DE
:403C000000F038FBE860606AC1680029ECD1002070BD012101FA06F56A1D2046920000F029FB0028F3D04660856000230361C36070BD70B5446A06460D463CB91020FFF76E
:403C400063FF7062446084600460C4603DB1736A6A68D86850F82210296040F8225070BD2DE9F0410C461E460D69074601F114010023086801331FFA80FC02FB0C6C060C9F
:403C8000564306EB1C401FFA8CFC060C0CEB0040AB4241F8040BECDBDEB1A268954213DB616838460131FFF78FFF8046206904F10C01831C9A0008F10C00FEF7A7FA214651
:403CC0003846FFF7B6FF444604EB85020135566125612046BDE8F081020C0346100410B91B04102000E0002013F07F4F01D108301B0213F0704F01D104301B0113F0404FBB
:403D000001D102309B00002B04DB5B0001D501307047202070470368024613F007000BD0D90721D4980703D55908116001207047980810600220704799B209B91B0C1020EF
:403D400013F0FF0F01D108301B0A190701D104301B09990701D102309B08D90702D45B0804D0013013607047002070472020704710B50C460121FFF727FF012244610261DC
:403D800010BD2DE9F04F164633690A6985B09A420D4601DA35460E46D5F810803769AA68696808EB07049442C8BF0131FFF70CFF00EB8401143100F114030191019A93423B
:403DC00003D2002243F8042BF8E706EB870705F1140305EB880C143702930CF1140E039700F1180306F11402039D1146AA424CD20988043209B3029F1D1F002657F8049B4C
:403E0000D5F800801FFA89FB1FFA88FA01FB0BAC4FEA19490CEB060A4FEA184601FB09681FFA8AFC08EB1A484CEA084ABE454FEA184645F804ABE1D82E6032F8021C11B34F
:403E400053F8046C029F1D464FF0000935F802ACB7F800B0B6B201FB0BACE14446EA094645F8046CA84657F8046BB8F800A0360C01FB06A6043506EB194677454FEA1649D2
:403E8000E4D3C8F800600433AEE7019B002C03DC046105B0BDE8F08F53F8042D002AF7D1013CF3E712F003032DE9F04105460E46174607D0234A5E1E52F826200023FFF741
:403EC000CFFE0646BF1039D06C6A3CB91020FFF71BFE6862446084600460C460D5F82480D8F808409CB9284640F27121FFF740FF0446C8F808000020206008E07F101DD092
:403F0000D4F800804046B8F1000F0ED00446F807F4D5314622462846FFF733FF314680462846FFF786FE4646E8E7284621462246FFF727FF2060C0F80080E7E73046BDE818
:403F4000F08100BFD84500002DE9F0470C4623694FEA621808EB030A4968A568814617460AF10106AE4202DD01316D00FAE74846FFF72AFE0022054600F11400424504DA60
:403F8000002140F822100132F8E728EAE870226905EB8003143304EB820017F01F0704F1140100F1140E14D01846C7F1200C00230A6802FA07F2134340F8043B51F8043BF5
:403FC000714523FA0CF3F3D3036043B10AF1020605E051F8042B8E4543F8042BF9D8013E48462E612146FFF724FE2846BDE8F08703460A69006930B5801A15D1151DAA0099
:4040000003F1140489189B1804330A1D53F8045D52F8041D8D4203D005D24FF0FF3030BD9C42F3D330BD012030BD2DE9F04706460C46084611461546FFF7DAFF071E08D180
:4040400039463046FFF7C0FD012101614761BDE8F08701DB002703E0234601272C461D4661683046FFF7B0FD2A69236905EB820104EB830CC7600CF1140C01F11408143478
:40408000143500F11407002254F8046B55F8041B1FFA86F94A441FFA81FA090CCAEB020EC1EB164606EB2E411FFA8EF90A1449EA014147F8041BA84526463946E4D8664596
:4040C0000DD256F8044BA5B2AD18220C02EB2544ADB2221445EA044441F8044BEFE751F8042D0AB9013BFAE70361BDE8F0872DE9F74301211D46DDF82890DDF82C80144623
:40410000FFF762FDC5F30A5725F07F43064623F470000FB140F480100190DCB102AA684642F8084DFFF7F7FD009C50B1019AC0F1200302FA03F122FA00F20C437461019231
:4041400000E07461019A002A0CBF01240224B261346107E001A8FFF7DEFD019901247161346120303FB1A7F233473F18C9F80070C0F135010AE006EB8403A0F23240C9F897
:4041800000001869FFF7A8FD6401211AC8F800103046BDE8FE83F8B5064615460C4621B91146BDE8F840FFF7B7BC1AB9FFF764FC2C4612E000F06CF8A8420ED2304629462A
:4041C000FFF7AAFC074638B121462A46FEF71EF830462146FFF750FC3C462046F8BD00000B4611B1B1F1004F00D1E0B1124AA3F58011914219D903F1FF4101F5E0019142C1
:4042000013D90E4A934212D903F1004191420ED90B4A934202D013F5801F0AD1D0F1010038BF002070470220704704207047032070470020704700BFFFFFDF7FFFFF0F00F0
:404240000000F07F38B5064C002305460846236000F0D8F8431C02D1216801B1296038BDFC81FF1F034613F8012B002AFBD1181A0138704738B501FB02F42146FFF74CFCEF
:40428000054618B100212246FDF7C9FF284638BD51F8040C002802DA04390B58C0180438704700004FF0FF3C06E000BF4FF0010C02E000BF4FF0010C4DF804CD4FEA410C86
:4042C0007FEA6C5C4FEA430C18BF7FEA6C5C1BD001B050EA410C0CBF52EA430C91EA030F02BF90EA020F0020704710F1000F91EA030F58BF994208BF90422CBFD8176FEA79
:40430000E37040F0010070474FEA410C7FEA6C5C02D150EA013C07D14FEA430C7FEA6C5CD6D152EA033CD3D05DF8040B704700BF8446104662468C461946634600E000BFD0
:4043400001B5FFF7B7FF002848BF10F1000F01BD4DF808EDFFF7F4FF0CBF012000205DF808FB00BF4DF808EDFFF7EAFF34BF012000205DF808FB00BF4DF808EDFFF7E0FF25
:4043800094BF012000205DF808FB00BF4DF808EDFFF7CEFF94BF012000205DF808FB00BF4DF808EDFFF7C4FF34BF012000205DF808FB00BF4FEA410212F5001215D211D50A
:4043C0006FF47873B3EB625212D94FEAC12343F0004343EA505311F0004F23FA02F018BF404270474FF00000704750EA013005D111F0004008BF6FF0004070474FF000008C
:40440000704700BF094A13686BB118186946884202D8106018467047054B0C221A604FF0FF3318467047034B1360EEE7E481FF1FFC81FF1F0082FF1F000000000000000042
:4044400054656D702053656E736F72204E2F43210000000054656D706572617475726520446567460000000025312E3466202000C8490040190000510040200030510040CD
:404480004000F0510040100000000140001000140140000800400140000A004C0140000200500140200000006052004070000048060000004300232D302B2000686C4C00D4
:4044C00065666745464700494E4600696E66004E414E006E616E0030313233343536373839414243444546003031323334353637383961626364656600496E66696E6974AF
:4045000079004E614E003000504F534958002E00000000000000F03F000000000000244000000000000059400000000000408F40000000000088C34000000000006AF840AC
:404540000000000080842E4100000000D01263410000000084D797410000000065CDCD41000000205FA00242000000E876483742000000A2941A6D42000040E59C30A24279
:404580000000901EC4BCD64200003426F56B0C430080E03779C3414300A0D8855734764300C84E676DC1AB43003D9160E458E143408CB5781DAF154450EFE2D6E41A4B444B
:4045C00092D54D06CFF08044F64AE1C7022DB544B49DD9794378EA4405000000190000007D000000000000000080E03779C34143176E05B5B5B89346F5F93FE9034F384D7E
:40460000321D30F94877825A3CBF737FDD4F1575F8B500BFF8BC08BC9E4670475100000035030000F8B500BFF8BC08BC9E4670472D000000484600000881FF1FB800000023
:4046400040000000000000000000000000366E01C05D0000180000000000E02E0000000000000000000000000000000000000000000000000000000000000000B44400001A
:4046800000000000000000000000000000000000000000000000000000000000000000000000000000000000000000000000000000000000000000000000000000000000FA
:4046C0001C81FF1F0E450000BB440000BB440000BB440000BB440000BB440000BB440000BB440000BB440000BB440000FFFFFFFFFFFFFFFFFFFFFFFFFFFF000000000000C3
:404700000000000000000000000000000000000000000000000000000000000000000000000000000000000000000000000000000000000000000000000000000000000079
:404740000000000000000000000000000000000000000000000000000000000000000000000000000000000000000000000000000000000000000000000000000000000039
:4047800000000000000000000000000000000000000000000000000000000000000000000000000000000000000000000000000000000000000000000000000000000000F9
:4047C00000000000000000000000000000000000000000000000000000000000000000000000000000000000000000000000000000000000000000000000000000000000B9
:020000040003F7
:0200000480007A
:4000000001150140011B01400242014001430140034401400145014001460140014701400148014002490140084C0140064D014001510140EA01EA013E10CE209610101038
:400040001420C40C9830983098309610AA10EA8010401320148078107C209830C40EDE0378407C8098C0AB20DC01DE0403C00000203000003000000030000000300030003B
:4000800000000000007F7F00000000000000000000000000000000000000000000000000000000000000000000000000000000000000000000000000000000000000000042
:4000C0000000000000000000000000000000000000000000000000000000000000000000000000000000000000000000000000000000000000000000000000000000000000
:4001000000000000000000000000000000000000000000000000000000000000000000000000000000000000000000000000000000000000000000000000000000000000BF
:40014000000000000000000000000000000000000000000000000000000000000000000000000000000000000000000000000000000000000000000000000000000000007F
:40018000000000000000000000000000000000000000000000000000000000000000000000000000000000000000000000000000000000000000000000000000000000003F
:0200000490006A
:0400000000004005B7
:0200000490105A
:04000000BC90ACAF55
:0200000490303A
:020000006C0A88
:0200000490402A
:4000000000000000000000000000000000000000000000000000000000000000000000000000000000000000000000000000000000000000000000000000000000000000C0
:400040000000000000000000000000000000000000000000000000000000000000000000000000000000000000000000000000000000000000000000000000000000000080
:400080000000000000000000000000000000000000000000000000000000000000000000000000000000000000000000000000000000000000000000000000000000000040
:4000C0000000000000000000000000000000000000000000000000000000000000000000000000000000000000000000000000000000000000000000000000000000000000
:0200000490501A
:0C00000000012E12306900012E2F9C73AD
:00000001FF