:400000000080002011000000B5010000B501000080B500AF47F2BC63C4F2000344F2FA62C4F2000212681A6000F0C8F810B5054C237833B9044810B10448AFF30080012186
:40004000217010BD8881FF1F000000004032000008B5064B1BB106480649AFF300800648016811B1054A02B1904708BD00000000403200008C81FF1F0881FF1F0000000095
:4000800080B588B000AF4FF00003FB7700F006FF00F090FF00F012FC01F038F84FF000004FF0000100F020FC43F24420C0F2000000F056FC00E000BFFB7F002B18D101F0A7
:4000C00025F80346002BF6D04FF00103FB774FF0010000F081FC4FF000004FF0000100F003FC43F24C20C0F2000000F039FCE2E700F086FF0346FB75FB7D03F00203002BCF
:4001000006D000F0A5FFB8614FF00003FB7702E000F0BAFFB86100F07FFF0246BB69D31ABB61BB69002B2FD0B86901F069FA034618464FF48041C4F21C6101F06DFB0346BE
:400140003B614FF001004FF0000100F0CDFB386901F04CF902460B463946084643F25421C0F2000101F044FC3B4643F25C20C0F2000043F25C21C0F200011A4601F020FC2A
:400180003B46184600F0ECFBFB7F002B93D14FF0010000F0ABFF00F0B9FF4FF000004FF0000100F0A1FB43F24420C0F2000000F0D7FB80E780B400AFFEE700BF80B586B08D
:4001C00000AF40F20103C0F200037B6143F28043C0F200033B6140F20103C0F200037B6143F28043C0F200033B613BE03B691B68FB603B695B68BB603B699B683B604FF090
:4002000000037B600FE0FB681A68BB681A60BB6803F10403BB60FB6803F10403FB607B6803F104037B607A683B689A42EBD13B69DB683B604FF000037B600BE0BB684FF0BB
:4002400000021A60BB6803F10403BB607B6803F104037B607A683B689A42EFD13B6903F110033B617B69002B0CBF00230123DBB27A6902F1FF327A61002BB7D101F068FB11
:40028000FFF7FEFEFEE700BF80B582B000AF4EF60C53CEF200034FF48062C0F2FA521A604EF61453CEF200034EF61452CEF20002126842F400721A604FF000037B6019E003
:4002C0007B68032B07D840F20003C0F200037A6853F8223003E040F2B513C0F2000348F20002C1F6FF72796842F821307B6803F101037B607B682F2BE2D947F2BC63C4F287
:4003000000031B78DAB248F20413C1F6FF731A704EF60853CEF2000348F20002C1F6FF721A6000F051F948F20013C1F6FF734FF000021A6007F10807BD4680BD80B582B03E
:4003400000AF7860396078684FF000013A6801F02EFB07F10807BD4680BD00BF80B584B000AFF860B9607A60F868B9687A6801F015FB07F11007BD4680BD00BF80B483B03F
:4003800000AF0346FB71FEE780B487B000AF786039604FF000033B614FF000037B612CE07B694FEA83037A68D3181B68BB60BB68FB73BB6823F0FF03BB6017E03B694FEA9B
:4003C00043033A68D3181B781A46BB68D3183A694FEA420239688A1852781A703B6903F101033B61FB7B03F1FF33FB73FB7B002BE4D17B6903F101037B617B69112BCFD95A
:4004000007F11C07BD4680BC704700BF80B582B000AF4FF48143C4F2000340F22B121A8044F28203C4F200034FF019021A7044F28403C4F2000345F6BF521A8044F286039A
:40044000C4F200034FF019021A704FF48643C4F200034FF002021A704FF040234FF008021A704FF48443C4F200034FF003021A7044F2A163C4F200034FF48472C4F600124F
:400480001278D2B21A7044F22223C4F200034FF008021A8044F22023C4F2000341F251221A804FF00003FB704FF019037B6019E0FB784FEA4303DAB244F22523C4F200038A
:4004C0001B78DBB203F00103DBB21343DBB203F00303FB704FF4F07000F04EF97B6803F1FF337B607B68002B02D0FB78032BDFD17B68002B03D14FF00300FFF73FFF44F294
:400500000403C4F200034FF480721A8044F20403C4F200034FF007021A7044F20603C4F200034FF000021A7044F20803C4F200034FF048021A7044F20403C4F200034FF05F
:4005400000021A7044F20103C4F200034FF002021A7044F2A233C4F2000344F2A232C4F200021278D2B242F00302D2B21A7007F10807BD4680BD00BF80B483B000AF40F208
:40058000CF13C4F600131B78FB7145F66E03C4F20003FA7902F00702D2B21A7045F66F03C4F20003FA794FEA1212D2B21A7045F67603C4F200034FF044021A7007F10C07E1
:4005C000BD4680BC704700BF80B582B000AF72B644F2E863C4F2000344F2E862C4F200021278D2B242F00402D2B21A704FF00003FB7119E0FA7913464FEA43039B184FEA64
:40060000430343F26022C0F200029B183B603B681A683B689B889BB210461946FFF78EFEFB7903F10103FB71FB79082BE2D94FF090404FF04801C4F60001FFF7A5FE45F2F0
:400640000303C4F2010345F20302C4F201021278D2B242F00202D2B21A7045F21303C4F2010345F21302C4F201021278D2B242F00202D2B21A7044F2A033C4F2000344F21D
:40068000A032C4F200021278D2B242F04002D2B21A7044F2C233C4F2000344F2C232C4F200021278D2B242F01002D2B21A7045F2F010C4F200004FF41071C4F600014FF04F
:4006C0000A02FFF74BFE45F22210C4F200004FF41371C4F600014FF00802FFF73FFE45F26010C4F200004FF41571C4F600014FF00A02FFF733FE40F65B43C4F201034FF072
:40070000C4021A7044F22233C4F2000344F22232C4F200021278D2B242F00802D2B21A704FF49043C4F200034FF001021A70FFF76DFE4FF49043C4F200034FF081021A7074
:400740004FF00403C4F208034FF001021A70FFF713FF44F2B030C4F2000044F2A031C4F200014FF00E02FFF7F9FD07F10807BD4680BD00BF000000000230800800F00580A4
:4007800000BF013800467FF4FCAF7047EFF3108072B6704780F31088704700BFAFF3008080B582B000AF78600BE048F21813C1F6FF731B681846FFF7DFFF7B68A3F5004358
:4007C0007B607B68B3F5004FEFD848F21013C1F6FF731B687A6802FB03F31846FFF7CCFF07F10807BD4680BD80B582B000AF0346FB80FA8848F21413C1F6FF731B7803FBC2
:4008000002F31846FFF7B8FF07F10807BD4680BD80B500AF4FF02800FFF7C2FF4FF0030000F052FA4FF00500FFF7BAFF4FF0030000F04AFA4FF00F00FFF7B2FF4FF0030051
:4008400000F042FA4FF00100FFF7AAFF4FF0020000F03AFA4FF00500FFF7A2FF4FF0060000F0BAF84FF00E0000F0B6F84FF02C0000F0B2F84FF0080000F0AEF84FF0010039
:4008800000F0AAF84FF00C0000F0A6F84FF0030000F0A2F84FF00500FFF782FF80BD00BF80B500AF4FF00C0000F096F848F2A413C1F6FF734FF001021A7080BD80B500AF96
:4008C00048F2A513C1F6FF731B78002B08D1FFF79FFF48F2A513C1F6FF734FF001021A70FFF7DEFF80BD00BF80B582B000AF02460B46FA71BB71FB79032B2BD801A252F824
:4009000023F000BF15090000250900003509000045090000BB79A3F18003DBB2184600F05BF818E0BB79A3F14003DBB2184600F053F810E0BB79A3F16C03DBB2184600F069
:400940004BF808E0BB79A3F12C03DBB2184600F043F800E000BF07F10807BD4680BD00BF80B584B000AF78604FF00103FB737B681B78BB730CE0BB7B184600F011F8FB7B66
:400980007A68D3181B78BB73FB7B03F10103FB73BB7B002BEFD107F11007BD4680BD00BF80B584B000AF0346FB7100F031F8FB794FEA1313FB73FB7B184600F02DF9FB7919
:4009C00003F00F03FB73FB7B184600F025F907F11007BD4680BD00BF80B584B000AF0346FB7100F015F8FB794FEA1313FB73FB7B184600F069F9FB7903F00F03FB73FB7B06
:400A0000184600F061F907F11007BD4680BD00BF80B582B000AF45F22013C4F2000345F22012C4F200021278D2B222F07F02D2B21A7045F22213C4F200031B78DBB223F09F
:400A40000F03FB7145F22213C4F20003FA7942F00F02D2B21A7045F22313C4F200031B78DBB223F00F03FB7145F22313C4F20003FA791A7045F22413C4F200031B78DBB2CE
:400A800023F00F03FB7145F22413C4F20003FA791A7045F22013C4F2000345F22012C4F200021278D2B222F02002D2B21A7045F22013C4F2000345F22012C4F2000212781F
:400AC000D2B242F04002D2B21A704FF00000FFF78BFE45F22013C4F2000345F22012C4F200021278D2B242F01002D2B21A704FF00100FFF779FE45F22113C4F200031B782A
:400B0000FB7145F22013C4F2000345F22012C4F200021278D2B222F01002D2B21A704FF00000FFF761FEFB7903F00803FB7145F22013C4F2000345F22012C4F20002127885
:400B4000D2B242F01002D2B21A704FF00100FFF74BFE45F22013C4F2000345F22012C4F200021278D2B222F01002D2B21A70FB79002BAAD145F22013C4F2000345F22012F6
:400B8000C4F200021278D2B222F04002D2B21A7045F22013C4F2000345F22012C4F200021278D2B222F07F02D2B21A7045F22213C4F2000345F22212C4F200021278D2B2C4
:400BC00022F00F02D2B21A7045F22313C4F200031B78DBB223F00F03FB7145F22313C4F20003FA7942F00F02D2B21A7045F22413C4F200031B78DBB223F00F03FB7145F2F4
:400C00002413C4F20003FA7942F00F02D2B21A7007F10807BD4680BD80B582B000AF0346FB71FFF7F5FE45F22013C4F2000345F22012C4F200021278D2B242F02002D2B2DB
:400C40001A7045F22013C4F2000345F22012C4F200021278D2B222F04002D2B21A7045F22013C4F2000345F22012C4F200021278D2B222F00F02D2B21A7045F22013C4F293
:400C8000000345F22012C4F200021278D1B2FA790A43D2B242F01002D2B21A704FF00100FFF7A2FD45F22013C4F2000345F22012C4F200021278D2B222F01002D2B21A7014
:400CC00007F10807BD4680BD80B582B000AF0346FB7145F22013C4F2000345F22012C4F200021278D2B222F06002D2B21A7045F22013C4F2000345F22012C4F20002127840
:400D0000D2B222F00F02D2B21A7045F22013C4F2000345F22012C4F200021278D1B2FA790A43D2B242F01002D2B21A704FF00100FFF75AFD45F22013C4F2000345F22012FE
:400D4000C4F200021278D2B222F01002D2B21A7007F10807BD4680BD80B500AF4FF49E43C4F200034FF49E42C4F200021278D2B202F00102D2B21A7044F60273C4F200031F
:400D800044F60272C4F200021278D2B222F00302D2B21A7044F60B73C4F2000344F60B72C4F200021278D2B222F03002D2B21A7044F60B73C4F2000344F60B72C4F200027A
:400DC0001278D2B242F03002D2B21A7044F60B73C4F2000344F60B72C4F200021278D2B222F00F02D2B21A7044F60B73C4F2000344F60B72C4F200021278D2B242F00F0223
:400E0000D2B21A7044F60173C4F2000344F60172C4F200021278D2B242F00102D2B21A704FF07C0000F060F84FF07C0000F06EF84FF0000000F048F880BD00BF80B400AF25
:400E400044F2A333C4F2000344F2A332C4F200021278D2B242F00102D2B21A7044F2B333C4F2000344F2B332C4F200021278D2B242F00102D2B21A704FF49E43C4F20003C3
:400E80004FF49E42C4F200021278D2B242F00102D2B21A70BD4680BC704700BF80B500AF48F2A613C1F6FF731B78002B08D1FFF753FF48F2A613C1F6FF734FF001021A708A
:400EC000FFF7BCFF80BD00BF80B483B000AF0346FB7144F60373C4F20003FA791A7007F10C07BD4680BC704780B485B000AF0346FB71FB79FB8144F60473C4F20003FA8969
:400F00001A8007F11407BD4680BC704780B483B000AF0346FB7144F60673C4F20003FA7992B21A8007F10C07BD4680BC704700BF80B582B000AF4FF0FF3000F079F84FF0A2
:400F4000FF3000F091F8FFF721FC0346FB7146F29C43C4F2000346F29C42C4F200021278D2B242F01002D2B21A70FB791846FFF711FC00F099F800F0ABF84FF0000000F0EB
:400F80002FF807F10807BD4680BD00BF80B400AF46F27C43C4F2000346F27C42C4F200021278D2B262F07F02D2B21A70BD4680BC704700BF80B500AF48F2A713C1F6FF731E
:400FC0001B78002B08D1FFF7B3FF48F2A713C1F6FF734FF001021A70FFF7D8FF80BD00BF80B483B000AF0346FB7146F28C43C4F20003FA791A7007F10C07BD4680BC704777
:4010000080B400AF46F26C43C4F200031B78DBB21846BD4680BC704780B400AF46F22C43C4F200031B681846BD4680BC704700BF80B483B000AF786046F22C43C4F2000392
:401040007A681A6007F10C07BD4680BC704700BF80B400AF46F24C43C4F200031B681846BD4680BC704700BF80B483B000AF786046F20C43C4F200037A681A6007F10C07C6
:40108000BD4680BC704700BF80B400AF46F20C43C4F200031B6846F24C43C4F200031B681846BD4680BC704780B400AF46F27C43C4F2000346F27C42C4F200021278D2B22F
:4010C00042F01002D2B21A70BD4680BC704700BF80B500AF01E0FFF7BBFFFFF791FF034603F00803002BF6D180BD00BF80B483B000AF0346FB7146F27E43C4F20003FA79C9
:401100001A7007F10C07BD4680BC704780B400AF46F26F43C4F200031B78DBB21846BD4680BC704781F0004102E000BF83F0004330B54FEA41044FEA430594EA050F08BFE4
:4011400090EA020F1FBF54EA000C55EA020C7FEA645C7FEA655C00F0E2804FEA5454D4EB5555B8BF6D420CDD2C4480EA020281EA030382EA000083EA010180EA020281EA6E
:401180000303362D88BF30BD11F0004F4FEA01314FF4801C4CEA113102D0404261EB410113F0004F4FEA03334CEA133302D0524263EB430394EA050F00F0A780A4F1010424
:4011C000D5F1200E0DDB02FA0EFC22FA05F2801841F1000103FA0EF2801843FA05F359410EE0A5F120050EF1200E012A03FA0EFC28BF4CF0020C43FA05F3C01851EBE371F5
:4012000001F0004507D54FF0000EDCF1000C7EEB00006EEB0101B1F5801F1BD3B1F5001F0CD349085FEA30004FEA3C0C04F101044FEA445212F5800F80F09A80BCF1004FAB
:4012400008BF5FEA500C50F1000041EB045141EA050130BD5FEA4C0C404141EB010111F4801FA4F10104E9D191F0000F04BF01460020B1FA81F308BF2033A3F10B03B3F1A1
:4012800020020CDA0C3208DD02F1140CC2F10C0201FA0CF021FA02F10CE002F11402D8BFC2F1200C01FA02F120FA0CFCDCBF41EA0C019040E41AA2BF01EB0451294330BD13
:4012C0006FEA04041F3C1CDA0C340EDC04F11404C4F1200220FA04F001FA02F340EA030021FA04F345EA030130BDC4F10C04C4F1200220FA02F001FA04F340EA030029469B
:4013000030BD21FA04F0294630BD94F0000F83F4801306BF81F480110134013D4EE77FEA645C18BF7FEA655C29D094EA050F08BF90EA020F05D054EA000C04BF19461046A7
:4013400030BD91EA030F1EBF0021002030BD5FEA545C05D14000494128BF41F0004130BD14F580043CBF01F5801130BD01F0004545F0FE4141F470014FF0000030BD7FEA28
:40138000645C1ABF194610467FEA655C1CBF0B46024650EA013406BF52EA033591EA030F41F4002130BD00BF90F0000F04BF0021704730B54FF4806404F132044FF0000565
:4013C0004FF0000150E700BF90F0000F04BF0021704730B54FF4806404F1320410F0004548BF40424FF000013EE700BF42004FEAE2014FEA31014FEA02701FBF12F07F434E
:4014000093F07F4F81F06051704792F0000F14BF93F07F4F704730B54FF4607401F0004521F0004120E700BF50EA010208BF704730B54FF000050AE050EA010208BF704743
:4014400030B511F0004502D5404261EB41014FF4806404F132045FEA915C3FF4DCAE4FF003025FEADC0C18BF03325FEADC0C18BF033202EBDC02C2F1200300FA03FC20FAA3
:4014800002F001FA03FE40EA0E0021FA02F11444C1E600BF80F0004002E000BF81F0004142001FBF5FEA410392EA030F7FEA226C7FEA236C6AD04FEA1262D2EB1363C1BF73
:4014C000D218414048404140B8BF5B42192B88BF704710F0004F40F4000020F07F4018BF404211F0004F41F4000121F07F4118BF494292EA030F3FD0A2F1010241FA03FC51
:4015000010EB0C00C3F1200301FA03F100F0004302D5494260EB4000B0F5000F13D3B0F1807F06D340084FEA310102F10102FE2A51D2B1F1004F40EBC25008BF20F00100B1
:4015400040EA03007047490040EB000010F4000FA2F10102EDD1B0FA80FCACF1080CB2EB0C0200FA0CF0AABF00EBC25052421843BCBFD0401843704792F0000F81F400013B
:4015800006BF80F400000132013BB5E74FEA41037FEA226C18BF7FEA236C21D092EA030F04D092F0000F08BF0846704790EA010F1CBF0020704712F07F4F04D1400028BFEC
:4015C00040F00040704712F100723CBF00F50000704700F0004343F0FE4040F4000070477FEA226216BF08467FEA23630146420206BF5FEA412390EA010F40F48000704728
:401600004FF0000304E000BF10F0004348BF40425FEA000C08BF704743F0964301464FF000001CE050EA010208BF70474FF000030AE000BF50EA010208BF704711F00043F3
:4016400002D5404261EB41015FEA010C02BF84460146002043F0B64308BFA3F18053A3F50003BCFA8CF2083AA3EBC25310DB01FA02FC634400FA02FCC2F12002BCF1004FD9
:4016800020FA02F243EB020008BF20F00100704702F1200201FA02FCC2F1200250EA4C0021FA02F243EB020008BF20EADC7070474FF0FF0C1CEAD0521EBF1CEAD15392EAEC
:4016C0000C0F93EA0C0F6FD01A4480EA010C400218BF5FEA41211ED04FF0006343EA501043EA5111A0FB01310CF00040B1F5000F3EBF490041EAD3715B0040EA010062F167
:401700007F02FD2A1DD8B3F1004F40EBC25008BF20F00100704790F0000F0CF0004C08BF49024CEA502040EA51207F3AC2BFD2F1FF0340EAC250704740F400004FF00003BB
:40174000013A5DDC12F1190FDCBF00F000407047C2F10002410021FA02F1C2F1200200FA02FC5FEA310040F1000053EA4C0308BF20EADC70704792F0000F00F0004C02BFDE
:40178000400010F4000F013AF9D040EA0C0093F0000F01F0004C02BF490011F4000F013BF9D041EA0C018FE70CEAD15392EA0C0F18BF93EA0C0F0AD030F0004C18BF31F09E
:4017C000004CD8D180EA010000F00040704790F0000F17BF90F0004F084691F0000F91F0004F14D092EA0C0F01D142020FD193EA0C0F03D14B0218BF084608D180EA01002D
:4018000000F0004040F0FE4040F40000704740F0FE4040F4400070474FF0FF0C1CEAD0521EBF1CEAD15392EA0C0F93EA0C0F69D0A2EB030280EA010C49024FEA402037D0B1
:401840004FF0805343EA111143EA10130CF000408B4238BF5B0042F17D024FF4000C8B4224BF5B1A40EA0C00B3EB510F24BFA3EB510340EA5C00B3EB910F24BFA3EB910374
:4018800040EA9C00B3EBD10F24BFA3EBD10340EADC001B0118BF5FEA1C1CE0D1FD2A3FF650AF8B4240EBC25008BF20F0010070470CF0004C4CEA50207F32C2BFD2F1FF039B
:4018C00040EAC250704740F400004FF00003013A37E792F0000F00F0004C02BF400010F4000F013AF9D040EA0C0093F0000F01F0004C02BF490011F4000F013BF9D041EAEE
:401900000C0195E70CEAD15392EA0C0F08D142027FF47DAF93EA0C0F7FF470AF084676E793EA0C0F04D14B023FF44CAF08466EE730F0004C18BF31F0004CCAD130F00042A4
:401940007FF45CAF31F000437FF43CAF5FE700BF38B50E4D0E4B0024E81A8510AC4205D00B4951F8242090470134F7E701F076FD0849094A541AA5100024AC4205D0054BD6
:4019800053F8240080470134F7E738BD6834000068340000683400007034000010B50023934203D0CC5CC4540133F9E710BD82180346934202D003F8011BFAE77047000087
:4019C0000FB40A4B13B518681C4618B182690AB900F02CFE206805AB4168049A019300F011FBBDE81C4004B0704700BF8081FF1F0EB400B59CB0029006906FF000401DABE9
:401A0000049007904FF402710A4853F8042BADF814104FF6FF71ADF81610006802A9019300F062F8029B00221A701CB05DF804EB03B070478081FF1F2DE9F8439368064645
:401A400089461446002B41D1928912F4906F3DD0616903254D43236927680220FF1A95FBF0F5791C02F48062A94211B2A8BF3D18304679B1294600F0C9FE8046A0B13A4652
:401A80002169FFF78BFFA38923F4906040F08002A28113E019462A4600F010FF804668B93046216900F02CFEA0890C2340F0400233604FF0FF30A281BDE8F88308EB070149
:401AC0006561ED1BC4F810802160A560A368002B06DD206800F8019BA2682060511EA1600020BDE8F88300002DE9F0479CB003938B890D4603F0800114460AB2064662B158
:401B00002B6953B9402100F081FE2860286110B90C213160D3E04020686100272021302209978DF829108DF82A2023461F4613F8010B28B9B7EB040A16D04FF000090DE049
:401B40002528F3D1F6E7304614F809102A46FFF773FF013000F0AC8009F10109D145F2DB099901EB0A0209923B78002B00F0A08000244FF0FF3004940794059006948DF834
:401B800053401A9407F101094F4F4C4638462178052200F085FE09F10109049B30B1C41B012707FA04F73B430493EDE7D90602D520218DF853101A0702D52B228DF8532075
:401BC00020782A2802D0079B27460EE0039A1768101D002F039001DB079704E0794243F002030791049301340AE03C46217801373039092903D80A2404FB0313F5E7079300
:401C000022782E2A19D160782A2809D1039802340368021D002B0392B8BF4FF0FF330BE0671C00233C46217801373039092903D80A2404FB0313F5E70593244F2178384626
:401C4000032200F02DFE38B1C71B402101FA07F1049B01340B43049314F8011B1C4806228DF8281000F01CFE88B11A4A32B9039FFB1D23F007000830039014E003A9009179
:401C8000304604A92A46144BAFF3008007E003A8009004A930462A460F4B00F08FF8B0F1FF3F804604D0099A02EB080109913CE7AB8903F0400002B20AB9099801E04FF01C
:401CC000FF301CB0BDE8F087A0320000A6320000AA32000000000000391A00002DE9F047154699468A680B6980469A42A8BF13462B6091F843000C46DDF820A008B1591C39
:401D000029602668B20602D52A68931C2B60206810F0060618D094F8437020683E1C18BF012683061AD5A119302281F8432094F84530023681F8443010E04046617E4A462B
:401D4000D047013006D00136E1682A688B1A9E42F3DBE0E74FF0FF30BDE8F0870027B74209DAE119404691F843104A46D0470130F0D00137F3E721682868E66801F0060226
:401D8000042A08BFC0EB06052369A6680CBF25EAE57500259E42C4BFC3EB0603ED180026AE4207DA4046A17E4A46D0470130D1D00136F5E70020BDE8F08700002DE9F043B9
:401DC0000C46257E85B06E2D9046074699460C9904F1430200F0AA8012D8632D24D009D8002D00F0BB80582D40F0CB8084F84550824D57E0642D20D0692D40F0C2801CE0E0
:401E0000732D00F0AF8009D86F2D2FD0702D40F0B880256845F0200626603FE0752D25D0782D40F0AE8039E0086804F14206021D0A60016884F84210A7E020680B6810F033
:401E4000800F02D01E1D0E6008E003F1040510F0400F0D6002D0B3F9001000E0196800293CDA2D20494284F8430037E025680E6815F0800F02D0331D0B6007E006F10400D5
:401E800015F0400F086001D0318800E03168267E5A4D6F2E14BF0A2308231BE07820584D84F8450020680B6810F0800F03F104060E6003D1410601D5198800E01968C607A1
:401EC00044BF40F02000206019B9206820F0200323601023002084F8430001E0474D0A236668002EA66003DB206820F00400206001B96EB104F14200B1FBF3FE03FB1E1175
:401F0000695C064600F8011971460029F4D100E01646921B082B22613CD12368D80739D56068904236DC511C616033E026680B6816F0800F05D01E1D0E6019686069086002
:401F40000CE003F1040016F0400F086003D018686369038002E061691E68316000232361164617E00E68321D0A603668304600F0D8FD63682061984288BF2361206960601F
:401F800005E004F1420684F8425001232361002184F84310CDF800903846214603AA4346FFF79CFE013002D14FF0FF3022E000252269954207DA3846715D4246C847013069
:401FC000F2D00135F4E72168890705D4E06803998842B8BF08460DE00025E068039BC21A9542F3DA3846617E4246C8470130DBD00135F2E705B0BDE8F08300BFB1320000E3
:40200000C23200002DE9F041ADF5247D07460C469046019300F072FB9649974A002303A8469347934890A291A39298F80050002D00F04781914E33685819417801F00802D7
:40204000D3B2FBB16668002E12DD8C4A206811680378CE18757805F00803DAB272B1479965684E1C6B1E0130479663602060E9E738462146A39DA8470028E6D008F10106BD
:40208000B046D2E7252D08F101065DD14593439398F801502A2D03D11026439608F1020630783346A0F130010136092906D8459D0A2101FB050030384590F1E7682804D175
:4020C000439A42F00103439333461D786C2D04D1439E013346F00200439019784C2904D1439A013342F0040543951E4616F8015B692D56D016D8642D4ED00FD85B2D56D0A0
:4021000004D8002D7BD0252D7CD11DE0632D79D1439840F040014391002052E0672D71D805204EE0702D2DD006D86E2D4BD06F2D68D10821449138E0752D2DD0782D25D0E1
:40214000732D5FD102203CE06368002B0DDD21680878A84240F0B58065684A1C47996B1E481C6360226047908AE738462146A39A90470028EBD000F0C2FA4698002840F0CE
:4021800098809BE0439941F020034393439840F400724392102200E00A226E2D449204DC01E00021449103200BE0042009E0314603A800F041FC439A064642F040034393EC
:4021C0000120499022E0439DE9063FF559AFEA0706D50198479D021D019201680D804FE7019B15F0020F03F10402019203D01D68479B2B6044E747981968086040E700F0A3
:402200007EFA5BE003230A20499344906368002B03DD4398430611D51BE038462146A39A90470028F5D0A6E747986168421C481E00284792606016DD5A1C22600F492368A2
:4022400008681A788218517801F00800C2B2002AEAD1499B022B13DC384643A9224601AB00F038F81FE038462146A39B98470028E4D080E7B52D0000192900008481FF1F7E
:40228000042B06DC384643A9224601AB00F088F809E00F4900293FF4F3AE384643A9224601ABAFF3008001280BD002287FF4E8AE61E7A38903F0400211B229B14FF0FF3056
:4022C00002E000F01CFA46980DF5247DBDE8F081000000002DE9F04115468A6880460C4632B98869002814BF4FF0FF310121A1602668F20603D41F683A1D1A603F680026C8
:40230000A369DBB923680136DB0603D42868027807F8012B696828684B1EA168421C481E6B602A60A06028B3002BE9DCD4F880314046294698470028E2D01BE0012B07D16D
:40234000296862690878115C0029DBD116B311E0022B01D066B10DE028681049027808688218517801F00800C2B2002ACAD0F1E7012B0FD0226812F0100105D1E068A26973
:40238000431CE36002B13970216900208E192661BDE8F0811846BDE8F08100BF8481FF1F2DE9F04F1F46734B0C4687B006AE8146154693E80700A36806E90700A0696E4AC0
:4023C0006E495E1E032808BF1146B6F5AE7F019107D96FF4AE7040F25D1203EB000AA26001E04FF0000A216804F11C0641F450632360B3464FF00008296803A850F82800DA
:402400000978022200F04CFA002832D0B8F1010F0BD163682BB92168082241F4007062602060236823F4A0600CE0B8F1020F0AD1236803F4C062B2F5007F1AD110216160EF
:4024400043F480702060A1684A1EA26089B1286810F8013B0BF8013B696828604A1E002A6A6006DCD4F88031484629469847002841D108F10108B8F1030FBDD1606808B9F7
:402480000A21616062683E4B6069991A00F0D4FA4FF00008A368002B2FD02A6860691178405C50B330290CD12168090509D508F10108BAF1000F0BD0591C0AF1FF3AA160B8
:4024C00006E0236823F41060206012780BF8012B6B68581E0028686003DD29684B1C2B6005E0D4F8802148462946904728B9A068421EA260CEE74FF000082168C8050DD56A
:40250000B34509D91BF8011CD4F87C3148462A4698470BF1FF3AD346B34526D0206810F0100219D18BF80020636848463146019DA84722683B6812F0200F06D1D10704D595
:40254000191D39601A68108003E0191D39601B681860E068421CE2602169C6EB0B06B04401EB08032361002000E0012007B0BDE8F08F00BFD4320000352B0000412C00009C
:40258000F0320000F8B5074600F14C0494B1A5686668013E0CD4B5F90C303BB1B5F90E00431C03D03846294600F09CFC6835F0E72468EBE7F8BD0000002310B5044603602A
:4025C0004360836081814366C2810361436183611946082200F15C00FFF7E9F904480549054A064B24626062A162E262236310BD992A0000BB2A0000F72A00001B2B0000A2
:4026000070B568254D430E4605F10C0100F0FEF8044640B100F10C00002184E84200A0602A46FFF7C4F9204670BD000070B585690446002D22D1124B012683628661C56468
:402640000565456500F01EF86060204600F01AF8A060204600F016F80421E0602A466068FFF7AAFFA06809213246FFF7A5FFE06812210222BDE87040FFF79EBF70BD00BF01
:4026800085250000F8B51C4B07461E68B06910B93046FFF7CBFF4C36B4687168013904D4B4F90C5085B16834F8E732680AB13668F2E738460421FFF7A3FF30600028F6D1A8
:4026C0000C243C60044615E04FF6FF730120A081E38165662560A560656025616561A56104F15C0029460822FFF761F96563A563A564E5642046F8BD9C3200007047704753
:4027000030B500293CD051F8042C0B1F1D49002AB8BF9B180A6812B95A600B6030BD93420ED219685818904203D15A5889184268196014485A60036030BD994203D80A46A5
:4027400051680029F9D1146815199D420AD118682318D0188842136012D108681B1813604B680CE002D90C23036030BD18681C188C4203D10C6849680019186059605360FF
:4027800030BD00BFA881FF1F2DE9F04104468846FFF7B4FF4C3400268CB1A5686768013F0BD4B5F90C3033B1B5F90E00431C02D02846C04706436835F1E72468ECE7FFF7FD
:4027C0009EFF3046BDE8F0812DE9F84380468946FFF794FF08F14C04002694B1A5686768013F0CD4B5F90C303BB1B5F90E00431C03D040462946C84706436835F0E7246880
:40280000EBE7FFF77CFF3046BDE8F88370B5CD1C25F0030508350C2D38BF0C25002D06462DDB8D422BD31D4B1B681C469CB12268501B0DD40B2802D92060241817E0A34292
:4028400003D16068154A10601DE0616859601AE023466468EAE72946304600F0DDF8431C01460CD0CC1C24F003048C4201D1256009E03046611A00F0CFF80130F7D10C2064
:402880003060002070BD04F10B01231D21F00700C31A02D05A42E25070BD70BDA881FF1F10B5C9B2034682189342184604D0047801338C42F8D100E0002010BDF8B506468D
:4028C00015460C4621B91146BDE8F840FFF79EBF1AB9FFF715FF2C4612E000F01FFCA8420ED230462946FFF791FF074638B121462A46FFF753F830462146FFF701FF3C46A6
:402900002046F8BD838903F00901092901D100F08DBB00207047000070B50C46054618B183690BB9FFF782FE3648844201D16C6808E035498C4201D1AC6803E0334A944275
:4029400008BFEC6800236360A38903F0200001B2002952D103F0040210B2D8B903F0100001B211B909222A6044E003F008031AB25AB12846214600F0B5FA00283DD1A689C5
:40298000A06026F00801A181A061A08940F00403A38110E0616B71B104F14403994202D02846FFF7ADFE216C00206063616011B1E26B226070BD22691AB92846214600F069
:4029C00059FBA689B30704D0114908681149FFF7DBFE2269666A22602846216A6369B047002860600CDCA38902D143F0200103E00020606043F04001A1814FF0FF3070BD23
:402A0000002070BDFC3300001C3400003C3400009C3200000529000038B5064C002305460846236000F0E8FB431C02D1216801B1296038BDB081FF1FF0B50B785E2B02D050
:402A40000131002402E04B7801240231002284540132B2F5807FFAD10BB94A1E1AE0C4F10107FEB2C6540A46114611F8014B2D2C04D05D2C0DD06CB12346F2E755785D2D73
:402A8000FAD09D42F8DB02320133AB42C654FBDBEAE70A461046F0BD10B50C46B1F90E1000F046FB002803DB626D1318636510BDA38923F48051A18110BD2DE9F0411D46DF
:402AC0008B890C4603F4807116460AB207462AB1B4F90E100022022300F0BAFAA089B4F90E1020F48053A381384632462B46BDE8F04100F0D5B910B50C46B1F90E1000F009
:402B0000A7FA431CA38903D123F48052A28110BD43F48051A181606510BDB1F90E1000F0D1B9034613F8012B002AFBD1181A0138704700002DE9F74F01904048D0F8009059
:402B40000846044614F8015B09EB05067778204607F00806F7B2002FF3D12D2D03D114F8015B012704E02B2D04BF244614F8015B002B5CD0102B07D1302D05D12578782DF2
:402B80004ED1657810230234002F0CBF6FF000404FF00040B0FBF3FA002603FB1A08304609EB050C9CF801C00CF0040B5FFA8BFBBBF1000F01D0303D0BE01CF0030C1BD016
:402BC000BCF1010F14BF4FF0570C4FF0370CCCEB05059D4210DAB6F1FF3F0AD0504506D801D1454503DC03FB0050012601E04FF0FF3614F8015BD3E7731C0AD1002F01990B
:402C00000CBF6FF000404FF0004022230B6022B911E007B1404272B106B1611E11600AE0582DAED03025002BAED10823ACE7302DA4D00A23A8E7BDE8FE8F00BF8481FF1FE0
:402C40002DE9F74F01903C48D0F800900846044614F8015B09EB05067778204607F00806F7B2002FF3D12D2D03D114F8015B012704E02B2D04BF244614F8015B002B55D0B7
:402C8000102B07D1302D05D12578782D47D16578102302344FF0FF3ABAFBF3FA03FB0AF000266FEA0008304609EB050C9CF801C00CF0040B5FFA8BFBBBF1000F01D0303DE2
:402CC0000BE01CF0030C1BD0BCF1010F14BF4FF0570C4FF0370CCCEB05059D4210DAB6F1FF3F0AD0504506D801D1454503DC03FB0050012601E04FF0FF3614F8015BD3E74C
:402D0000731C05D1019922230B60304622B911E007B1404272B106B1611E11600AE0582DB5D03025002BB5D10823B3E7302DABD00A23AFE7BDE8FE8F8481FF1F2DE9F041A8
:402D40000C46496B04F1440399421CD14FF48061FFF75CFD18B94FF0FF30BDE8F08194F846204FF480616063A16380F8FF2394F8453080F8FE3394F8441080F8FD1300F206
:402D8000FD30206012E0A66B77003A46FFF796FD05460028DFD000EB0608404629463246FEF7FCFDC4F800806563A7630020BDE8F08100004B1C70B505460E46144602D1D1
:402DC0004FF0FF3664E018B183690BB9FFF72EFC3048844201D16C6808E02F498C4201D1AC6803E02D4A944208BFEC68A38903F0040123F020000AB2A081C2B903F010008D
:402E000001B20029DCD003F008031AB25AB12846214600F067F80028D2D1A189A06021F00803A381A061A08940F00402A281616BF6B281B16268A16B8A4205DA2068431E49
:402E4000236000F8016C11E028462146FFF776FF0028F3D0B4E7206958B12368834208D913F8012CB24204D1013B23606268501C0DE0616820682164214604F1440303226F
:402E800001F8466FE0636363A263216001206060304670BDFC3300001C3400003C34000038B5074C054600202060084611461A4600F0BCF9431C02D1236803B12B6038BD9C
:402EC000B081FF1F38B5064C002305460846236000F062F9431C02D1216801B1296038BDB081FF1F0B692DE9F04105460C46002B3BD018B1816909B9FFF798FB484884429E
:402F000001D16C6808E0474A944201D1AC6803E0454B9C4208BFEC68A18931B301F0080002B2002A61D1626841F40060002AA08102DC236C002B18DDE66AB6B101F480517F
:402F400000200AB22F6828600AB1626D10E001232846216AB0470246013009D12B683BB11D2B01D0162B1BD12F600020BDE8F081A68906F0040001B229B16368666BD21AAD
:402F80000EB1206C121A216A0023E66A2846B047411C0DD12A685AB11D2A09D0162A07D0A1894FF0FF3041F04003A381BDE8F081A38900222169626003F48052216011B23B
:402FC00021B1421C01D12B6803B96065616B2F600029CAD004F14400814202D02846FFF78FFB00206063BDE8F0812669002EBCD0890723680CBF61690021C6EB030826608C
:40300000A160B8F1000FB0DDA76A2846216A32464346B8470028C3DD3618C0EB0808F0E7FC3300001C3400003C340000014620B9044805490068FFF7C7BB044B1868FFF74A
:4030400051BF00BF9C320000E52E00008081FF1F38B5074C054600202060084611461A4600F0B6F8431C02D1236803B12B6038BDB081FF1FF0B58B890C4603F002010AB2B6
:4030800091B0054652BBB4F90E1000290ADAA189002701F0800210B2B84214BF40264FF480660EE001AA00F055F80028EFDB029F07F47040B0F50056734253EB06074FF46B
:4030C000806628463146FFF7A1FB70B9A18901F4007210B2E8B941F00203A38104F14701012221602161626113E0A1890A4B41F08002AB62A2812060206166614FB128464B
:40310000B4F90E1000F038F818B1A08940F00103A38111B0F0BD00BF8525000051F8040C002802DA04390B58C01804387047000038B5074C054600202060084611461A468B
:4031400000F050F8431C02D1236803B12B6038BDB081FF1F38B5074C0023054608461146236000F023F8431C02D1216801B1296038BD00BFB081FF1F38B5064C0023054650
:403180000846236000F01CF8431C02D1216801B1296038BDB081FF1F48F2B013C1F6FF7358221A604FF0FF30704700BF48F2B013C1F6FF7358221A604FF0FF30704700BF04
:4031C00048F2B013C1F6FF7358221A600020704748F2B013C1F6FF7358221A604FF0FF30704700BF48F2B013C1F6FF7358221A604FF0FF30704700BF094A13686BB11818C8
:403200006946884202D8106018467047054B0C221A604FF0FF3318467047034B1360EEE7AC81FF1FB081FF1FB881FF1F48F2B013C1F6FF7358221A604FF0FF30704700BFB3
:403240000000000053746F7070656400537461727465640025312E346600000000000000004F00400C00005100402000305100403000C05100401000000001400010001477
:403280000140000800400140000A004C014000020050014020000000430000001C81FF1F232D302B2000686C4C0065666745464700303132333435363738394142434445B1
:4032C0004600303132333435363738396162636465660000F2320000F5320000F8320000412D46612D66383930313233343536375D002B2D00303000785800002020202097
:403300002020202020282828282820202020202020202020202020202020202088101010101010101010101010101010040404040404040404041010101010101041414112
:403340004141410101010101010101010101010101010101010101101010101010424242424242020202020202020202020202020202020202020210101010200000000002
:40338000000000000000000000000000000000000000000000000000000000000000000000000000000000000000000000000000000000000000000000000000000000000D
:4033C00000000000000000000000000000000000000000000000000000000000000000000000000000000000000000000000000000000000000000000000000000000000CD
:40340000000000000000000000000000000000000000000000000000000000000000000000000000000000000000000000000000000000000000000000000000000000008C
:4034400000000000000000000000000000000000000000000000000000000000F8B500BFF8BC08BC9E4670475100000089020000F8B500BFF8BC08BC9E4670472D00000045
:40348000903400000881FF1F80000000300000000000000000366E01C05D0000180000000000E02E00000000FC3300001C3400003C3400000000000000000000000000001A
:4034C0000000000098320000000000000000000000000000000000000000000000000000000000000000000000000000000000000000000000000000000000000000000002
:4035000000000000000000001C81FF1FFB320000000000000000000000000000000000000000000000000000000000000000000000000000000000000000000000000000A3
:40354000000000000000000000000000000000000000000000000000000000000000000000000000000000000000000000000000000000000000000000000000000000004B
:40358000000000000000000000000000000000000000000000000000000000000000000000000000000000000000000000000000000000000000000000000000000000000B
:4035C00000000000000000000000000000000000000000000000000000000000000000000000000000000000000000000000000000000000000000000000000000000000CB
:40360000000000000000000000000000000000000000000000000000000000000000000000000000000000000000000000000000000000000000000000000000000000008A
:020000040003F7
:0200000480007A
:40000000024F00400352004001640040010501400107014002090140040B0140410C0140300D0140460E01401C0F0140074201400143014004440140034501400346014011
:40004000044701400450014001100A4B300834027C208C0FEA02EC40B508EC409D08AF20B520B64002050403050109010E040F03100111031E051F0223032E0530023103AA
:4000800032013404360139083E543F0440354104420149FF4AFF4BFF4F01501852905403580459045A045B045F056040624064406540668068806A806C806E80C034C1050E
:4000C000C201C9FFCAFFCBFFCD83CE03CF01D018DA04DF01E040E240E440E540E680E880EA80EC80EE80044005090C800D0217401DA21E2027602D0237413C903D084040AE
:4001000041884589470148024F805E605F056040638074C075037D029010930594409B019D019F40A002A10CA340A480A580B410B504C0B0C290C480CA80CC90CE70D0DB45
:40014000D218D6F0DE8040344105420149FF4AFF4BFF4D834E034F0150185201530156105A045B045F016040624064406540668068806A806C806E80820688018A028C064A
:40018000930196029A049E069F01A301B001B201B301B406BE01BF04C035C104C201C5ECC602C807C9FFCAFFCBFFCD83CE03CF01D018D401D804D904DA04DB04DD90DF01A8
:4001C000E040E240E440E540E680E880EA80EC80EE800420050107010C800E141C101E5425082C8035013740404041884588470148024F8557405E4068026B01C0D0C2E0A5
:40020000CA80CC90D0DBD218D61011085B019B01AF01C410D640EA40B50404045480C004D402A480B404EE020502A480C004B480B502EA02EC02000101010E010F010000F7
:40024000200000200000000000000000007F7F00000000000200000A0800080000000000000000000000000000000000000000000000000000000000000000000000000024
:40028000000000000000000000000000000000000000000000000000000000000000000000000000000000000000000000000000000000000000000000000000000000003E
:4002C00000000000000000000000000000000000000000000000000000000000000000000000000000000000000000000000000000000000000000000000000000000000FE
:4003000000000000000000000000000000000000000000000000000000000000000000000000000000000000000000000000000000000000000000000000000000000000BD
:40034000000000000000000000000000000000000000000000000000000000000000000000000000000000000000000000000000000000000000000000000000000000007D
:0200000490006A
:0400000000004005B7
:0200000490105A
:04000000BC90ACAF55
:0200000490303A
:02000000BEE759
:0200000490402A
:4000000000000000000000000000000000000000000000000000000000000000000000000000000000000000000000000000000000000000000000000000000000000000C0
:400040000000000000000000000000000000000000000000000000000000000000000000000000000000000000000000000000000000000000000000000000000000000080
:400080000000000000000000000000000000000000000000000000000000000000000000000000000000000000000000000000000000000000000000000000000000000040
:4000C0000000000000000000000000000000000000000000000000000000000000000000000000000000000000000000000000000000000000000000000000000000000000
:0200000490501A
:0C00000000012E12306900012E27EF5085
:00000001FF