:400000000080002011000000790300007903000080B500AF47F2BC63C4F2000344F2FA62C4F2000212681A6000F0AAF910B5054C237833B9044810B10448AFF30080012117
:40004000217010BDA881FF1F00000000D45B000008B5064B1BB106480649AFF300800648016811B1054A02B1904708BD00000000D45B0000AC81FF1F0881FF1F00000000DB
:4000800080B582B000AF02460B46FA71BB714FF0010003F04DFA4FF000004FF0000103F0CFF945F6D830C0F2000003F005FAFB799BB2184603F0FCFB4FF001004FF00001D6
:4000C00003F0BEF945F6E030C0F2000003F0F4F9BB799BB2184603F0EBFB07F10807BD4680BD00BF80B582B000AF0346FB7100BF01F0E4F80346002BFAD0FB79184601F063
:400100008BF807F10807BD4680BD00BF80B596B000AF4FF0000387F8573045F6F033C0F200031B687B604FF0000387F856304FF0000387F855304FF00003FB7062B64FF0C2
:4001400000004FF0000100F031FC03F063F903F031FCFB78184603F0AFFC97F85530184603F0BAFCFA7897F8553010461946FFF787FF03F0EBFD04F09BF804F089F903F0A7
:4001800075FE00E000BF97F85730002B0CD100F02BFE0346002B00F0AF8001F029F84FF0010387F85730A7E001F06EF80346002B00F0A28007F10803184601F099F8034678
:4001C000A7F84A304FF000033B658FE007F108023B6DD3181B782F2B25D907F108023B6DD3181B78392B1ED897F85630022B1AD897F8563007F108013A6D8A18127807F17E
:400200005801CB1803F8542C97F8563003F1010387F8563007F108023B6DD3181B781846FFF760FF5EE007F108023B6DD3181B787F2B17D197F85630002B13D097F85630EA
:4002400003F1FF3387F8563097F8563007F15802D3184FF0000203F8542C4FF07F00FFF741FF3FE007F108023B6DD3181B780D2B38D197F85630002B34D007F1040207F18F
:400280000303104645F6E831C0F200011A4604F0EDFEFB78184603F00FFCFA7897F8553010461946FFF7ECFE00BF01F007F80346002BFAD000F0CAFF4FF00003FB640AE081
:4002C00007F10402FB6CD3184FF000021A70FB6C03F10103FB64FB6C022BF1DD4FF0000387F856303B6D03F101033B65B7F84A203B6D9A423FF76AAF03F0F8FD0346002BF4
:400300007FF440AF4FF0010004F0B0F90346184604F0B8FD4FF0020004F0A8F90346184604F0D0FD4FF0000004F0FEFA0346A7F84830B7F848204FF6FF739A4216D097F846
:4003400055309BB2B7F848209A420FD0B7F8483087F8553097F85530184603F0BDFBFA7897F8553010461946FFF78AFE04F090F803F07CFD06E700BF80B400AFFEE700BFBD
:4003800080B586B000AF40F20103C0F200037B6146F25403C0F200033B6140F20103C0F200037B6146F25403C0F200033B613BE03B691B68FB603B695B68BB603B699B680F
:4003C0003B604FF000037B600FE0FB681A68BB681A60BB6803F10403BB60FB6803F10403FB607B6803F104037B607A683B689A42EBD13B69DB683B604FF000037B600BE082
:40040000BB684FF000021A60BB6803F10403BB607B6803F104037B607A683B689A42EFD13B6903F110033B617B69002B0CBF00230123DBB27A6902F1FF327A61002BB7D141
:4004400004F0DCFDFFF762FEFEE700BF80B582B000AF4EF60C53CEF200034FF48062C0F2FA521A604EF61453CEF200034EF61452CEF20002126842F400721A604FF00003E4
:400480007B6019E07B68032B07D840F20003C0F200037A6853F8223003E040F27933C0F2000348F20002C1F6FF72796842F821307B6803F101037B607B682F2BE2D947F2E2
:4004C000BC63C4F200031B78DAB248F20413C1F6FF731A704EF60853CEF2000348F20002C1F6FF721A6000F079F948F20013C1F6FF734FF000021A6007F10807BD4680BDE7
:4005000080B582B000AF7860396078684FF000013A6804F0A2FD07F10807BD4680BD00BF80B584B000AFF860B9607A60F868B9687A6804F089FD07F11007BD4680BD00BF8B
:4005400080B487B000AF786039604FF000033B614FF000037B612CE07B694FEA83037A68D3181B68BB60BB68FB73BB6823F0FF03BB6017E03B694FEA43033A68D3181B78BC
:400580001A46BB68D3183A694FEA420239688A1852781A703B6903F101033B61FB7B03F1FF33FB73FB7B002BE4D17B6903F101037B617B691C2BCFD907F11C07BD4680BC99
:4005C000704700BF80B400AF4FF48143C4F200034FF001021A8044F28203C4F200034FF019021A7044F28403C4F200034FF001021A8044F28603C4F200034FF019021A7000
:400600004FF48643C4F200034FF006021A704FF48443C4F200034FF052021A7044F2A163C4F2000340F20F12C4F600121278D2B21A7044F20403C4F200034FF000021A80C9
:4006400044F20403C4F200034FF007021A7044F20603C4F200034FF000021A7044F20803C4F200034FF048021A7044F20403C4F200034FF000021A7044F20903C4F2000326
:400680004FF000021A7044F20103C4F200034FF002021A7044F2A233C4F2000344F2A232C4F200021278D2B242F00302D2B21A70BD4680BC704700BF80B483B000AF40F2D9
:4006C000CF13C4F600131B78FB7145F66E03C4F20003FA7902F00702D2B21A7045F66F03C4F20003FA794FEA1212D2B21A7045F26D13C4F200034FF010021A7045F670032E
:40070000C4F200034FF000021A7045F6CB23C4F200034FF020021A7045F65B33C4F200034FF001021A7045F67603C4F200034FF066021A7007F10C07BD4680BC704700BFBC
:4007400080B483B000AF0346FB71FB79092B17D8FA7945F6F433C0F2000353F82220F97945F6F433C0F2000353F821301978F87945F61C43C0F200031B5C0B43DBB21370B5
:4007800007F10C07BD4680BC704700BF80B483B000AF0346FB71FB79092B1AD8FA7945F6F433C0F2000353F82220F97945F6F433C0F2000353F821301978F87945F61C433C
:4007C000C0F200031B5C6FEA0303DBB20B40DBB2137007F10C07BD4680BC704780B582B000AF72B644F2E863C4F2000344F2E862C4F200021278D2B242F00402D2B21A7081
:400800004FF00003FB7119E0FA7913464FEA43039B184FEA430345F62842C0F200029B183B603B681A683B689B889BB210461946FFF766FEFB7903F10103FB71FB79072B28
:40084000E2D94FF090404FF07401C4F60001FFF777FE45F67203C4F200034FF440721A8045F64A03C4F2000340F203121A8045F20303C4F2010345F20302C4F20102127844
:40088000D2B242F00202D2B21A7045F21303C4F2010345F21302C4F201021278D2B242F00202D2B21A7044F2A033C4F2000344F2A032C4F200021278D2B242F04002D2B28A
:4008C0001A7044F2C233C4F2000344F2C232C4F200021278D2B242F01002D2B21A7045F2F010C4F200004FF47371C4F600014FF00A02FFF715FE45F22210C4F200004FF4C3
:400900007671C4F600014FF00802FFF709FE45F25210C4F200004FF47871C4F600014FF00802FFF7FDFD45F26210C4F200004FF47A71C4F600014FF00802FFF7F1FD40F6B5
:40094000DB43C4F201034FF084021A7044F22233C4F2000344F22232C4F200021278D2B242F00802D2B21A704FF49043C4F200034FF001021A70FFF725FE4FF49043C4F2F2
:4009800000034FF081021A70FFF796FE44F2B030C4F2000044F2A031C4F200014FF00E02FFF7BEFD07F10807BD4680BD80B582B000AF02460B46FA71BB7148F2C413C1F67F
:4009C000FF731B78002B08D100F012F848F2C413C1F6FF734FF001021A70FA79BB791046194600F021F907F10807BD4680BD00BF80B582B000AF02F00DFC0346FB7144F286
:400A0000A533C4F2000344F2A532C4F200021278D2B242F00102D2B21A7044F2B533C4F2000344F2B532C4F200021278D2B242F00102D2B21A7046F29D03C4F200034FF042
:400A400001021A7046F20903C4F200034FF002021A7046F21003C4F2000346F21002C4F200021278D2B202F07F02D2B21A704FF0000002F009FC44F29433C4F2000344F268
:400A80009432C4F200021278D2B222F00602D2B21A7046F21203C4F2000346F21202C4F200021278D2B222F02002D2B21A7044F29433C4F2000344F29432C4F20002127834
:400AC000D2B242F00102D2B21A704FF0010002F0DBFB4FF0280002F0D7FB45F2F813C4F2000345F2F812C4F200021278D2B202F07F02D2B21A7045F2F813C4F2000345F247
:400B0000F812C4F200021278D2B222F04002D2B21A7044F29433C4F2000344F29432C4F200021278D2B242F00202D2B21A704FF0020002F0A9FB44F29433C4F2000344F204
:400B40009432C4F200021278D2B242F00402D2B21A7046F28403C4F200034FF000021A7046F28503C4F200034FF000021A70FB79184602F053FB4FF0170041F6C541C0F2C5
:400B8000000102F095FB4FF017004FF0070102F0BFFB4FF0150041F6B941C0F2000102F087FB4FF015004FF0070102F0B1FB4FF0180041F24531C0F2000102F079FB4FF02C
:400BC00018004FF0070102F0A3FB4FF0010041F65531C0F2000102F06BFB4FF001004FF0070102F095FB4FF0020041F6C931C0F2000102F05DFB4FF002004FF0070102F00C
:400C000087FB4FF0030041F63D41C0F2000102F04FFB4FF003004FF0070102F079FB07F10807BD4680BD00BF80B582B000AF02460B46FA71BB714FF46143CEF200034FF424
:400C400000021A604FF46143CEF200034FF080721A604FF46143CEF200034FF002021A604FF46143CEF200034FF004021A604FF46143CEF200034FF008021A6048F2FE131B
:400C8000C1F6FF734FF000021A70BB79002B02D0012B08D00FE046F20903C4F200034FF002021A700FE046F20903C4F200034FF003021A7007E046F20903C4F200034FF075
:400CC00002021A7000BF48F2F913C1F6FF73FA791A7048F21723C1F6FF734FF000021A7048F20C23C1F6FF734FF000021A7048F21423C1F6FF734FF000021A7048F216239E
:400D0000C1F6FF734FF000021A7048F21923C1F6FF734FF000021A7048F2F813C1F6FF734FF000021A7046F22803C4F200034FF003021A7046F20803C4F200034FF0800275
:400D40001A704FF0010002F05BFA46F21203C4F200034FF004021A7007F10807BD4680BD80B400AF48F2FE13C1F6FF734FF000021A7048F21723C1F6FF734FF000021A70BC
:400D800048F20C23C1F6FF734FF000021A7048F21423C1F6FF734FF000021A7048F21623C1F6FF734FF000021A7048F21923C1F6FF734FF000021A7048F2F813C1F6FF7332
:400DC0004FF000021A7046F22803C4F200034FF003021A7046F20803C4F200034FF080021A70BD4680BC704780B400AF48F21723C1F6FF731B78DBB21846BD4680BC70470D
:400E000080B485B000AF0346FB714FF00003FB81FB79002B27D0FB79082B24D8FB7903F1FF33DBB24FEA03137B737A7B46F20C03C4F20003D3181B78DBB203F00F03FB8109
:400E4000FB894FEA03239AB2797B46F20D03C4F20003CB181B78DBB213439BB2FB81FB89A3F10203FB81FB89184607F11407BD4680BC704790B484B000AF39601346024647
:400E8000FA71BB80FB79002B00F09680FB79082B00F29280FB7903F1FF33DBB24FEA03137B737A7B46F28803C4F20003D318BB60B888F97948F21C22C1F6FF720B464FEA85
:400EC00043035B184FEA8303D318DB889BB2C3F50073984210D9F97948F21C22C1F6FF720B464FEA43035B184FEA8303D318DB889BB2C3F50073BB807A7B46F20C03C4F2EA
:400F00000003D3181846BB884FEA13239BB2DCB2F97948F21C22C1F6FF720B464FEA43035B184FEA8303D318DB78DBB22343DBB203707A7B46F20D03C4F20003D318BA8870
:400F4000D2B21A703B68002B11D04FF00003FB8109E0FB893A68D3181A78BB681A70FB8903F10103FB81FA89BB889A42F1D3F97948F21C22C1F6FF720B464FEA43035B180A
:400F80004FEA8303D3184FF000025A707A7B46F20E03C4F20003D3181846F97948F21C22C1F6FF720B464FEA43035B184FEA8303D3185B79DBB2037007F11007BD4690BC0B
:400FC000704700BF80B586B000AF396013460246FA71BB80FB79002B37D0FB79082B34D83B68002B31D0FB7903F1FF33DBB24FEA03137B757A7D46F28803C4F20003D31895
:401000003B61FB791846FFF7FBFE0346FB81BA88FB899A4201D9FB89BB804FF00003FB820AE0FB8A3A68D3183A691278D2B21A70FB8A03F10103FB82FA8ABB889A42F0D3FD
:40104000FB79184600F00AF802E04FF00003BB80BB88184607F11807BD4680BD80B485B000AF0346FB71FB79002B2ED0FB79082B2BD8FB7903F1FF33DBB24FEA0313FB735D
:40108000F97948F21C22C1F6FF720B464FEA43035B184FEA8303D3184FF000025A70FA7B46F20E03C4F20003D3181846F97948F21C22C1F6FF720B464FEA43035B184FEAD8
:4010C0008303D3185B79DBB2037007F11407BD4680BC704780B582B000AF4FF00003FB714FF4C043C4F200031B78DBB2DBB25BB2002B1EDA46F20103C4F200031B78DBB2ED
:40110000212B15D148F20023C1F6FF734FF007021A8048F20023C1F6FF7348F2F012C1F6FF725A6000F0F6FA0346FB7100BF58E057E04FF4C043C4F200031B78DBB2DBB202
:401140005BB2002B4DDB46F20103C4F200031B78DBB2202B02D0222B23D041E048F20023C1F6FF734FF007021A8048F20023C1F6FF7348F2F012C1F6FF725A6048F2EC1337
:40118000C1F6FF731B78DBB243F00103DAB248F2EC13C1F6FF731A7000F060FB0346FB711FE046F20203C4F200031B78DBB21A4648F2EA13C1F6FF731A8048F2EC13C1F6D8
:4011C000FF731B78DBB243F00203DAB248F2EC13C1F6FF731A7000F017FC0346FB7100E000BFFB79184607F10807BD4680BD00BF80B500AF48F2EC13C1F6FF734FF00002F7
:401200001A7048F2E813C1F6FF731B78DBB21846FFF724FF80BD00BF80B584B000AF0346FB71FB79FB7348F2E913C1F6FF731B78DAB207F10F03104619464FF00102FFF70F
:4012400019FE07F11007BD4680BD00BF80B582B000AF45F65843C0F2000307F104021B88138048F2E913C1F6FF731B78DAB207F10403104619464FF00202FFF7FBFD07F119
:401280000807BD4680BD00BF80B400AF48F2E813C1F6FF731B78DBB2194648F21C22C1F6FF720B464FEA43035B184FEA8303D3185B78DBB21846BD4680BC704780B400AF3C
:4012C00048F2E913C1F6FF731B78DBB2194648F21C22C1F6FF720B464FEA43035B184FEA8303D3185B78DBB21846BD4680BC704780B582B000AF786048F2E813C1F6FF7383
:401300001B78D8B248F2E813C1F6FF731B78DBB2194648F21C22C1F6FF720B464FEA43035B184FEA8303D31803F108031B889BB279681A46FFF746FE0346184607F108070E
:40134000BD4680BD80B582B000AF46F22803C4F200031B78BB71BB7903F01003002B00F08C804FF00103FB71BB795BB2002B18DABB7903F00F03012B03D04FF00003FB71E8
:4013800022E000F07FF848F21523C1F6FF731B78DBB2DBB25BB2002B16DA4FF00003FB7112E0BB7903F04003002B02D000F0BEF80AE0BB7903F02003002B02D000F0DEF8B0
:4013C00002E04FF00003FB71FB79002B55D046F22803C4F200031B78BB71BB795BB2002B4BDB48F28A23C1F6FF731B78DAB248F21823C1F6FF731B78DBB21343BB7146F285
:401400002903C4F20003BA791A7046F22903C4F200031B78DBB2BA799A422ED148F21523C1F6FF731B78FB7146F22803C4F200031B78DBB223F07F03BB71BB79002B13D1E5
:4014400046F22803C4F2000348F21522C1F6FF721278D2B21A7046F22803C4F200031B78DBB203F00F03FB7148F21523C1F6FF731B78DBB2FA799A42D0D107F10807BD46BD
:4014800080BD00BF80B582B000AF46F22803C4F200031B78FB7146F22803C4F20003FA791A7046F22803C4F200031B78FB71FB795BB2002B06DA48F21523C1F6FF73FA7931
:4014C0001A702EE04FF0020000F0F4FA4FF4C043C4F200031B78DBB203F06003202B08D0402B0BD0002B0ED100F0F2FB0346FB710DE003F009FD0346FB7108E001F048FE01
:401500000346FB7103E04FF00003FB7100BFFB79002B06D148F21523C1F6FF734FF003021A7007F10807BD4680BD00BF80B500AF48F2FE13C1F6FF731B78DBB2062B1AD826
:4015400001A252F823F000BF771500007715000065150000771500006B150000771500007115000000F04AF906E000F037FA03E000F06EFA00E000BF80BD00BF80B500AF08
:4015800048F2FE13C1F6FF731B78DBB2062B23D801A252F823F000BFD9150000D9150000B5150000D9150000BB150000D9150000C115000000F028F90FE000F091F90CE01E
:4015C0004FF0030000F076FA48F21523C1F6FF734FF003021A7000E000BF80BD80B483B000AF4FF00003FB7148F2F813C1F6FF731B78DBB21A4648F2FA13C1F6FF731B883F
:401600009BB2D3189AB248F2FA13C1F6FF731A802BE0FB7903F1804303F5C0431A4648F20023C1F6FF735B681B78DBB2137048F20023C1F6FF735B6803F1010248F2002302
:40164000C1F6FF735A60FB7903F10103FB7148F20023C1F6FF731B889BB203F1FF339AB248F20023C1F6FF731A8048F20023C1F6FF731B889BB2002B02D0FB79072BC8D9ED
:4016800048F2F813C1F6FF731B78DBB2082B02D0FB79002B1ED048F28A23C1F6FF731B78DBB283F07F036FEA0303DAB248F28A23C1F6FF731A7048F21523C1F6FF734FF086
:4016C0000F021A7048F2FE13C1F6FF734FF002021A700DE048F21523C1F6FF734FF002021A7048F2FE13C1F6FF734FF002021A7048F2F813C1F6FF73FA791A7048F2182398
:40170000C1F6FF73FA791A7007F10C07BD4680BC704700BF80B582B000AF48F20023C1F6FF731B889BB2002B02D100F03BF832E048F2FE13C1F6FF734FF002021A7048F289
:401740008A23C1F6FF734FF000021A7000F0DEF946F20703C4F200031B78DBB24FEA03239AB246F20603C4F200031B78DBB213439BB2FB8048F20023C1F6FF731B889BB28D
:40178000FA889A4205D248F20023C1F6FF73FA881A80FFF723FF4FF00103184607F10807BD4680BD80B400AF48F2FE13C1F6FF734FF002021A7048F28A23C1F6FF734FF0DF
:4017C00080021A7048F21523C1F6FF734FF00F021A7048F2F813C1F6FF734FF000021A7048F21823C1F6FF734FF000021A704FF001031846BD4680BC704700BF80B500AF8C
:40180000FFF7ECFE80BD00BF80B500AF48F2F813C1F6FF731B78DBB21A4648F2FA13C1F6FF731B889BB2D3189AB248F2FA13C1F6FF731A8048F2FE13C1F6FF734FF00002A4
:401840001A704FF0010000F035F948F21523C1F6FF734FF003021A7080BD00BF80B582B000AF48F2FE13C1F6FF734FF004021A7048F28A23C1F6FF734FF080021A7000F077
:4018800045F946F20703C4F200031B78DBB24FEA03239AB246F20603C4F200031B78DBB213439BB2FB8048F20023C1F6FF731B889BB2FA889A4205D248F20023C1F6FF73BB
:4018C000FA881A8048F21523C1F6FF734FF00B021A704FF00103184607F10807BD4680BD80B483B000AF4FF00003BB7146F22903C4F200031B78DBB203F00F03DBB2A3F18C
:401900000203FB71FB799AB248F2FA13C1F6FF731B889BB2D3189AB248F2FA13C1F6FF731A802EE048F20023C1F6FF735A68BB7903F1804303F5C0431B78DBB2137048F2BC
:401940000023C1F6FF735B6803F1010248F20023C1F6FF735A60BB7903F10103BB71FB7903F1FF33FB7148F20023C1F6FF731B889BB203F1FF339AB248F20023C1F6FF7355
:401980001A8048F20023C1F6FF731B889BB2002B02D0FB79002BC5D148F21823C1F6FF73FA791A7048F28A23C1F6FF731B78DBB283F07F036FEA0303DAB248F28A23C1F69C
:4019C000FF731A7048F21523C1F6FF734FF00B021A7007F10C07BD4680BC704780B500AF48F2FE13C1F6FF734FF000021A704FF0010000F05FF848F21523C1F6FF734FF0F5
:401A000003021A7080BD00BF80B400AF48F2FE13C1F6FF734FF006021A7048F21523C1F6FF734FF006021A7048F28A23C1F6FF734FF080021A7048F21823C1F6FF734FF04F
:401A400000021A704FF001031846BD4680BC704780B500AF48F21623C1F6FF731B78DBB2002B14D046F20803C4F2000348F21622C1F6FF721278D2B262F07F02D2B21A700F
:401A800048F21623C1F6FF734FF000021A7048F2FE13C1F6FF734FF000021A704FF0010000F008F848F21523C1F6FF734FF003021A7080BD80B483B000AF0346FB7148F2A5
:401AC0000023C1F6FF739B68002B19D048F20023C1F6FF739B68FA791A7048F20023C1F6FF739A6848F2FA13C1F6FF731B889BB2538048F20023C1F6FF734FF000029A6081
:401B000007F10C07BD4680BC704700BF80B400AF48F2FA13C1F6FF734FF000021A8048F20023C1F6FF739B68002B0FD048F20023C1F6FF739B684FF000021A7048F2002373
:401B4000C1F6FF739B684FF000025A80BD4680BC704700BF80B400AF46F20E03C4F200031B7848F21C23C1F6FF731B7BDBB203F00303012B0FD048F21C23C1F6FF73DB7B30
:401B8000DBB283F07F036FEA0303DAB248F21C23C1F6FF73DA7348F21C23C1F6FF734FF001025A7346F20B03C4F2000346F20B02C4F200021278D2B222F00102D2B21A70EB
:401BC000BD4680BC704700BF80B400AF46F21E03C4F200031B7848F21C23C1F6FF731B7EDBB203F00303012B0FD048F21C23C1F6FF73DB7EDBB283F07F036FEA0303DAB274
:401C000048F21C23C1F6FF73DA7648F21C23C1F6FF734FF001025A7646F20B03C4F2000346F20B02C4F200021278D2B222F00202D2B21A70BD4680BC704700BF80B400AF38
:401C400046F22E03C4F200031B7848F21C23C1F6FF7393F82430DBB203F00303012B11D048F21C23C1F6FF7393F82730DBB283F07F036FEA0303DAB248F21C23C1F6FF7308
:401C800083F8272048F21C23C1F6FF734FF0010283F8252046F20B03C4F2000346F20B02C4F200021278D2B222F00402D2B21A70BD4680BC704700BF80B400AFBD4680BCB7
:401CC000704700BF80B500AFFFF74AF880BD00BF80B586B000AF4FF00003FB754FF000033B6148F20023C1F6FF734FF000021A804FF4C043C4F200031B78DBB2DBB25BB292
:401D0000002B80F2958146F20103C4F200031B78DBB20A2B00F2D88201A252F823F000BFF51E0000C9220000C9220000C9220000C9220000C92200004D1D0000C92200009C
:401D4000CB1F0000C9220000F51F000046F20303C4F200031B78DBB2012B15D101F01EF8B860BB685A6848F20023C1F6FF735A6048F20023C1F6FF734FF012021A80FFF7A4
:401D8000C9FC0346FB75A1E246F20303C4F200031B78DBB2022B32D146F20203C4F200031B78DBB2184600F0D7FFB860BB685A6848F20023C1F6FF735A6048F20023C1F650
:401DC000FF735B6803F103031B78DBB24FEA03239AB248F20023C1F6FF735B6803F102031B78DBB213439BB29AB248F20023C1F6FF731A80FFF78EFC0346FB7566E246F2BF
:401E00000303C4F200031B78DBB2032B6DD14FF00003FB7345F62853C0F200033B610AE03B691B78FB71FB793A69D3183B61FB7B03F10103FB7346F20203C4F200031B7810
:401E4000DBB2FA7B9A4204D23B691B78DBB2002BE6D146F20203C4F200031B78DBB2EE2B04D145F62863C0F200033B6146F20203C4F200031B78DBB2002B1CD046F2020383
:401E8000C4F200031B78DAB245F6D043C0F200031B7C9A420FD145F6C853C0F200033B6148F2CC20C1F6FF7000F01CFA48F2CC23C1F6FF733B613B691B78DBB2002B00F02E
:401EC00005823B691B78DBB21A4648F20023C1F6FF731A8048F20023C1F6FF733A695A60FFF718FC0346FB75F0E103F00DF80346FB75EBE14FF4C043C4F200031B78DBB204
:401F000003F00303002B37D0022B5CD148F20023C1F6FF734FF002021A8046F20403C4F200031B78DBB203F07F0148F21C22C1F6FF720B464FEA43035B184FEA8303D318A1
:401F40009B78DAB248F2C813C1F6FF731A7048F2C813C1F6FF734FF000025A7048F20023C1F6FF7348F2C812C1F6FF725A60FFF7D1FB0346FB7527E048F20023C1F6FF732D
:401F80004FF002021A8048F21923C1F6FF731B78DAB248F2C813C1F6FF731A7048F2C813C1F6FF734FF000025A7048F20023C1F6FF7348F2C812C1F6FF725A60FFF7AAFB5E
:401FC0000346FB7500E000BF85E148F20023C1F6FF734FF001021A8048F20023C1F6FF7348F21722C1F6FF725A60FFF793FB0346FB7570E148F20023C1F6FF734FF0010290
:402000001A8046F20403C4F200031B78DBB21A4648F28823C1F6FF73D21848F20023C1F6FF735A60FFF776FB0346FB7500BF52E146F20103C4F200031B78DBB203F1FF3309
:402040000A2B00F2458101A252F823F029210000D1220000F9210000D122000079200000D1220000D1220000D122000099200000D1220000CF20000046F20203C4F2000326
:402080001B78DAB248F21623C1F6FF731A70FFF7BBFC0346FB751EE146F20203C4F200031B78DAB248F21723C1F6FF731A7048F21423C1F6FF734FF001021A704FF0010094
:4020C00000F066FAFFF7A0FC0346FB7503E101F017F80346002B00F0FD8046F20403C4F200031B78BB7148F20C23C1F6FF73BA791A7048F21423C1F6FF734FF001021A7014
:4021000000F080FCBA79B97948F28823C1F6FF735B5CD9B248F2FC13C1F6FF739954FFF773FC0346FB75D5E04FF4C043C4F200031B78DBB203F00303012B2BD0012B0ED300
:40214000022B52D146F20203C4F200031B78DBB2002B4BD100F0F2FE0346FB7546E046F20203C4F200031B78DBB2012B40D148F21923C1F6FF731B78DBB223F00203DAB23D
:4021800048F21923C1F6FF731A70FFF73DFC0346FB752DE046F20403C4F200031B78DBB2012B27D846F20403C4F200031B78DBB21A46194648F28C23C1F6FF735B5CD9B293
:4021C00046F20203C4F200031B78DBB26FEA0303DBB20B40D9B248F28C23C1F6FF739954FFF712FC0346FB7504E004E000BF02E000BF00E000BF6EE04FF4C043C4F2000337
:402200001B78DBB203F00303012B2BD0012B0ED3022B52D146F20203C4F200031B78DBB2002B4BD100F0F2FD0346FB7546E046F20203C4F200031B78DBB2012B40D148F259
:402240001923C1F6FF731B78DBB243F00203DAB248F21923C1F6FF731A70FFF7D5FB0346FB752DE046F20403C4F200031B78DBB2012B27D846F20403C4F200031B78DBB205
:402280001A46194648F28C23C1F6FF735B5CD9B246F20203C4F200031B78DBB26FEA0303DBB20B40D9B248F28C23C1F6FF739954FFF7AAFB0346FB7504E004E000BF02E077
:4022C00000BF00E000BF06E000BF04E000BF02E000BF00E000BFFB7D184607F11807BD4680BD00BF90B488B000AF78604FF00003BB7745F65C43C0F2000307F10C040FCB24
:4023000084E80F007B68002B3AD07B684FF022021A707B6803F101034FF003021A704FF00203FB7729E0BB7F03F1924303F580731B787B77BB7F03F10103BB77FB7F7A689F
:40234000D3187A7F4FEA1212D2B207F120018A1812F8142C1A70FB7F03F102037A68D3187A7F02F00F0207F120018A1812F8142C1A70FB7F03F10403FB77FB7F212BD2D9E6
:4023800007F12007BD4690BC704700BF80B483B000AF4FF00103FB714FF00003BB71E5E0BB7903F1804303F5C1434FF00C021A70F97948F21C22C1F6FF720B464FEA4303A1
:4023C0005B184FEA8303D3185B79DBB2002B25D0F97948F21C22C1F6FF720B464FEA43035B184FEA8303D3181B79DBB2DBB25BB2002B09DABA7946F20E03C4F20003D31857
:402400004FF00C021A7012E0BA7946F20E03C4F20003D3184FF008021A7008E0BA7946F20E03C4F20003D3184FF080021A70BA7946F20C03C4F20003D3181846F97948F265
:402440001C22C1F6FF720B464FEA43035B184FEA8303D31803F108031B889BB24FEA13239BB2DBB20370BA7946F20D03C4F20003D3181846F97948F21C22C1F6FF720B467E
:402480004FEA43035B184FEA8303D31803F108031B889BB2DBB20370BA7946F28603C4F20003D3181846F97948F21C22C1F6FF720B464FEA43035B184FEA8303D318DB8839
:4024C0009BB2DBB20370BA7946F28703C4F20003D3181846F97948F21C22C1F6FF720B464FEA43035B184FEA8303D318DB889BB24FEA13239BB2DBB20370BA7946F284033B
:40250000C4F20003D3181846F97948F21C22C1F6FF720B464FEA43035B184FEA8303D318DB889BB2DBB20370BA7946F28503C4F20003D3181846F97948F21C22C1F6FF72E3
:402540000B464FEA43035B184FEA8303D318DB889BB24FEA13239BB2DBB20370FB7903F10103FB71BB7903F11003BB71BB795BB2002BBFF615AF46F20A03C4F200034FF0A1
:40258000FF021A7007F10C07BD4680BC704700BF80B588B000AF0346FB714FF000037B834FF00003FB7770E0F97F48F21C22C1F6FF720B464FEA43035B184FEA8303D318B6
:4025C0004FF000021A70F97F48F21C22C1F6FF720B464FEA43035B184FEA8303D3184FF000029A70F97F48F21C22C1F6FF720B464FEA43035B184FEA8303D3184FF000027A
:402600005A70F97F48F21C22C1F6FF720B464FEA43035B184FEA8303D3184FF00002DA70F97F48F21C22C1F6FF720B464FEA43035B184FEA8303D3184FF000025A71F97FB7
:4026400048F21C22C1F6FF720B464FEA43035B184FEA8303D31803F108034FF000021A80F97F48F21C22C1F6FF720B464FEA43035B184FEA8303D31803F108034FF00002AE
:402680009A70FB7F03F10103FB77FB7F082B8BD9FB79002B1AD04FF000037B7713E07A7F48F28823C1F6FF734FF0000199547A7F48F2FC13C1F6FF734FF0000199547B7FA5
:4026C00003F101037B777B7F012BE8D948F21723C1F6FF731B78DBB2002B00F08E8148F21723C1F6FF731B78DBB203F1FF33DBB2184600F031FB38613B695B68FB60FB687A
:4027000003F107031B7803F04003002B0ED048F21923C1F6FF731B78DBB243F00103DAB248F21923C1F6FF731A700DE048F21923C1F6FF731B78DBB223F00103DAB248F295
:402740001923C1F6FF731A703B6903F108033B613B691B78FB774FF001037B77EBE03B695B687B614FF00003BB77DBE07A7F7B699B7803F07F039A4240F0CC80797F48F221
:402780001C22C1F6FF720B464FEA43035B184FEA8303D31803F108031B889AB27B699B889A4211D2797F7B69988848F21C22C1F6FF720B464FEA43035B184FEA8303D31889
:4027C00003F1080302461A807B691B781A4648F28823C1F6FF739B5CDAB27B695B789A4240F098807B69DB7803F00303FB727B699B78DBB25BB2002B36DA797F48F21C22DC
:40280000C1F6FF720B464FEA43035B184FEA8303D3184FF001025A70787FFB7A012B02D14FF0070101E04FF00D0148F21C22C1F6FF7203464FEA43031B184FEA8303D31852
:402840000A465A717B699B790A2B03D07B699B79022B3FD1FB7A032B3CD048F2E913C1F6FF737A7F1A7035E0797F48F21C22C1F6FF720B464FEA43035B184FEA8303D318DD
:402880004FF000025A70787FFB7A012B02D14FF0050101E04FF0090148F21C22C1F6FF7203464FEA43031B184FEA8303D3180A465A717B699B790A2B03D07B699B79022BAE
:4028C00008D1FB7A032B05D048F2E813C1F6FF737A7F1A70797F7B69987848F21C22C1F6FF720B464FEA43035B184FEA8303D31802461A71797F7B69D87848F21C22C1F6FF
:40290000FF720B464FEA43035B184FEA8303D31802461A707B6903F108037B61BB7F03F10103BB77BA7FFB7F9A42FFF41FAF7B7F03F101037B777B7F082B7FF610AF3B690B
:402940005B687B614FF000037B771CE07B699B7803F07F017B69187848F21C22C1F6FF720B464FEA43035B184FEA8303D31803F1080302469A707B6903F108037B617B7F13
:4029800003F101037B777A7FFB7F9A42DED300F019FA024648F21023C1F6FF731A604FF00103FB7724E0F97F48F21C22C1F6FF720B464FEA43035B184FEA8303D3187A8B0F
:4029C000DA80F97F48F21C22C1F6FF720B464FEA43035B184FEA8303D31803F108031B889AB27B8BD3187B83FB7F03F10103FB77FB7F082BD7D9FFF7C9FC07F12007BD467D
:402A000080BD00BF80B584B000AF48F21723C1F6FF731B78DBB2002B00F0998148F21723C1F6FF731B78DBB203F1FF33DBB2184600F092F978607B6803F108037B607B68CF
:402A40001B78FB707B685B68BB604FF00003FB7378E1BB681B781A4648F28823C1F6FF739B5CDAB2BB681B78194648F2FC13C1F6FF735B5CDBB29A4200F05C81BB681B78BD
:402A80001A4648F28823C1F6FF739B5CDAB2BB685B789A4240F04E81BB681A7846F20403C4F200031B78DBB29A4240F04381BB689B7803F07F03BB70BB7803F1FF33DBB2FB
:402AC0004FEA03137B70BB68DB7803F003033B70BB689B78DBB25BB2002B25DAB97848F21C22C1F6FF720B464FEA43035B184FEA8303D3184FF001025A70B8783B78012BAF
:402B000002D14FF0070101E04FF00D0148F21C22C1F6FF7203464FEA43031B184FEA8303D3180A465A7124E0B97848F21C22C1F6FF720B464FEA43035B184FEA8303D3182B
:402B40004FF000025A70B8783B78012B02D14FF0050101E04FF0090148F21C22C1F6FF7203464FEA43031B184FEA8303D3180A465A717A7846F20E03C4F20003D3184FF07B
:402B800001021A70B978BB68988848F21C22C1F6FF720B464FEA43035B184FEA8303D31803F1080302461A80B978BB68987848F21C22C1F6FF720B464FEA43035B184FEA26
:402BC0008303D31802461A71B978BB68D87848F21C22C1F6FF720B464FEA43035B184FEA8303D31802461A70B97848F21C22C1F6FF720B464FEA43035B184FEA8303D318D0
:402C00004FF00002DA707A7846F20C03C4F20003D3181846B97848F21C22C1F6FF720B464FEA43035B184FEA8303D31803F108031B889BB24FEA13239BB2DBB203707A7873
:402C400046F20D03C4F20003D3181846B97848F21C22C1F6FF720B464FEA43035B184FEA8303D31803F108031B889BB2DBB203707A7846F28603C4F20003D3181846B97877
:402C800048F21C22C1F6FF720B464FEA43035B184FEA8303D318DB889BB2DBB203707A7846F28703C4F20003D3181846B97848F21C22C1F6FF720B464FEA43035B184FEAD4
:402CC0008303D318DB889BB24FEA13239BB2DBB203707A7846F28403C4F20003D3181846B97848F21C22C1F6FF720B464FEA43035B184FEA8303D318DB889BB2DBB20370D6
:402D00007A7846F28503C4F20003D3181846B97848F21C22C1F6FF720B464FEA43035B184FEA8303D318DB889BB24FEA13239BB2DBB20370BB6803F10803BB60FB7B03F10E
:402D40000103FB73FA7BFB789A42FFF482AE07F11007BD4680BD00BF80B485B000AF0346FB7148F2F913C1F6FF731B78DBB245F62062C0F200024FEAC303D3185B68FB6017
:402D8000FB7903F101034FEAC303FA68D3185B68184607F11407BD4680BC704780B400AF48F2F913C1F6FF731B78DBB245F62062C0F200024FEAC303D3185B681846BD4640
:402DC00080BC704780B582B000AF48F21723C1F6FF731B78DBB203F1FF33DBB21846FFF7BBFF78607B685B681B79FB70FB7803F102034FEAC3037A68D3187B607B685B6816
:402E0000184607F10807BD4680BD00BF80B582B000AF4FF00003FB7146F20403C4F200031B78DBB203F07F03BB71BB7903F1FF33DBB24FEA03137B71BB79002B78D0BB79B4
:402E4000082B75D8B979B87948F21C22C1F6FF7203464FEA43031B184FEA8303D3189B78DBB243F00103D8B248F21C22C1F6FF720B464FEA43035B184FEA8303D3180246F4
:402E80009A70B97948F21C22C1F6FF720B464FEA43035B184FEA8303D3184FF00002DA70B979B87948F21C22C1F6FF7203464FEA43031B184FEA8303D3185B78DBB243F083
:402EC0000203D8B248F21C22C1F6FF720B464FEA43035B184FEA8303D31802465A70B97948F21C22C1F6FF720B464FEA43035B184FEA8303D3181B79DBB2DBB25BB2002BFF
:402F000009DA7A7946F20E03C4F20003D3184FF08D021A7008E07A7946F20E03C4F20003D3184FF089021A70FEF76EFD0346FB71FB79184607F10807BD4680BD80B582B0C5
:402F400000AF4FF00003FB7146F20403C4F200031B78DBB203F07F03BB71BB7903F1FF33DBB24FEA03137B71BB79002B00F0C180BB79082B00F2BD80B979B87948F21C2218
:402F8000C1F6FF7203464FEA43031B184FEA8303D3189B78DBB223F00103D8B248F21C22C1F6FF720B464FEA43035B184FEA8303D31802469A70B97948F21C22C1F6FF7252
:402FC0000B464FEA43035B184FEA8303D3184FF00002DA707A7946F20C03C4F20003D3181A46797946F20C03C4F20003CB181B78DBB203F07F03DBB21370B979B87948F204
:403000001C22C1F6FF7203464FEA43031B184FEA8303D3185B78DBB223F00203D8B248F21C22C1F6FF720B464FEA43035B184FEA8303D31802465A70B97948F21C22C1F683
:40304000FF720B464FEA43035B184FEA8303D3181B79DBB2DBB25BB2002B23DAB97948F21C22C1F6FF720B464FEA43035B184FEA8303D3185B78DBB2012B09D17A7946F2BF
:403080000E03C4F20003D3184FF00C021A702CE07A7946F20E03C4F20003D3184FF00D021A7022E0B97948F21C22C1F6FF720B464FEA43035B184FEA8303D3185B78DBB29F
:4030C000012B09D17A7946F20E03C4F20003D3184FF008021A7008E07A7946F20E03C4F20003D3184FF009021A70FEF78DFC0346FB71FB79184607F10807BD4680BD00BF70
:4031000080B584B000AF4FF00103FB7346F20403C4F200031B78BB7348F21723C1F6FF731B78DBB203F1FF33DBB21846FFF714FEB860BB685B681B79FB71BA7BFB799A42B4
:4031400002D2BB7B012B03D94FF00003FB7318E0BA7BB97B48F28823C1F6FF735B5CD9B248F2FC13C1F6FF739954BA7B46F20203C4F200031B78D9B248F28823C1F6FF7326
:403180009954FB7B184607F11007BD4680BD00BF80B582B000AF4FF00003FB714FF4C043C4F200031B78DBB2DBB25BB2002B21DA46F20103C4F200031B78DBB2012B18D173
:4031C00048F20023C1F6FF7345F63C62C0F200025A6045F63C63C0F200031B781A4648F20023C1F6FF731A80FEF794FA0346FB7100E000BFFB79184607F10807BD4680BD70
:403200000230800800F0058000BF013800467FF4FCAF7047EFF3108072B6704780F31088704700BFAFF3008080B483B000AF0346FB7101BE07F10C07BD4680BC704700BF0E
:4032400080B582B000AF78600BE048F21813C1F6FF731B681846FFF7D3FF7B68A3F500437B607B68B3F5004FEFD848F21013C1F6FF731B687A6802FB03F31846FFF7C0FF13
:4032800007F10807BD4680BD80B582B000AF0346FB80FA8848F21413C1F6FF731B7803FB02F31846FFF7ACFF07F10807BD4680BD80B584B000AF03463960FB714EF6085310
:4032C000CEF200031B68FB60FB791F2B03D94FF00000FFF7A9FFFB7903F01F0303F110034FEA8303FA68D3181B68BB60FB7903F01F0303F110034FEA8303FA68D3183A683E
:403300001A60BB68184607F11007BD4680BD00BF80B582B000AF02460B46FA71BB71BB79072B03D94FF00000FFF77EFFFB791F2B03D94FF00000FFF777FFFB7903F01F037C
:4033400003F1604303F56443BA794FEA4212D2B21A7007F10807BD4680BD00BF80B500AF4FF02800FFF76CFF4FF0030000F058FA4FF00500FFF764FF4FF0030000F050FAFA
:403380004FF00F00FFF75CFF4FF0030000F048FA4FF00100FFF754FF4FF0020000F040FA4FF00500FFF74CFF4FF0060000F0C0F84FF00E0000F0BCF84FF02C0000F0B8F898
:4033C0004FF0080000F0B4F84FF0010000F0B0F84FF00C0000F0ACF84FF0030000F0A8F84FF00500FFF72CFF45F66460C0F2000001F0DEFD80BD00BF80B500AF4FF00C0054
:4034000000F096F848F2CC13C1F6FF734FF001021A7080BD80B500AF48F2CD13C1F6FF731B78002B08D1FFF799FF48F2CD13C1F6FF734FF001021A70FFF7DEFF80BD00BF99
:4034400080B582B000AF02460B46FA71BB71FB79032B2BD801A252F823F000BF6D3400007D3400008D3400009D340000BB79A3F18003DBB2184600F05BF818E0BB79A3F185
:403480004003DBB2184600F053F810E0BB79A3F16C03DBB2184600F04BF808E0BB79A3F12C03DBB2184600F043F800E000BF07F10807BD4680BD00BF80B584B000AF7860D4
:4034C0004FF00103FB737B681B78BB730CE0BB7B184600F011F8FB7B7A68D3181B78BB73FB7B03F10103FB73BB7B002BEFD107F11007BD4680BD00BF80B584B000AF03468E
:40350000FB7100F031F8FB794FEA1313FB73FB7B184600F02DF9FB7903F00F03FB73FB7B184600F025F907F11007BD4680BD00BF80B584B000AF0346FB7100F015F8FB79C6
:403540004FEA1313FB73FB7B184600F069F9FB7903F00F03FB73FB7B184600F061F907F11007BD4680BD00BF80B582B000AF45F22013C4F2000345F22012C4F20002127861
:40358000D2B222F07F02D2B21A7045F22213C4F200031B78DBB223F00F03FB7145F22213C4F20003FA7942F00F02D2B21A7045F22313C4F200031B78DBB223F00F03FB7150
:4035C00045F22313C4F20003FA791A7045F22413C4F200031B78DBB223F00F03FB7145F22413C4F20003FA791A7045F22013C4F2000345F22012C4F200021278D2B222F048
:403600002002D2B21A7045F22013C4F2000345F22012C4F200021278D2B242F04002D2B21A704FF00000FFF72FFE45F22013C4F2000345F22012C4F200021278D2B242F0A0
:403640001002D2B21A704FF00100FFF71DFE45F22113C4F200031B78FB7145F22013C4F2000345F22012C4F200021278D2B222F01002D2B21A704FF00000FFF705FEFB7986
:4036800003F00803FB7145F22013C4F2000345F22012C4F200021278D2B242F01002D2B21A704FF00100FFF7EFFD45F22013C4F2000345F22012C4F200021278D2B222F076
:4036C0001002D2B21A70FB79002BAAD145F22013C4F2000345F22012C4F200021278D2B222F04002D2B21A7045F22013C4F2000345F22012C4F200021278D2B222F07F02F7
:40370000D2B21A7045F22213C4F2000345F22212C4F200021278D2B222F00F02D2B21A7045F22313C4F200031B78DBB223F00F03FB7145F22313C4F20003FA7942F00F0241
:40374000D2B21A7045F22413C4F200031B78DBB223F00F03FB7145F22413C4F20003FA7942F00F02D2B21A7007F10807BD4680BD80B582B000AF0346FB71FFF7F5FE45F246
:403780002013C4F2000345F22012C4F200021278D2B242F02002D2B21A7045F22013C4F2000345F22012C4F200021278D2B222F04002D2B21A7045F22013C4F2000345F27E
:4037C0002012C4F200021278D2B222F00F02D2B21A7045F22013C4F2000345F22012C4F200021278D1B2FA790A43D2B242F01002D2B21A704FF00100FFF746FD45F22013D6
:40380000C4F2000345F22012C4F200021278D2B222F01002D2B21A7007F10807BD4680BD80B582B000AF0346FB7145F22013C4F2000345F22012C4F200021278D2B222F0F8
:403840006002D2B21A7045F22013C4F2000345F22012C4F200021278D2B222F00F02D2B21A7045F22013C4F2000345F22012C4F200021278D1B2FA790A43D2B242F010027C
:40388000D2B21A704FF00100FFF7FEFC45F22013C4F2000345F22012C4F200021278D2B222F01002D2B21A7007F10807BD4680BD80B586B000AF0346FB804FF00003FB756F
:4038C00028E0F87DFA884CF6CD43CCF6CC43A3FB02134FEAD3010B464FEA83035B184FEA4303D31A9BB2DBB203F13003DAB207F118010B1803F8102CFA884CF6CD43CCF669
:40390000CC43A3FB02134FEAD303FB80FB7D03F10103FB75FB88092BD3D8F87DFA884CF6CD43CCF6CC43A3FB02134FEAD3010B464FEA83035B184FEA4303D31A9BB2DBB256
:4039400003F13003DAB207F118010B1803F8102CFB7DBB7511E0BA7DFB7DD31AFA7D07F118018A1812F8102C07F11801CB1803F8082CFB7D03F1FF33FB75FB7D002BEAD1F5
:40398000BB7D3A7A07F11801CB1803F8082CBB7D03F1010307F11802D3184FF0000203F8082C07F110031846FFF786FD07F11807BD4680BD80B500AF48F2CE13C1F6FF73FA
:4039C0001B78002B08D100F00BF848F2CE13C1F6FF734FF001021A7000F03AF880BD00BF80B582B000AF46F27B43C4F200031B78DBB223F03F03FB7146F27B43C4F20003BA
:403A0000FA7942F00902D2B21A7046F29B43C4F2000346F29B42C4F200021278D2B242F00102D2B21A704FF0FE0000F025F84FF0FE0000F031F84FF07F0000F03DF84FF019
:403A40003F0000F049F807F10807BD4680BD00BF80B400AF46F27B43C4F2000346F27B42C4F200021278D2B262F07F02D2B21A70BD4680BC704700BF80B483B000AF03468E
:403A8000FB7146F20B43C4F20003FA791A7007F10C07BD4680BC704780B483B000AF0346FB7146F24B43C4F20003FA791A7007F10C07BD4680BC704780B483B000AF0346B6
:403AC000FB7146F22B43C4F20003FA791A7007F10C07BD4680BC704780B483B000AF0346FB7146F23B43C4F20003FA791A7007F10C07BD4680BC704780B582B000AF00F0BF
:403B000005FA4FF0020000F051FBFFF783FB0346FB7146F29C43C4F2000346F29C42C4F200021278D2B242F00302D2B21A70FB791846FFF773FB46F22C43C4F200034FF01A
:403B4000B8021A7046F24C43C4F200034FF0FF021A7046F28D43C4F200034FF00F021A70FFF758FB0346FB7146F29D43C4F2000346F29D42C4F200021278D2B242F0030239
:403B8000D2B21A7046F29E43C4F2000346F29E42C4F200021278D2B242F00302D2B21A70FB791846FFF73AFB46F22D43C4F200034FF0FF021A7046F24D43C4F200034FF01A
:403BC000FF021A7046F20D43C4F200034FF0FF021A7046F22E43C4F200034FF0FF021A7046F25E43C4F200034FF0FF021A7046F24E43C4F200034FF0FF021A704EF2801388
:403C0000CEF200034FF001021A604FF0000044F6B911C0F20001FFF74BFB4FF000004FF00701FFF775FB01F0EFF84FF00700FCF787FD4FF00800FCF783FD4FF00900FCF75D
:403C40007FFD46F27E43C4F2000346F27E42C4F200021278D2B242F00402D2B21A7000F001FF00F0BFFF4FF0000001F03BF84FF0040001F061F84FF0000001F087F807F1DD
:403C80000807BD4680BD00BF80B582B000AFFFF7C1FA0346FB7146F29D43C4F2000346F29D42C4F200021278D2B242F02002D2B21A7001F0C5F800F023FF00F0C7FF44F2BE
:403CC000BB33C4F2000344F2BB32C4F200021278D2B242F01002D2B21A7044F2AB33C4F2000344F2AB32C4F200021278D2B242F01002D2B21A7045F67003C4F2000345F648
:403D00007002C4F200021278D2B242F00102D2B21A70FB791846FFF781FA4FF46143CEF200034FF001021A6046F27E43C4F2000346F27E42C4F200021278D2B262F07F021C
:403D4000D2B21A7007F10807BD4680BD80B500AF48F2D013C1F6FF731B78002B08D1FFF7CBFE48F2D013C1F6FF734FF001021A70FFF78AFF80BD00BF80B485B000AF034680
:403D8000FB71FB7903F10103FB71FB79072B17D0FB794FEAD303FB73FB7903F007034FF0010202FA03F3BB73FA7B48F21C13C1F6FF739A5CBB7B1340DBB2002BE1D000E09F
:403DC00000BFFB79184607F11407BD4680BC704780B584B000AF0346FB71FA7945F6BC43C0F200039B5CFB73FA7948F22013C1F6FF739B5C184600F0C9FF46F25D43C4F2F1
:403E00000003F97B48F2D412C1F6FF72525C1A7048F22713C1F6FF731B78184600F0ACF907F11007BD4680BD80B582B000AF0346FB7148F29F23C1F6FF734FF000021A705E
:403E400048F29E23C1F6FF73FA791A7048F29F23C1F6FF734FF081021A70FB79184600F0EBF807F10807BD4680BD00BF80B500AF48F29F23C1F6FF734FF000021A7048F2F7
:403E80009E23C1F6FF734FF0FF021A7048F29E23C1F6FF731B78DBB21846FFF76DFF03461A4648F29E23C1F6FF731A7048F29E23C1F6FF731B78DBB2062B16D848F29F2394
:403EC000C1F6FF731B78DBB243F00103DAB248F29F23C1F6FF731A7048F29E23C1F6FF731B78DBB2184600F0A7F880BD80B400AF48F29F23C1F6FF731B78DBB203F001037A
:403F0000DBB21846BD4680BC704700BF80B582B000AF4FF00003FB7107E0FB79184600F049F8FB7903F10103FB71FB79062BF4D907F10807BD4680BD80B584B000AF034641
:403F4000FB71FA7945F68C43C0F200039B5CFB73FA7945F69443C0F200039B5CBB73FA7945F67043C0F2000353F822304FF009021A70FB7B0F2B02D14FF00703FB73FA7BA9
:403F800045F69C43C0F2000353F82220F97B45F69C43C0F2000353F821301978BB7B0B43DBB21370FB791846FCF7CAFB07F11007BD4680BD80B584B000AF0346FB71FA7988
:403FC00045F68C43C0F200039B5CFB73FA7945F69443C0F200039B5CBB73FB791846FCF7D5FBFB7B0F2B02D14FF00703FB73FA7B45F69C43C0F2000353F82220F97B45F6EF
:404000009C43C0F2000353F821301978BB7B6FEA0303DBB20B40DBB21370FA7945F67043C0F2000353F822304FF008021A7007F11007BD4680BD00BF80B582B000AF03464F
:40404000FB71FB791846FFF7C3FE46F27E43C4F2000346F27E42C4F200021278D2B242F00102D2B21A7045F67003C4F2000345F67002C4F200021278D2B222F00102D2B225
:404080001A70FB791846FFF757FF46F27E43C4F2000346F27E42C4F200021278D2B242F00202D2B21A7007F10807BD4680BD00BF80B582B000AF0346FB7146F27E43C4F224
:4040C000000346F27E42C4F200021278D2B222F00302D2B21A70FA7946F21E43C4F200031B78DBB24FEA032399B248F29023C1F6FF7323F81210FA79F97948F29023C1F66F
:40410000FF7333F8111046F20E43C4F200031B78DBB20B4399B248F29023C1F6FF7323F81210FA79F97948F29023C1F6FF7333F811306FEA030399B248F29023C1F6FF734C
:4041400023F81210FB791846FFF734FF4FF0000000F01CFE45F67003C4F2000345F67002C4F200021278D2B242F00102D2B21A7007F10807BD4680BD80B483B000AF0346FB
:40418000FB7146F22A43C4F20003FA791A7046F23A43C4F20003FA794FEA5202D2B21A7007F10C07BD4680BC704700BF80B483B000AF0346FB71FB79012B0ED146F27E43B9
:4041C000C4F2000346F27E42C4F200021278D2B222F01002D2B21A700DE046F27E43C4F2000346F27E42C4F200021278D2B242F01002D2B21A7007F10C07BD4680BC704766
:4042000080B485B000AF0346FB71FA7945F6BC43C0F200039B5CFB73FA79F97948F29023C1F6FF7333F8111048F2B823C1F6FF7323F81210FA7948F2A823C1F6FF734FF048
:4042400000019954FA7948F2B023C1F6FF734FF000019954FB7B002B0DD0FB7B03F1FF32F97B48F23413C1F6FF73595C48F2D813C1F6FF73995407F11407BD4680BC70474A
:4042800080B582B000AF0346FB71FB791846FFF7CBFD00BFFFF72AFE0346002BFAD1FB791846FFF7ADFF07F10807BD4680BD00BF80B582B000AF4FF00003FB7107E0FB79EE
:4042C0001846FFF7DDFFFB7903F10103FB71FB79062BF4D907F10807BD4680BD80B586B000AF0346FB71FA7945F6BC43C0F200039B5C7B757A7D48F22C13C1F6FF739B5C55
:404300003B75FA7948F29023C1F6FF7333F812307B82FA7948F2B823C1F6FF7333F812307A8A9A420DD3FA7948F2B823C1F6FF7333F812307A8AD31AFB824FF001037B753D
:404340000CE0FA7948F2B823C1F6FF7333F812207B8AD31AFB824FF000037B757B7D002B26D1FB8A142B23D9FA7948F2A023C1F6FF739B5C042B0CD9FB791846FFF740FF1D
:40438000FA7948F2A023C1F6FF734FF00001995455E0FA7948F2A023C1F6FF739B5C03F10103D9B248F2A023C1F6FF73995446E03B7D9BB2FA8A9A4205D9FB8A132B3ED89A
:4043C0007B7D002B3BD1FA7948F2B823C1F6FF7333F812304FEA0323FB60FA7948F2A823C1F6FF739B5CFA681343FB607B8AFA68D318FB60FA7948F2B823C1F6FF7333F882
:404400001230FA68D31AFB60FA79FB684FEA132399B248F2B823C1F6FF7323F81210FA79FB68D9B248F2A823C1F6FF739954FA7948F2A023C1F6FF734FF0000199543B7D8B
:404440009BB2FA8A9A4217D97B7D002B14D0FB8AFF2B08D9FA7948F2B023C1F6FF734FF0FF01995410E0FA79FB8AD9B248F2B023C1F6FF73995407E0FA7948F2B023C1F67F
:40448000FF734FF00001995407F11807BD4680BD80B582B000AF4FF00003FB711EE0FB794FEAD303BB71FB7903F007034FF0010202FA03F37B71BA7948F21C13C1F6FF733F
:4044C0009A5C7B791340DBB2002B03D0FB791846FFF704FFFB7903F10103FB71FB79062BDDD907F10807BD4680BD00BF80B485B000AF0346FB71FB794FEAD303BB73FB79FE
:4045000003F007034FF0010202FA03F37B73FA7945F6BC43C0F200039B5C3B733A7B48F22813C1F6FF739B5CFB723A7B48F23013C1F6FF739B5CBB723A7B48F23413C1F632
:40454000FF739B5C7B723B7B002B0BD14FF00203FB73FA7B48F2D813C1F6FF734FF00101995403E03B7B03F1FF33FB73BA7B48F2C823C1F6FF739A5C7B7B1340DBB2002BDE
:4045800025D0FA7948F2B023C1F6FF739B5C1A46F97ABB7ACB1A9A4252DABA7BB97B48F2C823C1F6FF73595C7B7B6FEA0303DBB20B40D9B248F2C823C1F6FF739954FA7B9D
:4045C00048F2D813C1F6FF73797A995438E0FA7948F2B023C1F6FF739B5C1A46F97ABB7ACB189A4225DDFA7B48F2D813C1F6FF739B5C012B0ED8BA7BB97B48F2C823C1F6FB
:40460000FF73595C7B7B0B43D9B248F2C823C1F6FF739954FA7B48F2D813C1F6FF739B5C03F1FF33D9B248F2D813C1F6FF73995406E0FA7B48F2D813C1F6FF73797A99541A
:40464000BA7B48F2C823C1F6FF739A5C7B7B1340DBB2002B02D04FF0010301E04FF00003184607F11407BD4680BC704780B584B000AF0346FB71FA7945F6C443C0F20003EA
:404680009B5CFB73FA7945F6C843C0F200039A5CFB7BD3187B734FF00003BB73FB7B1846FFF724FF0346002B02D04FF00103BB73FB7B03F10103FB73FA7B7B7B9A42EDD3EB
:4046C000BB7B184607F11007BD4680BD80B485B000AF13460246FA710A46BA717B714FF0FF03BB734FF000037B73FA7948F2B023C1F6FF73D318BB604FF00003FB7318E056
:40470000FB7BBA68D3181B787A799A420DD2FB7BBA68D3181B787A7B9A4206D2FB7BBB73FB7BBA68D3181B787B73FB7B03F10103FB73FA7BBB799A42E2D3BB7B184607F1AC
:404740001407BD4680BC704780B489B000AFF871B9717A717B804FF00003FB774FF00003BB77BA7948F2B023C1F6FF73D318BB61FB79002B03D0FB7903F1FF33FB77FB7909
:4047800003F10103BB77FB79BA69D3181A7848F2DC13C1F6FF735A70FB79002B10D148F2DC13C1F6FF734FF000021A70BB7FBA69D3181A7848F2DC13C1F6FF739A7028E0C4
:4047C000FA797B7903F1FF339A4210D1FB7FBA69D3181A7848F2DC13C1F6FF731A7048F2DC13C1F6FF734FF000029A7011E0FB7FBA69D3181A7848F2DC13C1F6FF731A70F5
:40480000BB7FBA69D3181A7848F2DC13C1F6FF739A7048F2DC13C1F6FF731B7897F828209A420ED248F2DC13C1F6FF731A7897F82830D31ADAB248F2DC13C1F6FF731A70AA
:4048400006E048F2DC13C1F6FF734FF000021A7048F2DC13C1F6FF735A7897F82830D31ADAB248F2DC13C1F6FF735A7048F2DC13C1F6FF739B7897F828209A420ED248F263
:40488000DC13C1F6FF739A7897F82830D31ADAB248F2DC13C1F6FF739A7006E048F2DC13C1F6FF734FF000029A7048F2DC13C1F6FF739B781A4648F2DC13C1F6FF731B78E5
:4048C000D31A7B6148F2DC13C1F6FF731B781A4648F2DC13C1F6FF735B78D21848F2DC13C1F6FF739B78D3183B617B694FEA03231A463B6992FBF3F2FB794FEA0323D31838
:404900003B617B881AB23B6902FB03F33B613B6903F5FE434FEA1343FB73FB7B184607F12407BD4680BC704790B587B002AF0346FB71FA7945F6C443C0F200039B5C7B73E1
:40494000FA7945F6C843C0F200039B5C3B73FA7948F22813C1F6FF739B5C797B3A7B084611461A46FFF7B2FE0346FB72FB7AFF2B19D0FA7945F6CC43C0F2000333F812409B
:40498000FA7948F22C13C1F6FF73985CF97A7A7B3B7B0090084611461A462346FFF7D4FE0346FB8102E04FF6FF73FB81FB89184607F11407BD4690BD80B500AF48F29E230C
:4049C000C1F6FF731B78DBB21846FFF771FB48F29F23C1F6FF731B78DBB2DBB25BB2002B0EDA48F29F23C1F6FF731B78DBB223F00103DAB248F29F23C1F6FF731A702FE016
:404A000048F29E23C1F6FF731B78DBB21846FFF7B3F903461A4648F29E23C1F6FF731A7048F29E23C1F6FF731B78DBB2062B09D848F29E23C1F6FF731B78DBB21846FFF7ED
:404A4000FBFA0DE048F29F23C1F6FF731B78DBB223F00103DAB248F29F23C1F6FF731A7080BD00BF80B500AF4FF0000000F06AF845F64103C4F2000345F64102C4F20002DE
:404A80001278D2B242F02002D2B21A7045F64103C4F2000345F64102C4F200021278D2B222F00402D2B21A7045F64103C4F2000345F64102C4F200021278D2B242F008022C
:404AC000D2B21A7045F6CF23C4F2000345F6CF22C4F200021278D2B222F01802D2B21A7045F6CF23C4F2000345F6CF22C4F200021278D2B242F01002D2B21A7080BD00BF70
:404B000080B400AF44F2A733C4F2000344F2A732C4F200021278D2B242F00202D2B21A7044F2B733C4F2000344F2B732C4F200021278D2B242F00202D2B21A70BD4680BC6F
:404B4000704700BF80B483B000AF0346FB7145F64103C4F2000345F64102C4F200021278D2B2D2B222F00302D1B2FA7902F00302D2B20A43D2B2D2B21A70FB79012B16D106
:404B800044F23263C4F2000340F21112C4F600121278D2B21A7044F23363C4F2000340F21512C4F600121278D2B21A7015E044F23263C4F2000340F2AF12C4F600121278B4
:404BC000D2B21A7044F23363C4F2000340F2B712C4F600121278D2B21A7007F10C07BD4680BC704780B500AF45F62003C4F200034FF014021A7045F62103C4F200034FF091
:404C000000021A7045F62103C4F2000345F62102C4F200021278D2B242F00402D2B21A7045F62103C4F2000345F62102C4F200021278D2B242F00202D2B21A704FF00000A7
:404C400000F026F800F0B2F880BD00BF80B400AF44F2A833C4F2000344F2A832C4F200021278D2B242F00102D2B21A7044F2B833C4F2000344F2B832C4F200021278D2B20A
:404C800042F00102D2B21A70BD4680BC704700BF80B483B000AF0346FB7145F62003C4F2000345F62002C4F200021278D2B222F00202D2B21A7045F62003C4F2000345F681
:404CC0002002C4F200021278D1B2FA7902F00202D2B20A43D2B21A7007F10C07BD4680BC704700BF80B582B000AF0346FB7145F62103C4F2000345F62102C4F20002127842
:404D0000D2B222F00402D2B21A7045F62103C4F2000345F62102C4F200021278D1B2FA7902F00402D2B20A43D2B21A7000F03EF807F10807BD4680BD80B582B000AF034678
:404D4000FB7145F62003C4F2000345F62002C4F200021278D2B222F00C02D2B21A7045F62003C4F2000345F62002C4F200021278D1B2FA7902F00C02D2B20A43D2B21A70D4
:404D800000F014F807F10807BD4680BD80B483B000AF0346FB714FF4B743C4F20003FA791A7007F10C07BD4680BC704780B483B000AF45F62003C4F200031B78DBB203F0B1
:404DC0000C034FEA5303FB7145F62103C4F200031B78DBB203F00403DBB2002B03D0FB7903F10103FB7144F20863C4F20003FA7902F1924202F590721278D2B21A7007F1F7
:404E00000C07BD4680BC704780B500AF00F002F880BD00BF80B582B000AF4FF00003FB7107E0FB791846FBF7B1FCFB7903F10103FB71FB79092BF4D907F10807BD4680BDEF
:404E400080B400AF44F2A233C4F2000344F2A232C4F200021278D2B242F00202D2B21A7044F2B233C4F2000344F2B232C4F200021278D2B242F00202D2B21A70BD4680BC40
:404E8000704700BF80B485B000AF0346FB7145F26013C4F200031B78DBB223F00103FB7345F26013C4F20003FA7902F00102D1B2FA7B0A43D2B21A7007F11407BD4680BC37
:404EC000704700BF80B485B000AF0346FB7145F26013C4F200031B78DBB223F04003FB7345F26013C4F20003FA794FEA8212D2B202F04002D1B2FA7B0A43D2B21A7007F182
:404F00001407BD4680BC704780B582B000AF4FF00003FB714FF00003BB714FF4C043C4F200031B78DBB203F00303012B02D0022B07D01EE046F20403C4F200031B78BB715F
:404F400018E046F20403C4F200031B78DBB203F07F0148F21C22C1F6FF720B464FEA43035B184FEA8303D31803F108039B78BB7100E000BF48F21023C1F6FF731A68BB79F8
:404F8000D3181B78022B04D0032B08D0012B08D004E0FCF79FF80346FB7103E002E000BF00E000BFFB79184607F10807BD4680BD80B584B000AF7860FEF7D6FA4FF04000D5
:404FC000FEF7B6FA4FF00003FB730AE0FB7B7A68D3181B781846FEF78FFAFB7B03F10103FB73FB7B3F2BF1D9FEF7BEFA4FF08000FEF79EFA07F11007BD4680BD38B50E4DAA
:405000000E4B0024E81A8510AC4205D00B4951F8242090470134F7E701F00AF80849094A541AA5100024AC4205D0054B53F8240080470134F7E738BD3C6000003C60000067
:405040003C6000004460000010B50023934203D0CC5CC4540133F9E710BD82180346934202D003F8011BFAE7704700000EB430B59CB01FAC4FF4017254F8045BADF814200E
:405080000290069000F01EF80B4A039007900B4800214FF6FF730B900F911491ADF81630106802A92A462346019400F06DF81CB0BDE8304003B070479C81FF1FC1500000D0
:4050C00000207047034613F8012B002AFBD1181A0138704738B54B1C144602D14FF0FF3533E09389CDB2616B23F02002A28179B16268A16B8A4205DA2068431E236000F86C
:40510000015C10E0214600F0A7F90028F4D0E5E7206958B12368834208D913F8012CAA4204D1013B23606268501C0DE0616820682164214604F14403032201F8465FE06356
:405140006363A263216001206060284638BD10B50C46496B69B104F14403994201D000F011FB216C00206063616011B1E26B226010BDA3892069002243F0200120606260DA
:40518000A1814FF0FF3010BD2DE9F041ADF5247D07460C469046019300F0F2FA9649974A002303A8469347934890A291A39298F80050002D00F04781914E33685819417839
:4051C00001F00802D3B2FBB16668002E12DD8C4A206811680378CE18757805F00803DAB272B1479965684E1C6B1E0130479663602060E9E738462146A39DA8470028E6D011
:4052000008F10106B046D2E7252D08F101065DD14593439398F801502A2D03D11026439608F1020630783346A0F130010136092906D8459D0A2101FB050030384590F1E728
:40524000682804D1439A42F00103439333461D786C2D04D1439E013346F00200439019784C2904D1439A013342F0040543951E4616F8015B692D56D016D8642D4ED00FD837
:405280005B2D56D004D8002D7BD0252D7CD11DE0632D79D1439840F040014391002052E0672D71D805204EE0702D2DD006D86E2D4BD06F2D68D10821449138E0752D2DD01C
:4052C000782D25D0732D5FD102203CE06368002B0DDD21680878A84240F0B58065684A1C47996B1E481C6360226047908AE738462146A39A90470028EBD000F042FA46985B
:40530000002840F098809BE0439941F020034393439840F400724392102200E00A226E2D449204DC01E00021449103200BE0042009E0314603A800F0F5FA439A064642F049
:40534000400343930120499022E0439DE8063FF559AFE90706D50198479D021D019201680D804FE7019B15F0020F03F10402019203D01D68479B2B6044E7479819680860F1
:4053800040E700F0FEF95BE003230A20499344906368002B03DD4398420611D51BE038462146A39A90470028F5D0A6E747986168421C481E00284792606016DD5A1C22603F
:4053C0000F49236808681A788218517801F00800C2B2002AEAD1499B022B13DC384643A9224601AB00F074F81FE038462146A39B98470028E4D080E7D55000004F51000030
:40540000A081FF1F042B06DC384643A9224601AB00F0C4F809E00F4900293FF4F3AE384643A9224601ABAFF3008001280BD002287FF4E8AE61E7A38903F0400211B229B197
:405440004FF0FF3002E000F09CF946980DF5247DBDE8F081000000002DE9F0410C46496B04F1440399421CD14FF4806100F0CEF918B94FF0FF30BDE8F08194F846204FF40A
:4054800080616063A16380F8FF2394F8453080F8FE3394F8441080F8FD1300F2FD30206012E0A66B77003A4600F008FA05460028DFD000EB0608404629463246FFF7C4FDCE
:4054C000C4F800806563A7630020BDE8F08100002DE9F04115468A6880460C4632B98869002814BF4FF0FF310121A1602668F20603D41F683A1D1A603F680026A369DBB931
:4055000023680136DB0603D42868027807F8012B696828684B1EA168421C481E6B602A60A06028B3002BE9DCD4F880314046294698470028E2D01BE0012B07D1296862697F
:405540000878115C0029DBD116B311E0022B01D066B10DE028681049027808688218517801F00800C2B2002ACAD0F1E7012B0FD0226812F0100105D1E068A269431CE360FB
:4055800002B13970216900208E192661BDE8F0811846BDE8F08100BFA081FF1F2DE9F04F1F46734B0C4687B006AE8146154693E80700A36806E90700A0696E4A6E495E1EE1
:4055C000032808BF1146B6F5AE7F019107D96FF4AE7040F25D1203EB000AA26001E04FF0000A216804F11C0641F450632360B3464FF00008296803A850F828000978022236
:4056000000F04EF9002832D0B8F1010F0BD163682BB92168082241F4007062602060236823F4A0600CE0B8F1020F0AD1236803F4C062B2F5007F1AD11021616043F480703A
:405640002060A1684A1EA26089B1286810F8013B0BF8013B696828604A1E002A6A6006DCD4F88031484629469847002841D108F10108B8F1030FBDD1606808B90A21616000
:4056800062683E4B6069991A00F04CF94FF00008A368002B2FD02A6860691178405C50B330290CD12168090509D508F10108BAF1000F0BD0591C0AF1FF3AA16006E023688A
:4056C00023F41060206012780BF8012B6B68581E0028686003DD29684B1C2B6005E0D4F8802148462946904728B9A068421EA260CEE74FF000082168C8050DD5B34509D9CF
:405700001BF8011CD4F87C3148462A4698470BF1FF3AD346B34526D0206810F0100219D18BF80020636848463146019DA84722683B6812F0200F06D1D10704D5191D39606E
:405740001A68108003E0191D39601B681860E068421CE2602169C6EB0B06B04401EB08032361002000E0012007B0BDE8F08F00BFA85E000085590000915A0000C45E00001B
:405780007047704730B500293CD051F8042C0B1F1D49002AB8BF9B180A6812B95A600B6030BD93420ED219685818904203D15A5889184268196014485A60036030BD9942B2
:4057C00003D80A4651680029F9D1146815199D420AD118682318D0188842136012D108681B1813604B680CE002D90C23036030BD18681C188C4203D10C6849680019186090
:405800005960536030BD00BFE081FF1F70B5CD1C25F0030508350C2D38BF0C25002D06462DDB8D422BD31D4B1B681C469CB12268501B0DD40B2802D92060241817E0A342A4
:4058400003D16068154A10601DE0616859601AE023466468EAE72946304600F053F8431C01460CD0CC1C24F003048C4201D1256009E03046611A00F045F80130F7D10C2048
:405880003060002070BD04F10B01231D21F00700C31A02D05A42E25070BD70BDE081FF1F10B5C9B2034682189342184604D0047801338C42F8D100E0002010BDF8B5064625
:4058C00015460C4621B91146BDE8F840FFF79EBF1AB9FFF757FF2C4612E000F057F9A8420ED230462946FFF791FF074638B121462A46FFF7A9FB30462146FFF743FF3C4664
:405900002046F8BD38B5064C002305460846236000F046F9431C02D1216801B1296038BDF082FF1FF0B50B785E2B02D00131002402E04B7801240231002284540132B2F57A
:40594000807FFAD10BB94A1E1AE0C4F10107FEB2C6540A46114611F8014B2D2C04D05D2C0DD06CB12346F2E755785D2DFAD09D42F8DB02320133AB42C654FBDBEAE70A4689
:405980001046F0BD2DE9F74F01904048D0F800900846044614F8015B09EB05067778204607F00806F7B2002FF3D12D2D03D114F8015B012704E02B2D04BF244614F8015B93
:4059C000002B5CD0102B07D1302D05D12578782D4ED1657810230234002F0CBF6FF000404FF00040B0FBF3FA002603FB1A08304609EB050C9CF801C00CF0040B5FFA8BFBB3
:405A0000BBF1000F01D0303D0BE01CF0030C1BD0BCF1010F14BF4FF0570C4FF0370CCCEB05059D4210DAB6F1FF3F0AD0504506D801D1454503DC03FB0050012601E04FF03C
:405A4000FF3614F8015BD3E7731C0AD1002F01990CBF6FF000404FF0004022230B6022B911E007B1404272B106B1611E11600AE0582DAED03025002BAED10823ACE7302D2C
:405A8000A4D00A23A8E7BDE8FE8F00BFA081FF1F2DE9F74F01903C48D0F800900846044614F8015B09EB05067778204607F00806F7B2002FF3D12D2D03D114F8015B01270A
:405AC00004E02B2D04BF244614F8015B002B55D0102B07D1302D05D12578782D47D16578102302344FF0FF3ABAFBF3FA03FB0AF000266FEA0008304609EB050C9CF801C036
:405B00000CF0040B5FFA8BFBBBF1000F01D0303D0BE01CF0030C1BD0BCF1010F14BF4FF0570C4FF0370CCCEB05059D4210DAB6F1FF3F0AD0504506D801D1454503DC03FBE8
:405B40000050012601E04FF0FF3614F8015BD3E7731C05D1019922230B60304622B911E007B1404272B106B1611E11600AE0582DB5D03025002BB5D10823B3E7302DABD0AB
:405B80000A23AFE7BDE8FE8FA081FF1F51F8040C002802DA04390B58C018043870470000094A13686BB118186946884202D8106018467047054B0C221A604FF0FF33184630
:405BC0007047034B1360EEE7E481FF1FF082FF1FF882FF1F000000004C4544343A2000004C4544333A2000002568687500000000000000005C5100405C5100405C510040B7
:405C00005C5100405C5100405C5100405C5100406C510040CB5A0040835A0040204001020408101001100000005100402000305100402000C051004010000000014000104D
:405C400000140140000800400140000A004C014000020050014020000D0A000030313233343536373839414243444546000000002D5000402E500040285000402950004057
:405C80002A5000402B5000402C50004005050505050505002040010204081000065200400E520040165200401E520040265200402E520040365200407E520040010200002E
:405CC000000000000200010005010100C03F00001201000202000008B40432F2010001028001000009024300020101C0320904000001020201030524001001042402020556
:405D00002406000105240100010705810308000A09040100020A0000040705820240000A0705030240000A00040309042C0343007900700072006500730073002000530079
:405D400065006D00690063006F006E0064007500630074006F007200100355005300420055004100520054003803430044004300200043006F006D006D0075006E006900E1
:405D800063006100740069006F006E00200049006E007400650072006600610063006500260343004400430020004400610074006100200049006E0074006500720066009F
:405DC00061006300650000000203000000008103080002000100820240000A000100030240000A00020A000001000000E45C000003000000CC5D000000000000000000004F
:405E0000000000000000000000000000E45D000001000000D05C000001000000E85D000001000000105E000012034D00530046005400310030003000010000002800000036
:405E40000001040001000000000000000001435955534200000030303030310000000000000000000000000000000000101010101010101018181818181818181C1C1C1CF4
:405E80001C1C1C1C1E1E1E1E1E1E1E1E1F1F1F1F1F1F1F1F0000000000000000000000000000000043000000C65E0000C95E0000CC5E0000412D46612D66383930313233F3
:405EC000343536375D002B2D003030007858000020202020202020202028282828282020202020202020202020202020202020208810101010101010101010101010101047
:405F00000404040404040404040410101010101010414141414141010101010101010101010101010101010101010110101010101042424242424202020202020202020231
:405F400002020202020202020202021010101020000000000000000000000000000000000000000000000000000000000000000000000000000000000000000000000000AB
:405F800000000000000000000000000000000000000000000000000000000000000000000000000000000000000000000000000000000000000000000000000000000000E1
:405FC00000000000000000000000000000000000000000000000000000000000000000000000000000000000000000000000000000000000000000000000000000000000A1
:40600000000000000000000000000000000000000000000000000000000000000000000000000000000000000000000000000000F8B500BFF8BC08BC9E4670475100000090
:406040004D040000F8B500BFF8BC08BC9E4670472D000000686000000881FF1FA000000050010000000000000000000000366E01C05D0000180000000000E02E7F0000005C
:4060800037372828282828022850500014282800000505000103030000000000D05F0000F05F00001060000000000000000000000000000000000000A45E0000000000007B
:4060C0000000000000000000000000000000000000000000000000000000000000000000000000000000000000000000000000000000000000000000000000003881FF1FC9
:40610000CF5E000000000000000000000000000000000000000000000000000000000000000000000000000000000000000000000000000000000000000000000000000032
:40614000000000000000000000000000000000000000000000000000000000000000000000000000000000000000000000000000000000000000000000000000000000001F
:4061800000000000000000000000000000000000000000000000000000000000000000000000000000000000000000000000000000000000000000000000000000000000DF
:4061C000000000000000000000000000000000000000000000000000000000000000000000000000000000000000000000000000000000000000000000000000000000009F
:40620000000000000000000000000000000000000000000000000000000000000000000000000000000000000000000000000000000000000000000000000000000000005E
:020000040003F7
:0200000480007A
:4000000001450040035200400864004001010140010301400105014001070140010901403F0A0140280B0140540C01403D0D01403F0E0140280F01400117014001190140B2
:4000400006400140054101400542014005430140054401400845014007460140064701400348014003490140014C014003500140015101407E022E7F31047C400AFF0DFF2C
:400080000EFF1DFF1EFF2DFF2EFF8D1FE280E602EA04E202E202406245454702481349FF4AFF4BFF4C024D204F05511056085A045B0F5D115F0160406140628064806680F9
:4000C0008004830487018C0294049A039F07B102B202B304B404B601B701B820C010C106C501C620C750C829C9FFCAFFCBFFCDA0CF04D018D280D804D904DA04DB04DC0174
:40010000DF01E040E2C0E440E540E6C0E8C0EAC0ECC0EEC005420E281D481E08240127A037403D023F0840044780480849024A104F285008550157105A4062407740780199
:400140008C018E40900498019E409F20A508A604AB08C090C260CC10CEC0D014D224D608D808DE01010103020F02170135033F1040034102460A49FF4AFF4BFF4C024EF009
:4001800059045A045D015F01624863A168F06AF06CF06EF08027812A821083018424876089558A038C048E20911F922093809424960B98249E04A003A604A802AA08AB7F0D
:4001C000AC09AD78B004B118B220B301B418B506B603B7E0BE50BF55C032C106C660C726C838D602D804D904DA04DB04DC01DD11DE08DF01E10CE2F0E30CE50CE70CE840C4
:40020000E94CEA40EB4CEC90ED58EF0C00200102032208010A190B40102A1240180119031A141B04204A210427082A402B0431013604382A39013F8141044204452848043C
:40024000501B5206574073407A208640900C9209930194419501961097409D039E049F20A030A120A220A322A409A602A704B320C00FC20FC40FCA0CCC41CE97D066D204AB
:40028000DE02E008E6020007010402080302045F06A00702080409010B020C0E0E010F0410011301140916061701180F19071CB01E402002210324E02504261028202902FF
:4002C0002A802B012D032E40300F33033430350436C0401541044502470648115217580459045A045B045C115D115F01610C62F0630C650C670C6840694C6A406B4C6C9015
:400300006D586F0C0102020403220A190B4010101151122018021A011B222004212022242310281029012B06300832023320380239443B10404148115004682069547301A2
:400340008A04C00FC20FC40FCA0FCC07CE0FD009D208E280EE02EE0231083320340236408B20CCF084029C02A508A640E640A340A508A640AB40EA208508A340A508A64014
:40038000E2403A2050085202CE08D4051308848086209E20A408B202C408EC048C088F089B089C80A408E408E60208800B400C0884089C80C20EA340AE40EE407B40A34061
:4003C000DE40AF4000030C030E0200AB0000000000000000C0000000007F7F000000000000007F0000000000004D4D000C0010000000000000000000000000000000000030
:4004000000000000000000000000000000000000000000000000000000000000000000000000000000000000000000000000000000000000000000000000000000000000BC
:40044000000000000000000000000000000000000000000000000000000000000000000000000000000000000000000000000000000000000000000000000000000000007C
:40048000000000000000000000000000000000000000000000000000000000000000000000000000000000000000000000000000000000000000000000000000000000003C
:4004C00000000000000000000000000000000000000000000000000000000000000000000000000000000000000000000000000000000000000000000000000000000000FC
:0200000490006A
:0400000000004005B7
:0200000490105A
:04000000BC90ACAF55
:0200000490303A
:02000000A3EA71
:0200000490402A
:4000000000000000000000000000000000000000000000000000000000000000000000000000000000000000000000000000000000000000000000000000000000000000C0
:400040000000000000000000000000000000000000000000000000000000000000000000000000000000000000000000000000000000000000000000000000000000000080
:400080000000000000000000000000000000000000000000000000000000000000000000000000000000000000000000000000000000000000000000000000000000000040
:4000C0000000000000000000000000000000000000000000000000000000000000000000000000000000000000000000000000000000000000000000000000000000000000
:0200000490501A
:0C00000000012E12306900012E3DD45387
:00000001FF