:400000000080002011000000A1020000A102000080B500AF47F2BC63C4F2000344F2FA62C4F2000212681A6000F03EF910B5054C237833B9044810B10448AFF30080012135
:40004000217010BD8881FF1F00000000BC45000008B5064B1BB106480649AFF300800648016811B1054A02B1904708BD00000000BC4500008C81FF1F0881FF1F0000000077
:4000800080B582B000AF0346FB714FF0010003F04BF94FF000004FF0000103F0CDF844F2C050C0F2000003F003F9FB799BB2184603F0FAFA07F10807BD4680BD80B582B02C
:4000C00000AF0346FB7100BF00F0F4FF0346002BFAD0FB79184600F09BFF07F10807BD4680BD00BF80B596B000AF4FF0000387F8573044F2D053C0F200031B687B604FF03D
:40010000000387F856304FF00003FB7062B64FF000004FF0000100F045FB03F077F803F045FBFB78184603F0C3FBFB781846FFF7A7FF00E000BF97F85730002B0BD100F013
:400140004FFD0346002BF5D000F04EFF4FF0010387F85730EEE700F093FF0346002BE9D007F10803184600F0BFFF0346A7F84A304FF000033B658CE007F108023B6DD3189C
:400180001B782F2B25D907F108023B6DD3181B78392B1ED897F85630022B1AD897F8563007F108013A6D8A18127807F15801CB1803F8542C97F8563003F1010387F85630F4
:4001C00007F108023B6DD3181B781846FFF776FF5BE007F108023B6DD3181B787F2B17D197F85630002B13D097F8563003F1FF3387F8563097F8563007F15802D3184FF025
:40020000000203F8542C4FF07F00FFF757FF3CE007F108023B6DD3181B780D2B35D197F85630002B31D007F1040207F10303104644F2C851C0F200011A4603F00BFCFB7853
:40024000184603F035FBFB781846FFF719FF00BF00F030FF0346002BFAD000F0F3FE4FF00003FB640AE007F10402FB6CD3184FF000021A70FB6C03F10103FB64FB6C022B29
:40028000F1DD4FF0000387F856303B6D03F101033B65B7F84A203B6D9A423FF76DAF49E780B400AFFEE700BF80B586B000AF40F20103C0F200037B6144F6A013C0F20003C0
:4002C0003B6140F20103C0F200037B6144F6A013C0F200033B613BE03B691B68FB603B695B68BB603B699B683B604FF000037B600FE0FB681A68BB681A60BB6803F1040350
:40030000BB60FB6803F10403FB607B6803F104037B607A683B689A42EBD13B69DB683B604FF000037B600BE0BB684FF000021A60BB6803F10403BB607B6803F104037B60B9
:400340007A683B689A42EFD13B6903F110033B617B69002B0CBF00230123DBB27A6902F1FF327A61002BB7D103F03CFBFFF7BAFEFEE700BF80B582B000AF4EF60C53CEF2DD
:4003800000034FF48062C0F2FA521A604EF61453CEF200034EF61452CEF20002126842F400721A604FF000037B6019E07B68032B07D840F20003C0F200037A6853F82230B8
:4003C00003E040F2A123C0F2000348F20002C1F6FF72796842F821307B6803F101037B607B682F2BE2D947F2BC63C4F200031B78DAB248F20413C1F6FF731A704EF608531E
:40040000CEF2000348F20002C1F6FF721A6000F001F948F20013C1F6FF734FF000021A6007F10807BD4680BD80B582B000AF7860396078684FF000013A6803F002FB07F188
:400440000807BD4680BD00BF80B584B000AFF860B9607A60F868B9687A6803F0E9FA07F11007BD4680BD00BF80B487B000AF786039604FF000033B614FF000037B612CE031
:400480007B694FEA83037A68D3181B68BB60BB68FB73BB6823F0FF03BB6017E03B694FEA43033A68D3181B781A46BB68D3183A694FEA420239688A1852781A703B6903F153
:4004C00001033B61FB7B03F1FF33FB73FB7B002BE4D17B6903F101037B617B69112BCFD907F11C07BD4680BC704700BF80B400AF4FF48143C4F200034FF001021A8044F2F7
:400500008203C4F200034FF019021A704FF48643C4F200034FF006021A704FF48443C4F200034FF052021A7044F2A163C4F2000340F20F12C4F600121278D2B21A7044F243
:400540000403C4F200034FF000021A8044F20403C4F200034FF007021A7044F20603C4F200034FF000021A7044F20803C4F200034FF048021A7044F20403C4F200034FF013
:4005800000021A7044F20903C4F200034FF000021A7044F20103C4F200034FF002021A7044F2A233C4F2000344F2A232C4F200021278D2B242F00102D2B21A70BD4680BC13
:4005C000704700BF80B483B000AF40F2CF13C4F600131B78FB7145F66E03C4F20003FA7902F00702D2B21A7045F66F03C4F20003FA794FEA1212D2B21A7045F67603C4F200
:4006000000034FF044021A7007F10C07BD4680BC704700BF80B582B000AF72B644F2E863C4F2000344F2E862C4F200021278D2B242F00402D2B21A704FF00003FB7119E03D
:40064000FA7913464FEA43039B184FEA430344F2D452C0F200029B183B603B681A683B689B889BB210461946FFF7DEFEFB7903F10103FB71FB79072BE2D94FF090404FF059
:400680004801C4F60001FFF7EFFE45F20303C4F2010345F20302C4F201021278D2B242F00202D2B21A7045F21303C4F2010345F21302C4F201021278D2B242F00202D2B241
:4006C0001A7044F2A033C4F2000344F2A032C4F200021278D2B242F04002D2B21A7044F2C233C4F2000344F2C232C4F200021278D2B242F01002D2B21A7045F2F010C4F24B
:4007000000004FF0E401C4F600014FF00A02FFF79BFE45F22210C4F200004FF0F001C4F600014FF00802FFF78FFE45F26210C4F200004FF0F801C4F600014FF00802FFF799
:4007400083FE44F22233C4F2000344F22232C4F200021278D2B242F00802D2B21A704FF49043C4F200034FF001021A70FFF7BEFE4FF49043C4F200034FF081021A70FFF7BC
:4007800021FF44F2B030C4F2000044F2A031C4F200014FF00E02FFF757FE07F10807BD4680BD00BF80B582B000AF02460B46FA71BB7148F2A413C1F6FF731B78002B08D1F8
:4007C00000F012F848F2A413C1F6FF734FF001021A70FA79BB791046194600F021F907F10807BD4680BD00BF80B582B000AF02F00DFC0346FB7144F2A533C4F2000344F2EA
:40080000A532C4F200021278D2B242F00102D2B21A7044F2B533C4F2000344F2B532C4F200021278D2B242F00102D2B21A7046F29D03C4F200034FF001021A7046F209033A
:40084000C4F200034FF002021A7046F21003C4F2000346F21002C4F200021278D2B202F07F02D2B21A704FF0000002F009FC44F29433C4F2000344F29432C4F20002127833
:40088000D2B222F00602D2B21A7046F21203C4F2000346F21202C4F200021278D2B222F02002D2B21A7044F29433C4F2000344F29432C4F200021278D2B242F00102D2B201
:4008C0001A704FF0010002F0DBFB4FF0280002F0D7FB45F2F813C4F2000345F2F812C4F200021278D2B202F07F02D2B21A7045F2F813C4F2000345F2F812C4F2000212783A
:40090000D2B222F04002D2B21A7044F29433C4F2000344F29432C4F200021278D2B242F00202D2B21A704FF0020002F0A9FB44F29433C4F2000344F29432C4F2000212784A
:40094000D2B242F00402D2B21A7046F28403C4F200034FF000021A7046F28503C4F200034FF000021A70FB79184602F053FB4FF0170041F6BD21C0F2000102F095FB4FF035
:4009800017004FF0070102F0BFFB4FF0150041F6B121C0F2000102F087FB4FF015004FF0070102F0B1FB4FF0180041F23D11C0F2000102F079FB4FF018004FF0070102F0EF
:4009C000A3FB4FF0000041F64D11C0F2000102F06BFB4FF000004FF0070102F095FB4FF0010041F6C111C0F2000102F05DFB4FF001004FF0070102F087FB4FF0020041F6B9
:400A00003521C0F2000102F04FFB4FF002004FF0070102F079FB07F10807BD4680BD00BF80B582B000AF02460B46FA71BB714FF46143CEF200034FF400021A604FF46143E7
:400A4000CEF200034FF080721A604FF46143CEF200034FF001021A604FF46143CEF200034FF002021A604FF46143CEF200034FF004021A6048F2CE13C1F6FF734FF000024D
:400A80001A70BB79002B02D0012B08D00FE046F20903C4F200034FF002021A700FE046F20903C4F200034FF003021A7007E046F20903C4F200034FF002021A7000BF48F25A
:400AC000C913C1F6FF73FA791A7048F2E713C1F6FF734FF000021A7048F2DC13C1F6FF734FF000021A7048F2E413C1F6FF734FF000021A7048F2E613C1F6FF734FF00002ED
:400B00001A7048F2E913C1F6FF734FF000021A7048F2C813C1F6FF734FF000021A7046F22803C4F200034FF003021A7046F20803C4F200034FF080021A704FF0010002F095
:400B40005BFA46F21203C4F200034FF004021A7007F10807BD4680BD80B400AF48F2CE13C1F6FF734FF000021A7048F2E713C1F6FF734FF000021A7048F2DC13C1F6FF7398
:400B80004FF000021A7048F2E413C1F6FF734FF000021A7048F2E613C1F6FF734FF000021A7048F2E913C1F6FF734FF000021A7048F2C813C1F6FF734FF000021A7046F2B3
:400BC0002803C4F200034FF003021A7046F20803C4F200034FF080021A70BD4680BC704780B400AF48F2E713C1F6FF731B78DBB21846BD4680BC704780B485B000AF0346F1
:400C0000FB714FF00003FB81FB79002B27D0FB79082B24D8FB7903F1FF33DBB24FEA03137B737A7B46F20C03C4F20003D3181B78DBB203F00F03FB81FB894FEA03239AB23D
:400C4000797B46F20D03C4F20003CB181B78DBB213439BB2FB81FB89A3F10203FB81FB89184607F11407BD4680BC704790B484B000AF396013460246FA71BB80FB79002B33
:400C800000F09680FB79082B00F29280FB7903F1FF33DBB24FEA03137B737A7B46F28803C4F20003D318BB60B888F97948F2EC12C1F6FF720B464FEA43035B184FEA830394
:400CC000D318DB889BB2C3F50073984210D9F97948F2EC12C1F6FF720B464FEA43035B184FEA8303D318DB889BB2C3F50073BB807A7B46F20C03C4F20003D3181846BB8815
:400D00004FEA13239BB2DCB2F97948F2EC12C1F6FF720B464FEA43035B184FEA8303D318DB78DBB22343DBB203707A7B46F20D03C4F20003D318BA88D2B21A703B68002B65
:400D400011D04FF00003FB8109E0FB893A68D3181A78BB681A70FB8903F10103FB81FA89BB889A42F1D3F97948F2EC12C1F6FF720B464FEA43035B184FEA8303D3184FF03F
:400D800000025A707A7B46F20E03C4F20003D3181846F97948F2EC12C1F6FF720B464FEA43035B184FEA8303D3185B79DBB2037007F11007BD4690BC704700BF80B586B055
:400DC00000AF396013460246FA71BB80FB79002B37D0FB79082B34D83B68002B31D0FB7903F1FF33DBB24FEA03137B757A7D46F28803C4F20003D3183B61FB791846FFF714
:400E0000FBFE0346FB81BA88FB899A4201D9FB89BB804FF00003FB820AE0FB8A3A68D3183A691278D2B21A70FB8A03F10103FB82FA8ABB889A42F0D3FB79184600F00AF89F
:400E400002E04FF00003BB80BB88184607F11807BD4680BD80B485B000AF0346FB71FB79002B2ED0FB79082B2BD8FB7903F1FF33DBB24FEA0313FB73F97948F2EC12C1F6C2
:400E8000FF720B464FEA43035B184FEA8303D3184FF000025A70FA7B46F20E03C4F20003D3181846F97948F2EC12C1F6FF720B464FEA43035B184FEA8303D3185B79DBB2E9
:400EC000037007F11407BD4680BC704780B582B000AF4FF00003FB714FF4C043C4F200031B78DBB2DBB25BB2002B1EDA46F20103C4F200031B78DBB2212B15D148F2D01372
:400F0000C1F6FF734FF007021A8048F2D013C1F6FF7348F2C012C1F6FF725A6000F0F6FA0346FB7100BF58E057E04FF4C043C4F200031B78DBB2DBB25BB2002B4DDB46F26B
:400F40000103C4F200031B78DBB2202B02D0222B23D041E048F2D013C1F6FF734FF007021A8048F2D013C1F6FF7348F2C012C1F6FF725A6048F2BC13C1F6FF731B78DBB268
:400F800043F00103DAB248F2BC13C1F6FF731A7000F060FB0346FB711FE046F20203C4F200031B78DBB21A4648F2BA13C1F6FF731A8048F2BC13C1F6FF731B78DBB243F0EE
:400FC0000203DAB248F2BC13C1F6FF731A7000F017FC0346FB7100E000BFFB79184607F10807BD4680BD00BF80B500AF48F2BC13C1F6FF734FF000021A7048F2B813C1F6D8
:40100000FF731B78DBB21846FFF724FF80BD00BF80B584B000AF0346FB71FB79FB7348F2B913C1F6FF731B78DAB207F10F03104619464FF00102FFF719FE07F11007BD468E
:4010400080BD00BF80B582B000AF44F20463C0F2000307F104021B88138048F2B913C1F6FF731B78DAB207F10403104619464FF00202FFF7FBFD07F10807BD4680BD00BF9F
:4010800080B400AF48F2B813C1F6FF731B78DBB2194648F2EC12C1F6FF720B464FEA43035B184FEA8303D3185B78DBB21846BD4680BC704780B400AF48F2B913C1F6FF738D
:4010C0001B78DBB2194648F2EC12C1F6FF720B464FEA43035B184FEA8303D3185B78DBB21846BD4680BC704780B582B000AF786048F2B813C1F6FF731B78D8B248F2B81332
:40110000C1F6FF731B78DBB2194648F2EC12C1F6FF720B464FEA43035B184FEA8303D31803F108031B889BB279681A46FFF746FE0346184607F10807BD4680BD80B582B0FB
:4011400000AF46F22803C4F200031B78BB71BB7903F01003002B00F08C804FF00103FB71BB795BB2002B18DABB7903F00F03012B03D04FF00003FB7122E000F07FF848F2EE
:40118000E513C1F6FF731B78DBB2DBB25BB2002B16DA4FF00003FB7112E0BB7903F04003002B02D000F0BEF80AE0BB7903F02003002B02D000F0DEF802E04FF00003FB7105
:4011C000FB79002B55D046F22803C4F200031B78BB71BB795BB2002B4BDB48F25A23C1F6FF731B78DAB248F2E813C1F6FF731B78DBB21343BB7146F22903C4F20003BA796F
:401200001A7046F22903C4F200031B78DBB2BA799A422ED148F2E513C1F6FF731B78FB7146F22803C4F200031B78DBB223F07F03BB71BB79002B13D146F22803C4F2000323
:4012400048F2E512C1F6FF721278D2B21A7046F22803C4F200031B78DBB203F00F03FB7148F2E513C1F6FF731B78DBB2FA799A42D0D107F10807BD4680BD00BF80B582B0F8
:4012800000AF46F22803C4F200031B78FB7146F22803C4F20003FA791A7046F22803C4F200031B78FB71FB795BB2002B06DA48F2E513C1F6FF73FA791A702EE04FF00200FD
:4012C00000F0F4FA4FF4C043C4F200031B78DBB203F06003202B08D0402B0BD0002B0ED100F0F2FB0346FB710DE002F001FB0346FB7108E001F048FE0346FB7103E04FF010
:401300000003FB7100BFFB79002B06D148F2E513C1F6FF734FF003021A7007F10807BD4680BD00BF80B500AF48F2CE13C1F6FF731B78DBB2062B1AD801A252F823F000BFB0
:401340006F1300006F1300005D1300006F130000631300006F1300006913000000F04AF906E000F037FA03E000F06EFA00E000BF80BD00BF80B500AF48F2CE13C1F6FF73CB
:401380001B78DBB2062B23D801A252F823F000BFD1130000D1130000AD130000D1130000B3130000D1130000B913000000F028F90FE000F091F90CE04FF0030000F076FA38
:4013C00048F2E513C1F6FF734FF003021A7000E000BF80BD80B483B000AF4FF00003FB7148F2C813C1F6FF731B78DBB21A4648F2CA13C1F6FF731B889BB2D3189AB248F2C5
:40140000CA13C1F6FF731A802BE0FB7903F1804303F5C0431A4648F2D013C1F6FF735B681B78DBB2137048F2D013C1F6FF735B6803F1010248F2D013C1F6FF735A60FB795B
:4014400003F10103FB7148F2D013C1F6FF731B889BB203F1FF339AB248F2D013C1F6FF731A8048F2D013C1F6FF731B889BB2002B02D0FB79072BC8D948F2C813C1F6FF73C8
:401480001B78DBB2082B02D0FB79002B1ED048F25A23C1F6FF731B78DBB283F07F036FEA0303DAB248F25A23C1F6FF731A7048F2E513C1F6FF734FF00F021A7048F2CE13E0
:4014C000C1F6FF734FF002021A700DE048F2E513C1F6FF734FF002021A7048F2CE13C1F6FF734FF002021A7048F2C813C1F6FF73FA791A7048F2E813C1F6FF73FA791A703A
:4015000007F10C07BD4680BC704700BF80B582B000AF48F2D013C1F6FF731B889BB2002B02D100F03BF832E048F2CE13C1F6FF734FF002021A7048F25A23C1F6FF734FF03C
:4015400000021A7000F0DEF946F20703C4F200031B78DBB24FEA03239AB246F20603C4F200031B78DBB213439BB2FB8048F2D013C1F6FF731B889BB2FA889A4205D248F275
:40158000D013C1F6FF73FA881A80FFF723FF4FF00103184607F10807BD4680BD80B400AF48F2CE13C1F6FF734FF002021A7048F25A23C1F6FF734FF080021A7048F2E513B2
:4015C000C1F6FF734FF00F021A7048F2C813C1F6FF734FF000021A7048F2E813C1F6FF734FF000021A704FF001031846BD4680BC704700BF80B500AFFFF7ECFE80BD00BFA0
:4016000080B500AF48F2C813C1F6FF731B78DBB21A4648F2CA13C1F6FF731B889BB2D3189AB248F2CA13C1F6FF731A8048F2CE13C1F6FF734FF000021A704FF0010000F088
:4016400035F948F2E513C1F6FF734FF003021A7080BD00BF80B582B000AF48F2CE13C1F6FF734FF004021A7048F25A23C1F6FF734FF080021A7000F045F946F20703C4F29D
:4016800000031B78DBB24FEA03239AB246F20603C4F200031B78DBB213439BB2FB8048F2D013C1F6FF731B889BB2FA889A4205D248F2D013C1F6FF73FA881A8048F2E51325
:4016C000C1F6FF734FF00B021A704FF00103184607F10807BD4680BD80B483B000AF4FF00003BB7146F22903C4F200031B78DBB203F00F03DBB2A3F10203FB71FB799AB2EB
:4017000048F2CA13C1F6FF731B889BB2D3189AB248F2CA13C1F6FF731A802EE048F2D013C1F6FF735A68BB7903F1804303F5C0431B78DBB2137048F2D013C1F6FF735B68C0
:4017400003F1010248F2D013C1F6FF735A60BB7903F10103BB71FB7903F1FF33FB7148F2D013C1F6FF731B889BB203F1FF339AB248F2D013C1F6FF731A8048F2D013C1F6B8
:40178000FF731B889BB2002B02D0FB79002BC5D148F2E813C1F6FF73FA791A7048F25A23C1F6FF731B78DBB283F07F036FEA0303DAB248F25A23C1F6FF731A7048F2E513BE
:4017C000C1F6FF734FF00B021A7007F10C07BD4680BC704780B500AF48F2CE13C1F6FF734FF000021A704FF0010000F05FF848F2E513C1F6FF734FF003021A7080BD00BF4A
:4018000080B400AF48F2CE13C1F6FF734FF006021A7048F2E513C1F6FF734FF006021A7048F25A23C1F6FF734FF080021A7048F2E813C1F6FF734FF000021A704FF00103ED
:401840001846BD4680BC704780B500AF48F2E613C1F6FF731B78DBB2002B14D046F20803C4F2000348F2E612C1F6FF721278D2B262F07F02D2B21A7048F2E613C1F6FF7304
:401880004FF000021A7048F2CE13C1F6FF734FF000021A704FF0010000F008F848F2E513C1F6FF734FF003021A7080BD80B483B000AF0346FB7148F2D013C1F6FF739B68A4
:4018C000002B19D048F2D013C1F6FF739B68FA791A7048F2D013C1F6FF739A6848F2CA13C1F6FF731B889BB2538048F2D013C1F6FF734FF000029A6007F10C07BD4680BC78
:40190000704700BF80B400AF48F2CA13C1F6FF734FF000021A8048F2D013C1F6FF739B68002B0FD048F2D013C1F6FF739B684FF000021A7048F2D013C1F6FF739B684FF044
:4019400000025A80BD4680BC704700BF80B400AF46F20E03C4F200031B7848F2EC13C1F6FF731B7BDBB203F00303012B0FD048F2EC13C1F6FF73DB7BDBB283F07F036FEA42
:401980000303DAB248F2EC13C1F6FF73DA7348F2EC13C1F6FF734FF001025A7346F20B03C4F2000346F20B02C4F200021278D2B222F00102D2B21A70BD4680BC704700BF93
:4019C00080B400AF46F21E03C4F200031B7848F2EC13C1F6FF731B7EDBB203F00303012B0FD048F2EC13C1F6FF73DB7EDBB283F07F036FEA0303DAB248F2EC13C1F6FF7349
:401A0000DA7648F2EC13C1F6FF734FF001025A7646F20B03C4F2000346F20B02C4F200021278D2B222F00202D2B21A70BD4680BC704700BF80B400AF46F22E03C4F20003FA
:401A40001B7848F2EC13C1F6FF7393F82430DBB203F00303012B11D048F2EC13C1F6FF7393F82730DBB283F07F036FEA0303DAB248F2EC13C1F6FF7383F8272048F2EC13F1
:401A8000C1F6FF734FF0010283F8252046F20B03C4F2000346F20B02C4F200021278D2B222F00402D2B21A70BD4680BC704700BF80B400AFBD4680BC704700BF80B500AF9A
:401AC000FFF74AF880BD00BF80B586B000AF4FF00003FB754FF000033B6148F2D013C1F6FF734FF000021A804FF4C043C4F200031B78DBB2DBB25BB2002B80F2958146F243
:401B00000103C4F200031B78DBB20A2B00F2D88201A252F823F000BFED1C0000C1200000C1200000C1200000C1200000C1200000451B0000C1200000C31D0000C120000018
:401B4000ED1D000046F20303C4F200031B78DBB2012B15D101F01EF8B860BB685A6848F2D013C1F6FF735A6048F2D013C1F6FF734FF012021A80FFF7C9FC0346FB75A1E204
:401B800046F20303C4F200031B78DBB2022B32D146F20203C4F200031B78DBB2184600F0D7FFB860BB685A6848F2D013C1F6FF735A6048F2D013C1F6FF735B6803F10303A4
:401BC0001B78DBB24FEA03239AB248F2D013C1F6FF735B6803F102031B78DBB213439BB29AB248F2D013C1F6FF731A80FFF78EFC0346FB7566E246F20303C4F200031B781E
:401C0000DBB2032B6DD14FF00003FB7344F27463C0F200033B610AE03B691B78FB71FB793A69D3183B61FB7B03F10103FB7346F20203C4F200031B78DBB2FA7B9A4204D259
:401C40003B691B78DBB2002BE6D146F20203C4F200031B78DBB2EE2B04D144F27473C0F200033B6146F20203C4F200031B78DBB2002B1CD046F20203C4F200031B78DAB20A
:401C800044F21C63C0F200031B7C9A420FD144F21473C0F200033B6148F26020C1F6FF7000F01CFA48F26023C1F6FF733B613B691B78DBB2002B00F005823B691B78DBB2C7
:401CC0001A4648F2D013C1F6FF731A8048F2D013C1F6FF733A695A60FFF718FC0346FB75F0E101F005FE0346FB75EBE14FF4C043C4F200031B78DBB203F00303002B37D0AA
:401D0000022B5CD148F2D013C1F6FF734FF002021A8046F20403C4F200031B78DBB203F07F0148F2EC12C1F6FF720B464FEA43035B184FEA8303D3189B78DAB248F2A813BA
:401D4000C1F6FF731A7048F2A813C1F6FF734FF000025A7048F2D013C1F6FF7348F2A812C1F6FF725A60FFF7D1FB0346FB7527E048F2D013C1F6FF734FF002021A8048F28C
:401D8000E913C1F6FF731B78DAB248F2A813C1F6FF731A7048F2A813C1F6FF734FF000025A7048F2D013C1F6FF7348F2A812C1F6FF725A60FFF7AAFB0346FB7500E000BFFF
:401DC00085E148F2D013C1F6FF734FF001021A8048F2D013C1F6FF7348F2E712C1F6FF725A60FFF793FB0346FB7570E148F2D013C1F6FF734FF001021A8046F20403C4F25B
:401E000000031B78DBB21A4648F25823C1F6FF73D21848F2D013C1F6FF735A60FFF776FB0346FB7500BF52E146F20103C4F200031B78DBB203F1FF330A2B00F2458101A27A
:401E400052F823F0211F0000C9200000F11F0000C9200000711E0000C9200000C9200000C9200000911E0000C9200000C71E000046F20203C4F200031B78DAB248F2E613D4
:401E8000C1F6FF731A70FFF7BBFC0346FB751EE146F20203C4F200031B78DAB248F2E713C1F6FF731A7048F2E413C1F6FF734FF001021A704FF0010000F066FAFFF7A0FCC6
:401EC0000346FB7503E101F017F80346002B00F0FD8046F20403C4F200031B78BB7148F2DC13C1F6FF73BA791A7048F2E413C1F6FF734FF001021A7000F080FCBA79B979A7
:401F000048F25823C1F6FF735B5CD9B248F2CC13C1F6FF739954FFF773FC0346FB75D5E04FF4C043C4F200031B78DBB203F00303012B2BD0012B0ED3022B52D146F20203A6
:401F4000C4F200031B78DBB2002B4BD100F0F2FE0346FB7546E046F20203C4F200031B78DBB2012B40D148F2E913C1F6FF731B78DBB223F00203DAB248F2E913C1F6FF73AD
:401F80001A70FFF73DFC0346FB752DE046F20403C4F200031B78DBB2012B27D846F20403C4F200031B78DBB21A46194648F25C23C1F6FF735B5CD9B246F20203C4F200036E
:401FC0001B78DBB26FEA0303DBB20B40D9B248F25C23C1F6FF739954FFF712FC0346FB7504E004E000BF02E000BF00E000BF6EE04FF4C043C4F200031B78DBB203F0030346
:40200000012B2BD0012B0ED3022B52D146F20203C4F200031B78DBB2002B4BD100F0F2FD0346FB7546E046F20203C4F200031B78DBB2012B40D148F2E913C1F6FF731B78BC
:40204000DBB243F00203DAB248F2E913C1F6FF731A70FFF7D5FB0346FB752DE046F20403C4F200031B78DBB2012B27D846F20403C4F200031B78DBB21A46194648F25C23C7
:40208000C1F6FF735B5CD9B246F20203C4F200031B78DBB26FEA0303DBB20B40D9B248F25C23C1F6FF739954FFF7AAFB0346FB7504E004E000BF02E000BF00E000BF06E00D
:4020C00000BF04E000BF02E000BF00E000BFFB7D184607F11807BD4680BD00BF90B488B000AF78604FF00003BB7744F20863C0F2000307F10C040FCB84E80F007B68002B1A
:402100003AD07B684FF022021A707B6803F101034FF003021A704FF00203FB7729E0BB7F03F1924303F580731B787B77BB7F03F10103BB77FB7F7A68D3187A7F4FEA1212E9
:40214000D2B207F120018A1812F8142C1A70FB7F03F102037A68D3187A7F02F00F0207F120018A1812F8142C1A70FB7F03F10403FB77FB7F212BD2D907F12007BD4690BCBB
:40218000704700BF80B483B000AF4FF00103FB714FF00003BB71E5E0BB7903F1804303F5C1434FF00C021A70F97948F2EC12C1F6FF720B464FEA43035B184FEA8303D31834
:4021C0005B79DBB2002B25D0F97948F2EC12C1F6FF720B464FEA43035B184FEA8303D3181B79DBB2DBB25BB2002B09DABA7946F20E03C4F20003D3184FF00C021A7012E0ED
:40220000BA7946F20E03C4F20003D3184FF008021A7008E0BA7946F20E03C4F20003D3184FF080021A70BA7946F20C03C4F20003D3181846F97948F2EC12C1F6FF720B46B9
:402240004FEA43035B184FEA8303D31803F108031B889BB24FEA13239BB2DBB20370BA7946F20D03C4F20003D3181846F97948F2EC12C1F6FF720B464FEA43035B184FEA4C
:402280008303D31803F108031B889BB2DBB20370BA7946F28603C4F20003D3181846F97948F2EC12C1F6FF720B464FEA43035B184FEA8303D318DB889BB2DBB20370BA7926
:4022C00046F28703C4F20003D3181846F97948F2EC12C1F6FF720B464FEA43035B184FEA8303D318DB889BB24FEA13239BB2DBB20370BA7946F28403C4F20003D3181846FB
:40230000F97948F2EC12C1F6FF720B464FEA43035B184FEA8303D318DB889BB2DBB20370BA7946F28503C4F20003D3181846F97948F2EC12C1F6FF720B464FEA43035B1824
:402340004FEA8303D318DB889BB24FEA13239BB2DBB20370FB7903F10103FB71BB7903F11003BB71BB795BB2002BBFF615AF46F20A03C4F200034FF0FF021A7007F10C0750
:40238000BD4680BC704700BF80B588B000AF0346FB714FF000037B834FF00003FB7770E0F97F48F2EC12C1F6FF720B464FEA43035B184FEA8303D3184FF000021A70F97F4B
:4023C00048F2EC12C1F6FF720B464FEA43035B184FEA8303D3184FF000029A70F97F48F2EC12C1F6FF720B464FEA43035B184FEA8303D3184FF000025A70F97F48F2EC12C5
:40240000C1F6FF720B464FEA43035B184FEA8303D3184FF00002DA70F97F48F2EC12C1F6FF720B464FEA43035B184FEA8303D3184FF000025A71F97F48F2EC12C1F6FF7253
:402440000B464FEA43035B184FEA8303D31803F108034FF000021A80F97F48F2EC12C1F6FF720B464FEA43035B184FEA8303D31803F108034FF000029A70FB7F03F1010314
:40248000FB77FB7F082B8BD9FB79002B1AD04FF000037B7713E07A7F48F25823C1F6FF734FF0000199547A7F48F2CC13C1F6FF734FF0000199547B7F03F101037B777B7F9F
:4024C000012BE8D948F2E713C1F6FF731B78DBB2002B00F08E8148F2E713C1F6FF731B78DBB203F1FF33DBB2184600F031FB38613B695B68FB60FB6803F107031B7803F05C
:402500004003002B0ED048F2E913C1F6FF731B78DBB243F00103DAB248F2E913C1F6FF731A700DE048F2E913C1F6FF731B78DBB223F00103DAB248F2E913C1F6FF731A702C
:402540003B6903F108033B613B691B78FB774FF001037B77EBE03B695B687B614FF00003BB77DBE07A7F7B699B7803F07F039A4240F0CC80797F48F2EC12C1F6FF720B469B
:402580004FEA43035B184FEA8303D31803F108031B889AB27B699B889A4211D2797F7B69988848F2EC12C1F6FF720B464FEA43035B184FEA8303D31803F1080302461A80A1
:4025C0007B691B781A4648F25823C1F6FF739B5CDAB27B695B789A4240F098807B69DB7803F00303FB727B699B78DBB25BB2002B36DA797F48F2EC12C1F6FF720B464FEA7D
:4026000043035B184FEA8303D3184FF001025A70787FFB7A012B02D14FF0070101E04FF00D0148F2EC12C1F6FF7203464FEA43031B184FEA8303D3180A465A717B699B7933
:402640000A2B03D07B699B79022B3FD1FB7A032B3CD048F2B913C1F6FF737A7F1A7035E0797F48F2EC12C1F6FF720B464FEA43035B184FEA8303D3184FF000025A70787F60
:40268000FB7A012B02D14FF0050101E04FF0090148F2EC12C1F6FF7203464FEA43031B184FEA8303D3180A465A717B699B790A2B03D07B699B79022B08D1FB7A032B05D0A1
:4026C00048F2B813C1F6FF737A7F1A70797F7B69987848F2EC12C1F6FF720B464FEA43035B184FEA8303D31802461A71797F7B69D87848F2EC12C1F6FF720B464FEA4303C1
:402700005B184FEA8303D31802461A707B6903F108037B61BB7F03F10103BB77BA7FFB7F9A42FFF41FAF7B7F03F101037B777B7F082B7FF610AF3B695B687B614FF000036D
:402740007B771CE07B699B7803F07F017B69187848F2EC12C1F6FF720B464FEA43035B184FEA8303D31803F1080302469A707B6903F108037B617B7F03F101037B777A7F53
:40278000FB7F9A42DED300F019FA024648F2E013C1F6FF731A604FF00103FB7724E0F97F48F2EC12C1F6FF720B464FEA43035B184FEA8303D3187A8BDA80F97F48F2EC126A
:4027C000C1F6FF720B464FEA43035B184FEA8303D31803F108031B889AB27B8BD3187B83FB7F03F10103FB77FB7F082BD7D9FFF7C9FC07F12007BD4680BD00BF80B584B064
:4028000000AF48F2E713C1F6FF731B78DBB2002B00F0998148F2E713C1F6FF731B78DBB203F1FF33DBB2184600F092F978607B6803F108037B607B681B78FB707B685B6812
:40284000BB604FF00003FB7378E1BB681B781A4648F25823C1F6FF739B5CDAB2BB681B78194648F2CC13C1F6FF735B5CDBB29A4200F05C81BB681B781A4648F25823C1F6F7
:40288000FF739B5CDAB2BB685B789A4240F04E81BB681A7846F20403C4F200031B78DBB29A4240F04381BB689B7803F07F03BB70BB7803F1FF33DBB24FEA03137B70BB689C
:4028C000DB7803F003033B70BB689B78DBB25BB2002B25DAB97848F2EC12C1F6FF720B464FEA43035B184FEA8303D3184FF001025A70B8783B78012B02D14FF0070101E053
:402900004FF00D0148F2EC12C1F6FF7203464FEA43031B184FEA8303D3180A465A7124E0B97848F2EC12C1F6FF720B464FEA43035B184FEA8303D3184FF000025A70B8786D
:402940003B78012B02D14FF0050101E04FF0090148F2EC12C1F6FF7203464FEA43031B184FEA8303D3180A465A717A7846F20E03C4F20003D3184FF001021A70B978BB6817
:40298000988848F2EC12C1F6FF720B464FEA43035B184FEA8303D31803F1080302461A80B978BB68987848F2EC12C1F6FF720B464FEA43035B184FEA8303D31802461A7145
:4029C000B978BB68D87848F2EC12C1F6FF720B464FEA43035B184FEA8303D31802461A70B97848F2EC12C1F6FF720B464FEA43035B184FEA8303D3184FF00002DA707A7819
:402A000046F20C03C4F20003D3181846B97848F2EC12C1F6FF720B464FEA43035B184FEA8303D31803F108031B889BB24FEA13239BB2DBB203707A7846F20D03C4F2000331
:402A4000D3181846B97848F2EC12C1F6FF720B464FEA43035B184FEA8303D31803F108031B889BB2DBB203707A7846F28603C4F20003D3181846B97848F2EC12C1F6FF725A
:402A80000B464FEA43035B184FEA8303D318DB889BB2DBB203707A7846F28703C4F20003D3181846B97848F2EC12C1F6FF720B464FEA43035B184FEA8303D318DB889BB295
:402AC0004FEA13239BB2DBB203707A7846F28403C4F20003D3181846B97848F2EC12C1F6FF720B464FEA43035B184FEA8303D318DB889BB2DBB203707A7846F28503C4F2D1
:402B00000003D3181846B97848F2EC12C1F6FF720B464FEA43035B184FEA8303D318DB889BB24FEA13239BB2DBB20370BB6803F10803BB60FB7B03F10103FB73FA7BFB785E
:402B40009A42FFF482AE07F11007BD4680BD00BF80B485B000AF0346FB7148F2C913C1F6FF731B78DBB244F26C72C0F200024FEAC303D3185B68FB60FB7903F101034FEAA7
:402B8000C303FA68D3185B68184607F11407BD4680BC704780B400AF48F2C913C1F6FF731B78DBB244F26C72C0F200024FEAC303D3185B681846BD4680BC704780B582B066
:402BC00000AF48F2E713C1F6FF731B78DBB203F1FF33DBB21846FFF7BBFF78607B685B681B79FB70FB7803F102034FEAC3037A68D3187B607B685B68184607F10807BD464A
:402C000080BD00BF80B582B000AF4FF00003FB7146F20403C4F200031B78DBB203F07F03BB71BB7903F1FF33DBB24FEA03137B71BB79002B78D0BB79082B75D8B979B8793B
:402C400048F2EC12C1F6FF7203464FEA43031B184FEA8303D3189B78DBB243F00103D8B248F2EC12C1F6FF720B464FEA43035B184FEA8303D31802469A70B97948F2EC12E5
:402C8000C1F6FF720B464FEA43035B184FEA8303D3184FF00002DA70B979B87948F2EC12C1F6FF7203464FEA43031B184FEA8303D3185B78DBB243F00203D8B248F2EC12B2
:402CC000C1F6FF720B464FEA43035B184FEA8303D31802465A70B97948F2EC12C1F6FF720B464FEA43035B184FEA8303D3181B79DBB2DBB25BB2002B09DA7A7946F20E0329
:402D0000C4F20003D3184FF08D021A7008E07A7946F20E03C4F20003D3184FF089021A70FEF76EFD0346FB71FB79184607F10807BD4680BD80B582B000AF4FF00003FB7189
:402D400046F20403C4F200031B78DBB203F07F03BB71BB7903F1FF33DBB24FEA03137B71BB79002B00F0C180BB79082B00F2BD80B979B87948F2EC12C1F6FF7203464FEA0D
:402D800043031B184FEA8303D3189B78DBB223F00103D8B248F2EC12C1F6FF720B464FEA43035B184FEA8303D31802469A70B97948F2EC12C1F6FF720B464FEA43035B183B
:402DC0004FEA8303D3184FF00002DA707A7946F20C03C4F20003D3181A46797946F20C03C4F20003CB181B78DBB203F07F03DBB21370B979B87948F2EC12C1F6FF720346DA
:402E00004FEA43031B184FEA8303D3185B78DBB223F00203D8B248F2EC12C1F6FF720B464FEA43035B184FEA8303D31802465A70B97948F2EC12C1F6FF720B464FEA430373
:402E40005B184FEA8303D3181B79DBB2DBB25BB2002B23DAB97948F2EC12C1F6FF720B464FEA43035B184FEA8303D3185B78DBB2012B09D17A7946F20E03C4F20003D3188D
:402E80004FF00C021A702CE07A7946F20E03C4F20003D3184FF00D021A7022E0B97948F2EC12C1F6FF720B464FEA43035B184FEA8303D3185B78DBB2012B09D17A7946F265
:402EC0000E03C4F20003D3184FF008021A7008E07A7946F20E03C4F20003D3184FF009021A70FEF78DFC0346FB71FB79184607F10807BD4680BD00BF80B584B000AF4FF04C
:402F00000103FB7346F20403C4F200031B78BB7348F2E713C1F6FF731B78DBB203F1FF33DBB21846FFF714FEB860BB685B681B79FB71BA7BFB799A4202D2BB7B012B03D93B
:402F40004FF00003FB7318E0BA7BB97B48F25823C1F6FF735B5CD9B248F2CC13C1F6FF739954BA7B46F20203C4F200031B78D9B248F25823C1F6FF739954FB7B184607F111
:402F80001007BD4680BD00BF80B582B000AF4FF00003FB714FF4C043C4F200031B78DBB2DBB25BB2002B21DA46F20103C4F200031B78DBB2012B18D148F2D013C1F6FF73E8
:402FC00044F28872C0F200025A6044F28873C0F200031B781A4648F2D013C1F6FF731A80FEF794FA0346FB7100E000BFFB79184607F10807BD4680BD0230800800F005805B
:4030000000BF013800467FF4FCAF7047EFF3108072B6704780F31088704700BFAFF3008080B483B000AF0346FB7101BE07F10C07BD4680BC704700BF80B582B000AF786051
:403040000BE048F21813C1F6FF731B681846FFF7D3FF7B68A3F500437B607B68B3F5004FEFD848F21013C1F6FF731B687A6802FB03F31846FFF7C0FF07F10807BD4680BDBC
:4030800080B582B000AF0346FB80FA8848F21413C1F6FF731B7803FB02F31846FFF7ACFF07F10807BD4680BD80B584B000AF03463960FB714EF60853CEF200031B68FB60B8
:4030C000FB791F2B03D94FF00000FFF7A9FFFB7903F01F0303F110034FEA8303FA68D3181B68BB60FB7903F01F0303F110034FEA8303FA68D3183A681A60BB68184607F1EE
:403100001007BD4680BD00BF80B582B000AF02460B46FA71BB71BB79072B03D94FF00000FFF77EFFFB791F2B03D94FF00000FFF777FFFB7903F01F0303F1604303F564433B
:40314000BA794FEA4212D2B21A7007F10807BD4680BD00BF80B500AF4FF02800FFF76CFF4FF0030000F058FA4FF00500FFF764FF4FF0030000F050FA4FF00F00FFF75CFF93
:403180004FF0030000F048FA4FF00100FFF754FF4FF0020000F040FA4FF00500FFF74CFF4FF0060000F0C0F84FF00E0000F0BCF84FF02C0000F0B8F84FF0080000F0B4F856
:4031C0004FF0010000F0B0F84FF00C0000F0ACF84FF0030000F0A8F84FF00500FFF72CFF44F2B070C0F2000000F0D6FB80BD00BF80B500AF4FF00C0000F096F848F2AC1376
:40320000C1F6FF734FF001021A7080BD80B500AF48F2AD13C1F6FF731B78002B08D1FFF799FF48F2AD13C1F6FF734FF001021A70FFF7DEFF80BD00BF80B582B000AF024614
:403240000B46FA71BB71FB79032B2BD801A252F823F000BF65320000753200008532000095320000BB79A3F18003DBB2184600F05BF818E0BB79A3F14003DBB2184600F0EF
:4032800053F810E0BB79A3F16C03DBB2184600F04BF808E0BB79A3F12C03DBB2184600F043F800E000BF07F10807BD4680BD00BF80B584B000AF78604FF00103FB737B6860
:4032C0001B78BB730CE0BB7B184600F011F8FB7B7A68D3181B78BB73FB7B03F10103FB73BB7B002BEFD107F11007BD4680BD00BF80B584B000AF0346FB7100F031F8FB792B
:403300004FEA1313FB73FB7B184600F02DF9FB7903F00F03FB73FB7B184600F025F907F11007BD4680BD00BF80B584B000AF0346FB7100F015F8FB794FEA1313FB73FB7B7E
:40334000184600F069F9FB7903F00F03FB73FB7B184600F061F907F11007BD4680BD00BF80B582B000AF45F22013C4F2000345F22012C4F200021278D2B222F07F02D2B20B
:403380001A7045F22213C4F200031B78DBB223F00F03FB7145F22213C4F20003FA7942F00F02D2B21A7045F22313C4F200031B78DBB223F00F03FB7145F22313C4F20003C7
:4033C000FA791A7045F22413C4F200031B78DBB223F00F03FB7145F22413C4F20003FA791A7045F22013C4F2000345F22012C4F200021278D2B222F02002D2B21A7045F209
:403400002013C4F2000345F22012C4F200021278D2B242F04002D2B21A704FF00000FFF72FFE45F22013C4F2000345F22012C4F200021278D2B242F01002D2B21A704FF0AA
:403440000100FFF71DFE45F22113C4F200031B78FB7145F22013C4F2000345F22012C4F200021278D2B222F01002D2B21A704FF00000FFF705FEFB7903F00803FB7145F246
:403480002013C4F2000345F22012C4F200021278D2B242F01002D2B21A704FF00100FFF7EFFD45F22013C4F2000345F22012C4F200021278D2B222F01002D2B21A70FB7985
:4034C000002BAAD145F22013C4F2000345F22012C4F200021278D2B222F04002D2B21A7045F22013C4F2000345F22012C4F200021278D2B222F07F02D2B21A7045F2221313
:40350000C4F2000345F22212C4F200021278D2B222F00F02D2B21A7045F22313C4F200031B78DBB223F00F03FB7145F22313C4F20003FA7942F00F02D2B21A7045F2241341
:40354000C4F200031B78DBB223F00F03FB7145F22413C4F20003FA7942F00F02D2B21A7007F10807BD4680BD80B582B000AF0346FB71FFF7F5FE45F22013C4F2000345F2A1
:403580002012C4F200021278D2B242F02002D2B21A7045F22013C4F2000345F22012C4F200021278D2B222F04002D2B21A7045F22013C4F2000345F22012C4F2000212782F
:4035C000D2B222F00F02D2B21A7045F22013C4F2000345F22012C4F200021278D1B2FA790A43D2B242F01002D2B21A704FF00100FFF746FD45F22013C4F2000345F220122A
:40360000C4F200021278D2B222F01002D2B21A7007F10807BD4680BD80B582B000AF0346FB7145F22013C4F2000345F22012C4F200021278D2B222F06002D2B21A7045F275
:403640002013C4F2000345F22012C4F200021278D2B222F00F02D2B21A7045F22013C4F2000345F22012C4F200021278D1B2FA790A43D2B242F01002D2B21A704FF00100D7
:40368000FFF7FEFC45F22013C4F2000345F22012C4F200021278D2B222F01002D2B21A7007F10807BD4680BD80B586B000AF0346FB804FF00003FB7528E0F87DFA884CF67E
:4036C000CD43CCF6CC43A3FB02134FEAD3010B464FEA83035B184FEA4303D31A9BB2DBB203F13003DAB207F118010B1803F8102CFA884CF6CD43CCF6CC43A3FB02134FEAB1
:40370000D303FB80FB7D03F10103FB75FB88092BD3D8F87DFA884CF6CD43CCF6CC43A3FB02134FEAD3010B464FEA83035B184FEA4303D31A9BB2DBB203F13003DAB207F1A8
:4037400018010B1803F8102CFB7DBB7511E0BA7DFB7DD31AFA7D07F118018A1812F8102C07F11801CB1803F8082CFB7D03F1FF33FB75FB7D002BEAD1BB7D3A7A07F11801A5
:40378000CB1803F8082CBB7D03F1010307F11802D3184FF0000203F8082C07F110031846FFF786FD07F11807BD4680BD80B500AF48F2AE13C1F6FF731B78002B08D100F092
:4037C0000BF848F2AE13C1F6FF734FF001021A7000F03AF880BD00BF80B582B000AF46F27E43C4F200031B78DBB223F03F03FB7146F27E43C4F20003FA7942F00902D2B229
:403800001A7046F29E43C4F2000346F29E42C4F200021278D2B242F00102D2B21A704FF0FE0000F025F84FF0FE0000F031F84FF07F0000F03DF84FF03F0000F049F807F1E1
:403840000807BD4680BD00BF80B400AF46F27E43C4F2000346F27E42C4F200021278D2B262F07F02D2B21A70BD4680BC704700BF80B483B000AF0346FB7146F20E43C4F247
:403880000003FA791A7007F10C07BD4680BC704780B483B000AF0346FB7146F24E43C4F20003FA791A7007F10C07BD4680BC704780B483B000AF0346FB7146F22E43C4F292
:4038C0000003FA791A7007F10C07BD4680BC704780B483B000AF0346FB7146F23E43C4F20003FA791A7007F10C07BD4680BC704780B582B000AF4FF00003FB714FF0000386
:40390000BB714FF4C043C4F200031B78DBB203F00303012B02D0022B07D01EE046F20403C4F200031B78BB7118E046F20403C4F200031B78DBB203F07F0148F2EC12C1F61A
:40394000FF720B464FEA43035B184FEA8303D31803F108039B78BB7100E000BF48F2E013C1F6FF731A68BB79D3181B78022B04D0032B08D0012B08D004E0FDF7A7FA0346B5
:40398000FB7103E002E000BF00E000BFFB79184607F10807BD4680BD80B584B000AF7860FFF7DEFC4FF04000FFF7BEFC4FF00003FB730AE0FB7B7A68D3181B781846FFF7AC
:4039C00097FCFB7B03F10103FB73FB7B3F2BF1D9FFF7C6FC4FF08000FFF7A6FC07F11007BD4680BD38B50E4D0E4B0024E81A8510AC4205D00B4951F8242090470134F7E766
:403A000000F0BCFF0849094A541AA5100024AC4205D0054B53F8240080470134F7E738BD8849000088490000884900009049000010B50023934203D0CC5CC4540133F9E76F
:403A400010BD82180346934202D003F8011BFAE7704700000EB430B59CB01FAC4FF4017254F8045BADF814200290069000F01EF80B4A039007900B4800214FF6FF730B90D5
:403A80000F911491ADF81630106802A92A462346019400F06DF81CB0BDE8304003B070478081FF1FA93A000000207047034613F8012B002AFBD1181A0138704738B54B1CE0
:403AC000144602D14FF0FF3533E09389CDB2616B23F02002A28179B16268A16B8A4205DA2068431E236000F8015C10E0214600F0A7F90028F4D0E5E7206958B12368834267
:403B000008D913F8012CAA4204D1013B23606268501C0DE0616820682164214604F14403032201F8465FE0636363A263216001206060284638BD10B50C46496B69B104F1E0
:403B40004403994201D000F011FB216C00206063616011B1E26B226010BDA3892069002243F0200120606260A1814FF0FF3010BD2DE9F041ADF5247D07460C46904601936A
:403B800000F0F2FA9649974A002303A8469347934890A291A39298F80050002D00F04781914E33685819417801F00802D3B2FBB16668002E12DD8C4A206811680378CE18F0
:403BC000757805F00803DAB272B1479965684E1C6B1E0130479663602060E9E738462146A39DA8470028E6D008F10106B046D2E7252D08F101065DD14593439398F80150B8
:403C00002A2D03D11026439608F1020630783346A0F130010136092906D8459D0A2101FB050030384590F1E7682804D1439A42F00103439333461D786C2D04D1439E01331D
:403C400046F00200439019784C2904D1439A013342F0040543951E4616F8015B692D56D016D8642D4ED00FD85B2D56D004D8002D7BD0252D7CD11DE0632D79D1439840F0A9
:403C800040014391002052E0672D71D805204EE0702D2DD006D86E2D4BD06F2D68D10821449138E0752D2DD0782D25D0732D5FD102203CE06368002B0DDD21680878A8423A
:403CC00040F0B58065684A1C47996B1E481C6360226047908AE738462146A39A90470028EBD000F042FA4698002840F098809BE0439941F020034393439840F400724392A5
:403D0000102200E00A226E2D449204DC01E00021449103200BE0042009E0314603A800F0F5FA439A064642F0400343930120499022E0439DE8063FF559AFE90706D5019823
:403D4000479D021D019201680D804FE7019B15F0020F03F10402019203D01D68479B2B6044E747981968086040E700F0FEF95BE003230A20499344906368002B03DD439890
:403D8000420611D51BE038462146A39A90470028F5D0A6E747986168421C481E00284792606016DD5A1C22600F49236808681A788218517801F00800C2B2002AEAD1499BD1
:403DC000022B13DC384643A9224601AB00F074F81FE038462146A39B98470028E4D080E7BD3A0000373B00008481FF1F042B06DC384643A9224601AB00F0C4F809E00F4981
:403E000000293FF4F3AE384643A9224601ABAFF3008001280BD002287FF4E8AE61E7A38903F0400211B229B14FF0FF3002E000F09CF946980DF5247DBDE8F08100000000FC
:403E40002DE9F0410C46496B04F1440399421CD14FF4806100F0CEF918B94FF0FF30BDE8F08194F846204FF480616063A16380F8FF2394F8453080F8FE3394F8441080F848
:403E8000FD1300F2FD30206012E0A66B77003A4600F008FA05460028DFD000EB0608404629463246FFF7C4FDC4F800806563A7630020BDE8F08100002DE9F04115468A6850
:403EC00080460C4632B98869002814BF4FF0FF310121A1602668F20603D41F683A1D1A603F680026A369DBB923680136DB0603D42868027807F8012B696828684B1EA1689D
:403F0000421C481E6B602A60A06028B3002BE9DCD4F880314046294698470028E2D01BE0012B07D1296862690878115C0029DBD116B311E0022B01D066B10DE028681049B0
:403F4000027808688218517801F00800C2B2002ACAD0F1E7012B0FD0226812F0100105D1E068A269431CE36002B13970216900208E192661BDE8F0811846BDE8F08100BFFB
:403F80008481FF1F2DE9F04F1F46734B0C4687B006AE8146154693E80700A36806E90700A0696E4A6E495E1E032808BF1146B6F5AE7F019107D96FF4AE7040F25D1203EBED
:403FC000000AA26001E04FF0000A216804F11C0641F450632360B3464FF00008296803A850F828000978022200F04EF9002832D0B8F1010F0BD163682BB92168082241F462
:40400000007062602060236823F4A0600CE0B8F1020F0AD1236803F4C062B2F5007F1AD11021616043F480702060A1684A1EA26089B1286810F8013B0BF8013B6968286044
:404040004A1E002A6A6006DCD4F88031484629469847002841D108F10108B8F1030FBDD1606808B90A21616062683E4B6069991A00F04CF94FF00008A368002B2FD02A689D
:4040800060691178405C50B330290CD12168090509D508F10108BAF1000F0BD0591C0AF1FF3AA16006E0236823F41060206012780BF8012B6B68581E0028686003DD296848
:4040C0004B1C2B6005E0D4F8802148462946904728B9A068421EA260CEE74FF000082168C8050DD5B34509D91BF8011CD4F87C3148462A4698470BF1FF3AD346B34526D08D
:40410000206810F0100219D18BF80020636848463146019DA84722683B6812F0200F06D1D10704D5191D39601A68108003E0191D39601B681860E068421CE2602169C6EB64
:404140000B06B04401EB08032361002000E0012007B0BDE8F08F00BFF44700006D43000079440000104800007047704730B500293CD051F8042C0B1F1D49002AB8BF9B181F
:404180000A6812B95A600B6030BD93420ED219685818904203D15A5889184268196014485A60036030BD994203D80A4651680029F9D1146815199D420AD118682318D018CF
:4041C0008842136012D108681B1813604B680CE002D90C23036030BD18681C188C4203D10C684968001918605960536030BD00BFB081FF1F70B5CD1C25F0030508350C2D7C
:4042000038BF0C25002D06462DDB8D422BD31D4B1B681C469CB12268501B0DD40B2802D92060241817E0A34203D16068154A10601DE0616859601AE023466468EAE7294699
:40424000304600F053F8431C01460CD0CC1C24F003048C4201D1256009E03046611A00F045F80130F7D10C203060002070BD04F10B01231D21F00700C31A02D05A42E25004
:4042800070BD70BDB081FF1F10B5C9B2034682189342184604D0047801338C42F8D100E0002010BDF8B5064615460C4621B91146BDE8F840FFF79EBF1AB9FFF757FF2C467F
:4042C00012E000F057F9A8420ED230462946FFF791FF074638B121462A46FFF7A9FB30462146FFF743FF3C462046F8BD38B5064C002305460846236000F046F9431C02D11F
:40430000216801B1296038BD8482FF1FF0B50B785E2B02D00131002402E04B7801240231002284540132B2F5807FFAD10BB94A1E1AE0C4F10107FEB2C6540A46114611F8CF
:40434000014B2D2C04D05D2C0DD06CB12346F2E755785D2DFAD09D42F8DB02320133AB42C654FBDBEAE70A461046F0BD2DE9F74F01904048D0F800900846044614F8015BF6
:4043800009EB05067778204607F00806F7B2002FF3D12D2D03D114F8015B012704E02B2D04BF244614F8015B002B5CD0102B07D1302D05D12578782D4ED165781023023435
:4043C000002F0CBF6FF000404FF00040B0FBF3FA002603FB1A08304609EB050C9CF801C00CF0040B5FFA8BFBBBF1000F01D0303D0BE01CF0030C1BD0BCF1010F14BF4FF054
:40440000570C4FF0370CCCEB05059D4210DAB6F1FF3F0AD0504506D801D1454503DC03FB0050012601E04FF0FF3614F8015BD3E7731C0AD1002F01990CBF6FF000404FF0D8
:40444000004022230B6022B911E007B1404272B106B1611E11600AE0582DAED03025002BAED10823ACE7302DA4D00A23A8E7BDE8FE8F00BF8481FF1F2DE9F74F01903C48C0
:40448000D0F800900846044614F8015B09EB05067778204607F00806F7B2002FF3D12D2D03D114F8015B012704E02B2D04BF244614F8015B002B55D0102B07D1302D05D18A
:4044C0002578782D47D16578102302344FF0FF3ABAFBF3FA03FB0AF000266FEA0008304609EB050C9CF801C00CF0040B5FFA8BFBBBF1000F01D0303D0BE01CF0030C1BD0DF
:40450000BCF1010F14BF4FF0570C4FF0370CCCEB05059D4210DAB6F1FF3F0AD0504506D801D1454503DC03FB0050012601E04FF0FF3614F8015BD3E7731C05D101992223A0
:404540000B60304622B911E007B1404272B106B1611E11600AE0582DB5D03025002BB5D10823B3E7302DABD00A23AFE7BDE8FE8F8481FF1F51F8040C002802DA04390B58DE
:40458000C018043870470000094A13686BB118186946884202D8106018467047054B0C221A604FF0FF3318467047034B1360EEE7B481FF1F8482FF1F8882FF1F000000008B
:4045C0004C4544343A200000256868750000000000000000005100402000305100403000C0510040100000000140001000140140000800400140000A004C014000020050D3
:40460000014020000D0A000030313233343536373839414243444546000000001201000202000008B40432F2010001028001000009024300020101C032090400000102028A
:404640000103052400100104240202052406000105240100010705810308000A09040100020A0000040705820240000A0705030240000A00040309042C0343007900700011
:4046800072006500730073002000530065006D00690063006F006E0064007500630074006F007200100355005300420055004100520054003803430044004300200043001D
:4046C0006F006D006D0075006E00690063006100740069006F006E00200049006E007400650072006600610063006500260343004400430020004400610074006100200049
:4047000049006E00740065007200660061006300650000000203000000008103080002000100820240000A000100030240000A00020A0000010000003046000003000000B0
:4047400018470000000000000000000000000000000000000000000030470000010000001C4600000100000034470000010000005C47000012034D00530046005400310060
:404780003000300001000000280000000001040001000000000000000001435955534200000030303030310000000000000000000000000000000000101010101010101072
:4047C00018181818181818181C1C1C1C1C1C1C1C1E1E1E1E1E1E1E1E1F1F1F1F1F1F1F1F0000000000000000000000000000000043000000124800001548000018480000D7
:40480000412D46612D66383930313233343536375D002B2D0030300078580000202020202020202020282828282820202020202020202020202020202020202088101010FE
:404840001010101010101010101010100404040404040404040410101010101010414141414141010101010101010101010101010101010101010110101010101042424220
:4048800042424202020202020202020202020202020202020202021010101020000000000000000000000000000000000000000000000000000000000000000000000000AA
:4048C00000000000000000000000000000000000000000000000000000000000000000000000000000000000000000000000000000000000000000000000000000000000B8
:404900000000000000000000000000000000000000000000000000000000000000000000000000000000000000000000000000000000000000000000000000000000000077
:40494000000000000000000000000000000000000000000000000000000000000000000000000000000000000000000000000000000000000000000000000000F8B500BFCB
:40498000F8BC08BC9E4670475100000075030000F8B500BFF8BC08BC9E4670472D000000B04900000881FF1F80000000000100000000000000366E01C05D00001800000074
:4049C0000000E02E000000001C4900003C4900005C49000000000000000000000000000000000000F0470000000000000000000000000000000000000000000000000000E3
:404A0000000000000000000000000000000000000000000000000000000000000000000000000000000000001C81FF1F1B4800000000000000000000000000000000000058
:404A40000000000000000000000000000000000000000000000000000000000000000000000000000000000000000000000000000000000000000000000000000000000036
:404A800000000000000000000000000000000000000000000000000000000000000000000000000000000000000000000000000000000000000000000000000000000000F6
:404AC00000000000000000000000000000000000000000000000000000000000000000000000000000000000000000000000000000000000000000000000000000000000B6
:404B00000000000000000000000000000000000000000000000000000000000000000000000000000000000000000000000000000000000000000000000000000000000075
:020000040003F7
:0200000480007A
:400000000145004002520040010D01401D0E01400B0F014002170140021901400340014003410140034201400343014002440140024501400447014004480140024C01400D
:4000400002500140015101407E0230087C40B44012032601300136024010410545014720482149FF4AFF4BFF4DA04F045018528058045A045B045F01604062C064406540C8
:4000800066C068C06AC06CC06EC00902102018814001482250027102C208C404D008D208EA02EE0AEA02EE0A33813640CC709F01A640A7809F01A640A7809F01A640A780B1
:4000C0005420D402B420EC0808080B040F40C20EAE40AF81EA40EE50AC08AF4400010E01002A00000000000000000000C0000000007F7F0000000000000808000800000073
:4001000000000000000000000000000000000000000000000000000000000000000000000000000000000000000000000000000000000000000000000000000000000000BF
:40014000000000000000000000000000000000000000000000000000000000000000000000000000000000000000000000000000000000000000000000000000000000007F
:40018000000000000000000000000000000000000000000000000000000000000000000000000000000000000000000000000000000000000000000000000000000000003F
:4001C00000000000000000000000000000000000000000000000000000000000000000000000000000000000000000000000000000000000000000000000000000000000FF
:0200000490006A
:0400000000004005B7
:0200000490105A
:04000000BC90ACAF55
:0200000490303A
:02000000288551
:0200000490402A
:4000000000000000000000000000000000000000000000000000000000000000000000000000000000000000000000000000000000000000000000000000000000000000C0
:400040000000000000000000000000000000000000000000000000000000000000000000000000000000000000000000000000000000000000000000000000000000000080
:400080000000000000000000000000000000000000000000000000000000000000000000000000000000000000000000000000000000000000000000000000000000000040
:4000C0000000000000000000000000000000000000000000000000000000000000000000000000000000000000000000000000000000000000000000000000000000000000
:0200000490501A
:0C00000000012E12306900012E3258EE73
:00000001FF